:100000000C9423070C9454070C9454070C94540735
:100010000C9454070C9454070C9454070C945407F4
:100020000C9454070C9454070C945E3F0C945407A2
:100030000C9454070C9454070C9454070C945407D4
:100040000C9454070C9454070C9454070C945407C4
:100050000C9454070C9454070C9454070C94EA73B2
:100060000C9454070C94D46E0C940A6F0C9454079F
:100070000C9454070C9454070C9454070C94540794
:100080000C9454070C9454070C9454070C94540784
:100090000C9454070C9454070C9454070C94540774
:1000A0000C9454070C9454070C9454070C94540764
:1000B0000C9454070C9454070C9454070C94243F4C
:1000C0000C9454070C9454070C9454070C94540744
:1000D0000C9454070C9454070C946B6F0C94A16F00
:1000E0000C9454070C94AE610C9463070C946375E4
:1000F0000C941B6E0C945D750C94585B0C94027000
:100100000C946E750C944F750C946F750C94CB6FAA
:100110000C94B66D0C94946D0C944B750C94346FD8
:100120000C9447750C9498080C94C56D0C94D56F7D
:100130000C9446090C942F750C94FC5A0C946B7516
:100140000C94D75D0C944E5B0C9433750C94CE6874
:100150000C943D750C94CC590C94B2510C945F08DE
:100160000C9464070C942F5B0C94125B0C943B6E04
:100170000C94F95A0C9467750C94A26D0C94886DCC
:100180000C943E6F0C9441750C9455750C94560765
:100190000C94E35B0C94045A0C9429750C945975D7
:1001A0000C9437756364696E6F70737578585B0073
:1001B00000407A10F35A00A0724E18090010A5D41E
:1001C000E80000E87648170000E40B54020000CA7B
:1001D0009A3B000000E1F5050000809698000000C1
:1001E00040420F000000A086010000001027000020
:1001F0000000E803000000006400000000000A00A6
:10020000000000000100000000002C76D888DC67A8
:100210004F0823DFC1DFAE59E1B1B796E5E3E45300
:10022000C63AE651997696E8E6C28426EB898C9B1D
:1002300062ED407C6FFCEFBC9C9F40F2BAA56FA5BD
:10024000F490055A2AF75C936B6CF9676DC11BFC3F
:10025000E0E40D47FEF520E6B500D0ED902E03005A
:10026000943577050080841E080000204E0A0000A7
:1002700000C80C333333330F986E12831141EF8D66
:100280002114893BE65516CFFEE6DB18D1844B38A6
:100290001BF77C1D901DA4BBE424203284725E22D7
:1002A0008100C9F124ECA1E53D270000803FCDCCC1
:1002B000CC3D6F12833A95BFD6337D1D9026B3CEC9
:1002C000010CCDCCCC3D0AD7233C17B7D13877CC25
:1002D0002B329595E6241FB14F0A00002041000003
:1002E000C84200401C4620BCBE4CCA1B0E5AAEC5BC
:1002F0009D74526573706F6E736500526573706F95
:100300006E73652053656E64656420200020202094
:1003100020202020202020202020202020200052CB
:10032000696E6720202020202020202020202020EF
:1003300000202020202020202020202020202020DD
:10034000202020202000526573706F6E7365202D71
:100350002D3E205B2020205D00202020202020201A
:10036000202020202020202020202020200050613C
:10037000636B2053656E6465642E2E2E000D0A009B
:100380000D0A00557365722D4167656E743A200041
:10039000436F6E74656E742D547970653A20617088
:1003A000706C69636174696F6E2F6A736F6E0D0A8A
:1003B00000436F6E6E656374696F6E3A20636C6F95
:1003C00073650D0A000D0A00436F6E74656E742D1F
:1003D0004C656E6774683A20000D0A00486F7374AC
:1003E0003A200020485454502F312E310D0A00502D
:1003F0004F535420000D0A004154235353454E449B
:100400003D330020202020202020202020202020DC
:10041000202020202020200053656E64696E672014
:100420005061636B2E2E2E002020202020202020C3
:10043000202020202020202020202020004A534F50
:100440004E205061636B002020202020202020209F
:1004500020202020202020202020200044617461C2
:1004600020496E697469616C697A65004E6F20433A
:100470006F6E6E656374696F6E00436C6F75642098
:100480004F6E6C696E65004E6F20534420436F6E53
:100490006E6563746564004E6F20534420436F6E35
:1004A0006E656374656400202E2E200041542B433A
:1004B000434C4B00202E2E20004154234D4F4E49DB
:1004C0005A495000202E2E200041542349434D50BC
:1004D0003D3100202E2E20004154234652574C3DE2
:1004E000312C2A2A2A00202E2E2000415423465245
:1004F000574C3D312C2A2A2A00202E2E2000415410
:10050000234652574C3D312C2A2A2A00202E2E20D9
:1005100000415423534346474558543D322C312C17
:10052000302C312C302C3000202E2E200041542332
:10053000534346473D322C312C313530302C393045
:100540002C3330302C353000202E2E200041542307
:10055000534346474558543D332C312C302C312CD5
:10056000302C3000202E2E20004154235343464788
:100570003D332C312C313530302C39302C33303068
:100580002C353000202E2E20004154235347414368
:10059000543D312C3100202E2E200041542B2B4372
:1005A0004744434F4E543D312C2A2A2C2A2A2C2AC8
:1005B0002A2C302C30002020202000202E2E20003D
:1005C00041542B43475245473F00202E2E200041E7
:1005D000542B43475245473D300020202020002027
:1005E0002E2E200041542B435245473F00202E2EF3
:1005F000200041542B435245473D3000202E2E20F1
:100600000041542354584D4F4E4D4F44453D310009
:10061000202E2E20004154234532534C52493D3563
:100620003000202E2E2000415423534C454453418A
:100630005600202E2E2000415423534C45443D3279
:1006400000202E2E200041542B474D5200202E2EEC
:10065000200041542B474D4D00202E2E20004154A8
:100660002B474D4900202E2E200041542B43434957
:100670004400202E2E200041542B47534E00202EA4
:100680002E200041542B4347534E00202E2E200095
:1006900041542B4350494E3F00202E2E2000415400
:1006A000264B3000202E2E200041542B46434C4137
:1006B00053533D3000202E2E200041542B434D45F6
:1006C000453D3100202E2E20004154453000202E83
:1006D0002E200041542B4346554E3D312C300020F6
:1006E0002E2E20004154004661756C7400446576DE
:1006F0006963650054696D655374616D7000506184
:10070000796C6F61640043656C6C5F4944004C41D7
:10071000430064426D00436F6465004F7065726111
:10072000746F720049434349440053494D5F547903
:1007300070650053494D00494D4549005365726944
:10074000616C004669726D77617265004D6F64651A
:100750006C004D616E756661637475726572004DF3
:100760006F64756C650047534D0049420046420076
:10077000540043686172676500534F430041430072
:1007800049560048756D69646974790054656D70E7
:10079000657261747572650030302E30302E3030E5
:1007A000004669726D776172650030302E30302EF0
:1007B00030300048617264776172650049440049D5
:1007C0006E666F00446576696365004F6E6C696E96
:1007D00065002E003A00436F6D6D616E640020006D
:1007E000E29692000D0A00557365722D4167656EA1
:1007F000743A205354462D506F7765725374617468
:100800000D0A00436F6E74656E742D547970653AED
:10081000206170706C69636174696F6E2F6A736FA9
:100820006E0D0A00436F6E6E656374696F6E3A20D9
:10083000636C6F73650D0A000D0A00436F6E74657B
:100840006E742D4C656E6774683A20000D0A00487E
:100850006F73743A200020485454502F312E310DBC
:100860000A00504F535420000D0A00557365722D35
:100870004167656E743A205354462D506F77657208
:10088000537461740D0A00436F6E74656E742D5459
:100890007970653A206170706C69636174696F6E1C
:1008A0002F6A736F6E0D0A00436F6E6E6563746915
:1008B0006F6E3A20636C6F73650D0A004854545094
:1008C0002F312E3120343036204E6F742041636337
:1008D00065707461626C650D0A00485454502F3184
:1008E0002E3120343035204D6574686F64204E6F92
:1008F0007420416C6C6F7765640D0A004854545045
:100900002F312E3120343030204261642052657105
:10091000756573740D0A00485454502F312E3120E0
:100920003230322041636365707465640D0A00489B
:100930005454502F312E3120323030204F4B0D0A7D
:10094000000D0A0022002E68657800220041542321
:100950004654504653495A453D000D0A0041542320
:10096000465450545950453D000D0A004154234609
:100970005450524543563D000D0A00222C002E686B
:100980006578002200415423465450474554504B4B
:10099000543D000D0A0022002200415423465450C9
:1009A0004357443D000D0A00415423465450544FD0
:1009B0003D000D0A00415423465450434C4F5345CB
:1009C000000D0A00222C00222C2200222C220022C0
:1009D000004154234654504F50454E3D000D0A00EF
:1009E0002C0041542353524543563D000D0A00410B
:1009F00054235353454E443D000D0A002C002C0057
:100A0000222C002C22002C002C0041542353443D66
:100A1000000D0A002C0041542353413D000D0A00F3
:100A200041542353483D000D0A002C002C002C009B
:100A3000415423534C3D000D0A0041542353533D70
:100A4000000D0A002C002C002C002C002C0041541E
:100A500023534346474558543D000D0A002C002CB3
:100A6000002C002C002C00415423534346473D00EA
:100A70000D0A00222C223235352E3235352E3235F4
:100A8000352E3022002C22004154234652574C3D33
:100A9000000D0A0041542B43434C4B3F000D0A000C
:100AA0004154234D4F4E495A4950000D0A004154BC
:100AB0002349434D503D000D0A002C00415423535F
:100AC000474143543D000D0A002C00222C00222CEB
:100AD0002200222C22002C220041542B4347444365
:100AE0004F4E543D000D0A0041542B434752454799
:100AF0003F000D0A0041542B43475245473D000D2E
:100B00000A0041542B435245473F000D0A0041540F
:100B10002B435245473D000D0A0041542354584D84
:100B20004F4E4D4F44453D000D0A00415423453280
:100B3000534C52493D000D0A00415423534C454447
:100B4000534156000D0A00415423534C45443D0087
:100B50000D0A0041542343434944000D0A00415407
:100B60002B4347534E000D0A0041542B4350494E2E
:100B70003F000D0A004154264B000D0A0041542B42
:100B800046434C4153533D000D0A0041542B434D05
:100B900045453D000D0A00415445000D0A002C005A
:100BA00041542B4346554E3D000D0A0041542B47FE
:100BB000534E000D0A0041542B474D52000D0A00C0
:100BC00041542B474D4D000D0A0041542B474D49D0
:100BD000000D0A00415400506F73744F66666963DC
:100BE000650043656C6C204944004C41430049500A
:100BF00020416464726573730047534D204F7065E4
:100C00007261746F720052535349204C6576656C63
:100C10000047534D20436F6E6E656374696F6E209D
:100C200054696D65004943434944005365726961E5
:100C30006C20494400494D4549004669726D776111
:100C40007265004D6F64656C004D616E7566616321
:100C500074757265720055702054696D65203A2074
:100C60000047534D20546573742050726F63656460
:100C7000757265004641494C00204F4B20001B5BBC
:100C800000070048003B001B5B005D005B002E007E
:100C9000E2948000E294A400E2949C00E29480003C
:100CA000E294A400E2949C005B205D00E29480004A
:100CB000E2948000E2948200E2948200E294980040
:100CC000E2949000E2949400E2948C001B5B001B81
:100CD0005B3F32356C001B5B324A007C3C3E5E2B36
:100CE0003D3F2F5B5D3B2C2A225C0000000B0C0378
:100CF0000A0D0E0F090804050200000000000000A4
:100D000000000000000000000000000000000000E3
:100D1000000000000000001312110000000000009D
:100D200000000000000000000000000000000000C3
:100D300000000000000000000000000000000000B3
:100D400000010210202008081020401020408002DE
:100D50000102010804020101020408102040808001
:100D60004020100804020180040201804020100885
:100D7000040201080402010102040810204080015D
:100D800002040810204080044080048008101020D5
:100D900040040810204080050505050705080808DF
:100DA00008020202020A0A080804040404010101FC
:100DB0000101010101030303030303030304070704
:100DC000070C0C0C0C0C0C0C0C02020202060606A2
:100DD00006060606060B0B0B0B0B0B0B0B0505058E
:100DE000080807070404040A0A0A0A0A0A0000207D
:100DF000002300260029002C002F003200000100F3
:100E00000003010601090100002200250028002B33
:100E1000002E003100340002010000050108010B22
:100E20000100002100240027002A002D003000339B
:100E30000001010000040107010A0100CC59D75D3F
:100E40003E6FD56F045A11241FBECFEFD1E2DEBF33
:100E5000CDBF00E00CBF14E0A0E0B2E0E2EFF8E0AC
:100E600001E00BBF02C007900D92A437B107D9F77C
:100E700029E0A4E7B4E001C01D92A734B207E1F76E
:100E800017E0C2E2D7E000E006C021970109802FF9
:100E9000FE010E944976CE31D10780E00807A9F70C
:100EA0000E94DB730C9467840C94000080EF90E048
:100EB0009093FF048093FE0484EF91E090930105EA
:100EC00080930005089508950895CF93DF93EC0172
:100ED00088819981DC01ED91FC910084F185E02D00
:100EE00019951816190684F488819981DC01ED9111
:100EF000FC910284F385E02D199561E070E080E0BB
:100F000090E00E949074E4CFDF91CF91089580919A
:100F1000030183FF08C06AE070E080E090E00E9477
:100F2000907481E008956AE070E080E090E00E94B3
:100F3000907480E00895FA01309741F02481207880
:100F40002C60248360837183828393830895FB01E3
:100F5000309759F0948190789860948390E0B0E055
:100F6000A0E080839183A283B38308959C01FB0159
:100F7000309759F09481907898609483C901B0E0DB
:100F8000A0E080839183A283B383089561157105E6
:100F900079F023E637E0232B59F0DC01ED91FC9149
:100FA00084814130510529F48F7784837783668368
:100FB00008958068FACF0F931F93CF93DF93EC01CE
:100FC000062F142F67E87CE0888199810E943E708B
:100FD0004AE050E0602F888199810E944F7165E856
:100FE0007CE0888199810E943E704AE050E0612F48
:100FF000888199810E944F7163E87CE088819981A2
:10100000DF91CF911F910F910C943E7061E87CE0CD
:10101000FC01808191810C943E701F93CF93DF93EC
:10102000EC01162F6EE77CE0888199810E943E706A
:101030004AE050E0612F888199810E944F71888138
:101040009981DC01ED91FC910190F081E02D6DE63C
:10105000DF91CF911F911994DF92EF92FF920F933E
:101060001F93CF93DF9300D000D0CDB7DEB77C01C4
:10107000D22E0E94DB076D2DC7010E940D08F701DB
:10108000E080F180B801CE0101960E94B772BE01E6
:101090006F5F7F4FC7010E949570CE0101960E943D
:1010A0006E7126960FB6F894DEBF0FBECDBFDF91EE
:1010B000CF911F910F91FF90EF90DF9008950F93C4
:1010C0001F93CF93DF9300D000D0CDB7DEB78C0154
:1010D0008FE195E00E940608083C1105F1F46BE0F1
:1010E00072E0CE0101960E94DD718E010F5F1F4FED
:1010F00020E24CE665E18FE195E00E942C08C801F2
:101100000E946E7126960FB6F894DEBF0FBECDBF5B
:10111000DF91CF911F910F91089565E172E0CE01AB
:1011200001960E94DD718E010F5F1F4F2FE1E1CF0D
:101130000F931F93CF93DF9300D000D0CDB7DEB7CE
:10114000182F8FE195E00E94060860E272E01130EE
:1011500021F0123099F46AE272E0CE0101960E9409
:10116000DD718E010F5F1F4F2FE14CE665E18FE1CE
:1011700095E00E942C08C8010E946E7181E0809366
:10118000160526960FB6F894DEBF0FBECDBFDF91D1
:10119000CF911F910F910895BF92CF92DF92EF925E
:1011A000FF920F931F93CF93DF9300D000D0CDB762
:1011B000DEB76C01B62EF42EE22EE40EFE14A1F082
:1011C0006EE87CE0CE0101960E9419738E010F5FDC
:1011D0001F4F2AE54F2D6B2DC6010E942C08C80118
:1011E0000E946E71F394EACF26960FB6F894DEBF94
:1011F0000FBECDBFDF91CF911F910F91FF90EF9068
:10120000DF90CF90BF900895BF92CF92DF92EF9280
:10121000FF920F931F93CF93DF9300D000D0CDB7F1
:10122000DEB76C01E62EF42EB22E6CE87CE0CE0127
:1012300001960E9419738E010F5F1F4F25E24F2DFB
:101240006E2DC6010E942C08C8010E946E716AE8CA
:101250007CE0C8010E9419734F2D4B0D25E26E2DC5
:10126000C6010E942C08C8010E946E7126960FB616
:10127000F894DEBF0FBECDBFDF91CF911F910F91CC
:10128000FF90EF90DF90CF90BF9008950F931F9342
:10129000CF93DF9300D000D0CDB7DEB768E372E024
:1012A000CE0101960E94DD718E010F5F1F4F21E27A
:1012B0004CE665E18FE195E00E942C08C8010E9490
:1012C0006E718FE892ECA1EBB1E48093E10490930E
:1012D000E204A093E304B093E4048CEE91E5A5E06E
:1012E000B2E48093E5049093E604A093E704B093FE
:1012F000E80480E090E0A0E8BFE38093E9049093E5
:10130000EA04A093EB04B093EC0480E090E0A0E04A
:10131000B0E48093ED049093EE04A093EF04B093B7
:10132000F00480E090E0A0E4B0E48093F1049093B6
:10133000F204A093F304B093F40483E08093F504E3
:1013400080E090E0A0E3B1E48093F6049093F7048A
:10135000A093F804B093F90480EB94E09093FB041D
:101360008093FA0488EE93E09093FD048093FC044C
:1013700065EE73E0C8010E94DD7121E24CE665E193
:101380008FE195E00E942C08C8010E946E7126969C
:101390000FB6F894DEBF0FBECDBFDF91CF911F9186
:1013A0000F9108955F926F927F928F929F92AF926A
:1013B000BF92CF92DF92EF92FF920F931F93CF9342
:1013C000DF93CDB7DEB73C01162FB42ED22E65E2E7
:1013D0000E940D086CEC7CE0D3018D919C910E94E1
:1013E0003E704AE050E062E0F301808191810E940A
:1013F0004F71D3018D919C91DC01ED91FC91019095
:10140000F081E02D6DE619954B2D612FC3010E94EF
:10141000DB0768EC7CE0F301808191810E9483709E
:101420004B2D6D2DC3010E94DB0764EC7CE0D301E2
:101430008D919C910E948370402F612FC3010E9467
:10144000DB0760EC7CE0F301808191810E94837076
:10145000402F6D2DC3010E94DB076CEB7CE0D301B4
:101460008D919C910E94837099249394910E9D1468
:10147000D0F44B2D692DC3010E94DB0768EB7CE0A3
:10148000F301808191810E948370402F692DC301F7
:101490000E94DB0764EB7CE0D3018D919C910E945C
:1014A00083709394E4CF992493949B0C592C5016F9
:1014B000D0F4452D612FC3010E94DB0760EB7CE077
:1014C000F301808191810E948370452D6D2DC301B0
:1014D0000E94DB076CEA7CE0D3018D919C910E9415
:1014E00083705394E4CF61E2C3010E940D0842E08F
:1014F0004B0D612FC3010E94DB07B701F30180810F
:1015000091810E949570CC2019F165E2C3010E947F
:101510000D084CEF400F612FC3010E94DB0768EA02
:101520007CE0D3018D919C910E94837061E2C301A4
:101530000E940D084DEF400F612FC3010E94DB0791
:101540004AE050E06C2DF301808191810E94567138
:10155000AA2071F165E2C3010E940D081E5F4B2DA8
:10156000612FC3010E94DB0764EA7CE0D3018D9107
:101570009C910E948370402F612FC3010E94DB0762
:1015800060EA7CE0F301808191810E948370F92CF4
:10159000F01670F44F2D612FC3010E94DB076CE938
:1015A0007CE0D3018D919C910E948370F394F0CFE5
:1015B000882071F165E2C3010E940D08DA94DA9483
:1015C0004B2D6D2DC3010E94DB0768E97CE0F30120
:1015D000808191810E948370402F6D2DC3010E94F4
:1015E000DB0764E97CE0D3018D919C910E948370BC
:1015F000901670F4492D6D2DC3010E94DB0760E940
:101600007CE0F301808191810E9483709394F0CFFC
:10161000DF91CF911F910F91FF90EF90DF90CF90CE
:10162000BF90AF909F908F907F906F905F90089544
:10163000CF92DF92EF92FF920F931F93CF93DF939E
:1016400000D000D0CDB7DEB77C01D42EC22E6623E9
:1016500009F169E77CE0CE0101960E9419738E01C1
:101660000F5F1F4F20E24C2D6D2DC7010E942C08EB
:10167000C8010E946E7126960FB6F894DEBF0FBEA9
:10168000CDBFDF91CF911F910F91FF90EF90DF9031
:10169000CF90089564E77CE0CE0101960E94197313
:1016A0008E010F5F1F4F2FE1DECF6F927F928F92DF
:1016B000AF92CF92EF92FF920F931F93CF93DF934E
:1016C00000D000D0CDB7DEB73C016DE873E0CE01AD
:1016D00001960E94DD7188248394AA24A394C12CCE
:1016E000CE0101967C0108E72EE141E061E0C301F3
:1016F0000E94D209C7010E946E7161E67CE0C701B9
:101700000E941973870125E245E362E0C3010E944C
:101710002C08C7010E946E7166E57CE0C7010E943B
:10172000197325E243E062E0C3010E942C08C7015F
:101730000E946E7162E472E0C7010E94DD71812C2B
:10174000A12CCC24C39407E226E142E064E0C3016B
:101750000E94D209C7010E946E7115E02CE144E09D
:10176000612FC3010E94CC0825E040E2612FC30134
:101770000E9404091F5F163189F76CE472E0CE0104
:1017800001960E94DD71812CA12C32E0C32ECE0186
:1017900001967C010FE426E148E264E0C3010E9467
:1017A000D209C7010E946E7115E02EE14AE2612F55
:1017B000C3010E94CC0825E048E4612FC3010E94C8
:1017C00004091F5F163189F76BE572E0CE010196BF
:1017D0000E94DD71812CA12C83E0C82ECE010196E0
:1017E0007C0107E72BE040E564E0C3010E94D209D9
:1017F000C7010E946E7169E47CE0C7010E94197301
:10180000870125E242E565E0C3010E942C08C7017B
:101810000E946E7125E14EE565E0C3010E94CC088F
:1018200022E043E765E0C3010E94040963E47CE031
:10183000C7010E94197325E242E566E0C3010E94D8
:101840002C08C7010E946E712CE147E566E0C301D8
:101850000E94CC0822E043E766E0C3010E9404092D
:101860006AE37CE0C7010E94197325E242E567E064
:10187000C3010E942C08C7010E946E7121E14AE554
:1018800067E0C3010E94CC082AE04BE667E0C30191
:101890000E94040965E37CE0C7010E94197325E2F8
:1018A00042E568E0C3010E942C08C7010E946E71E6
:1018B0002FE046E568E0C3010E94CC0820E145E640
:1018C00068E0C3010E9404096BE27CE0C7010E944A
:1018D000197325E242E569E0C3010E942C08C701A3
:1018E0000E946E712FE04BE569E0C3010E94CC08B5
:1018F0002BE04AE669E0C3010E94040965E27CE04E
:10190000C7010E94197325E242E56AE0C3010E9403
:101910002C08C7010E946E712AE047E56AE0C30106
:101920000E94CC0824E141E66AE0C3010E94040958
:1019300060E572E0C7010E94DD7194E0C92E07E7FF
:1019400026E140E56CE0C3010E94D209C7010E9474
:101950006E7161E17CE0C7010E941973870125E285
:1019600042E56DE0C3010E942C08C7010E946E7120
:101970002BE045E66DE0C3010E94CC0825E040E77E
:101980006DE0C3010E94040966E07CE0C7010E948B
:10199000197325E242E56EE0C3010E942C08C701DD
:1019A0000E946E7126E14CE56EE0C3010E94CC08F6
:1019B00023E042E76EE0C3010E94040969EF7BE087
:1019C000C7010E94197325E242E56FE0C3010E943E
:1019D0002C08C7010E946E7121E14EE56FE0C30142
:1019E0000E94CC0826E04FE66FE0C3010E94040984
:1019F0006EEE7BE0C7010E94197325E242E560E1CB
:101A0000C3010E942C08C7010E946E7129E04CE5B9
:101A100060E1C3010E94CC0820E145E660E1C3011A
:101A20000E9404096AEE7BE0C7010E94197325E257
:101A300042E561E1C3010E942C08C7010E946E715A
:101A40002AE145E561E1C3010E94CC0826E04FE6AA
:101A500061E1C3010E94040962EE7BE0C7010E94BC
:101A6000197325E242E562E1C3010E942C08C70117
:101A70000E946E7126E149E562E1C3010E94CC0833
:101A800026E04FE662E1C3010E94040967ED7BE0B6
:101A9000C7010E94197325E242E565E1C3010E9476
:101AA0002C08C7010E946E712CE04CE565E1C30172
:101AB0000E94CC082AE04BE665E1C3010E940409BC
:101AC0006DE873E0C7010E94DD7128E0C22E07E7D0
:101AD00029E142E067E1C3010E94D209C7010E94E7
:101AE0006E7126960FB6F894DEBF0FBECDBFDF91A4
:101AF000CF911F910F91FF90EF90CF90AF908F906B
:101B00007F906F9008957F928F929F92AF92BF9235
:101B1000CF92DF92EF92FF920F931F93CF93DF93B9
:101B2000CDB7DEB7CF5FD1090FB6F894DEBF0FBED9
:101B3000CDBF8C010E946507CE0101966C018FEF2D
:101B4000D6011D928A95E9F764E170E080E090E0AB
:101B50000E94907464ED7BE0F801808191810E9485
:101B60003E7061ED7BE0D8018D919C910E943E70AA
:101B70000E9431744B015C016AE070E080E090E00B
:101B80000E949074E12CF12C7F2CF11029C0F801F7
:101B900080819181DC01ED91FC910284F385E02D3F
:101BA00019952E2D30E0F601E20FF31F80832C0FE4
:101BB0003D1FF90190819F3421F48B3411F4FF24EF
:101BC000F39480528F3508F4E3940E9431746819BD
:101BD00079098A099B09683E734081059105A0F245
:101BE000872DC150DF4F0FB6F894DEBF0FBECDBFBB
:101BF000DF91CF911F910F91FF90EF90DF90CF90E9
:101C0000BF90AF909F908F907F9008952F923F92BA
:101C10004F925F926F927F928F929F92AF92BF92FC
:101C2000CF92DF92EF92FF920F931F93CF93DF93A8
:101C3000CDB7DEB7CA50D1400FB6F894DEBF0FBEA5
:101C4000CDBF7C014B010E946507CE0101965C016E
:101C50008FEFD5011D928A95E9F76E01D3948AE042
:101C6000F60111928A95E9F764E170E080E090E076
:101C70000E9490746AEC7BE0D7018D919C910E9448
:101C80003E7067EC7BE0F701808191810E943E709D
:101C90000E9431742B013C016AE070E080E090E02A
:101CA0000E949074212C312CC65FDE4F3882CA50BE
:101CB000D140022D10E0311046C0D7018D919C918A
:101CC000DC01ED91FC910284F385E02D1995F5017D
:101CD000E00FF11F8083FE01E00FF11F90819F3420
:101CE00021F48B3411F43324339480528F3508F46B
:101CF00023940E9431746419750986099709683E16
:101D000073408105910580F2C65FDE4F8881CA501D
:101D1000D140C65FDE4F0FB6F894DEBF0FBECDBF19
:101D2000DF91CF911F910F91FF90EF90DF90CF90B7
:101D3000BF90AF909F908F907F906F905F904F90EB
:101D40003F902F90089520E002501109822F90E0DB
:101D50008017910754F4F601E80FF91F8A0D9B1DB7
:101D6000DC018C9180832F5FF1CF66E672E0C601C3
:101D70000E945B7B892B41F681E0F4018083C4CF14
:101D80002F923F924F925F926F927F928F929F928B
:101D9000AF92BF92CF92DF92EF92FF920F931F9379
:101DA000CF93DF93CDB7DEB7C451D1400FB6F894CF
:101DB000DEBF0FBECDBF7C014B010E946507CE0187
:101DC00001965C018FEFD5011D928A95E9F76E01AE
:101DD000D39484E1F60111928A95E9F764E170E009
:101DE00080E090E00E94907460EC7BE0D7018D91E0
:101DF0009C910E943E706DEB7BE0F70180819181A8
:101E00000E943E700E9431742B013C016AE070E038
:101E100080E090E00E949074212C312CCC5EDE4F4B
:101E20003882C451D140022D10E0311046C0D70194
:101E30008D919C91DC01ED91FC910284F385E02D64
:101E40001995F501E00FF11F8083FE01E00FF11FEE
:101E500090819F3421F48B3411F4332433948052D5
:101E60008F3508F423940E9431746419750986092A
:101E70009709683E73408105910580F2CC5EDE4F84
:101E80008881C451D140CC5EDE4F0FB6F894DEBFDE
:101E90000FBECDBFDF91CF911F910F91FF90EF90BB
:101EA000DF90CF90BF90AF909F908F907F906F907A
:101EB0005F904F903F902F90089520E002501109BD
:101EC000822F90E08017910754F4F601E80FF91F74
:101ED0008A0D9B1DDC018C9180832F5FF1CF6CE616
:101EE00072E0C6010E945B7B892B41F681E0F40120
:101EF0008083C4CF4F925F926F927F929F92AF92F6
:101F0000BF92CF92DF92EF92FF920F931F93CF93E6
:101F1000DF93CDB7DEB7CF5FD1090FB6F894DEBF40
:101F20000FBECDBF7C016B010E9465078E010F5F64
:101F30001F4F8FEFD8011D928A95E9F764E170E099
:101F400080E090E00E94907466EB7BE0F701808176
:101F500091810E943E7063EB7BE0D7018D919C9153
:101F60000E943E700E9431742B013C016AE070E0D7
:101F700080E090E00E949074912CB12CAB2CB110B9
:101F800041C0F70180819181DC01ED91FC910284D7
:101F9000F385E02D1995292D30E0F801E20FF31FAC
:101FA00080832C0F3D1FF90190819F3421F48B34E5
:101FB00011F4BB24B39480528F3508F493940E949B
:101FC00031746419750986099709683E7340810563
:101FD0009105A0F28A2DC150DF4F0FB6F894DEBFF5
:101FE0000FBECDBFDF91CF911F910F91FF90EF906A
:101FF000DF90CF90BF90AF909F907F906F905F9059
:102000004F9008958AE0D6011D928A95E9F7F8016C
:102010009E01339580E0919140ED490F4A3010F0D8
:102020009E3229F4D601A80FB11D9C938F5FE21751
:10203000F30789F7CFCF4F925F926F927F929F9273
:10204000AF92BF92CF92DF92EF92FF920F931F93C6
:10205000CF93DF93CDB7DEB7CF5FD1090FB6F8943A
:10206000DEBF0FBECDBF7C016B010E9465078E01F4
:102070000F5F1F4F8FEFD8011D928A95E9F764E13A
:1020800070E080E090E00E9490746CEA7BE0F701E1
:10209000808191810E943E7069EA7BE0D7018D9139
:1020A0009C910E943E700E9431742B013C016AE0B9
:1020B00070E080E090E00E949074912CB12CAB2CE9
:1020C000B11041C0F70180819181DC01ED91FC915B
:1020D0000284F385E02D1995292D30E0F801E20FF7
:1020E000F31F80832C0F3D1FF90190819F3421F451
:1020F0008B3411F4BB24B39480528F3508F493943D
:102100000E9431746419750986099709683E734005
:1021100081059105A0F28A2DC150DF4F0FB6F894CA
:10212000DEBF0FBECDBFDF91CF911F910F91FF900A
:10213000EF90DF90CF90BF90AF909F907F906F9087
:102140005F904F9008958BE0D6011D928A95E9F734
:10215000F8019E01339580E0919140ED490F4A309E
:1021600028F4D601A80FB11D9C938F5FE217F307E7
:1021700099F7D1CF7F928F929F92AF92BF92CF92D9
:10218000DF92EF92FF920F931F93CF93DF93CDB720
:10219000DEB7CF5FD1090FB6F894DEBF0FBECDBF5B
:1021A0008C01E62EF42E0E946507CE0101966C18B
:1021B0008FEFD6011D928A95E9F764E170E080E027
:1021C00090E00E94907460EA7BE0F8018081918148
:1021D0000E943E704AE050E06E2DD8018D919C9196
:1021E0000E944F716EE97BE0F801808191810E942D
:1021F0003E706F2D70E04AE050E0D8018D919C91C7
:102200000E943B716BE97BE0F801808191810E9423
:102210003E700E9431744B015C016AE070E080E026
:1022200090E00E949074E12CF12C7