:100000000C9423070C9454070C9454070C94540735
:100010000C9454070C9454070C9454070C945407F4
:100020000C9454070C9454070C945E3F0C945407A2
:100030000C9454070C9454070C9454070C945407D4
:100040000C9454070C9454070C9454070C945407C4
:100050000C9454070C9454070C9454070C94EA73B2
:100060000C9454070C94D46E0C940A6F0C9454079F
:100070000C9454070C9454070C9454070C94540794
:100080000C9454070C9454070C9454070C94540784
:100090000C9454070C9454070C9454070C94540774
:1000A0000C9454070C9454070C9454070C94540764
:1000B0000C9454070C9454070C9454070C94243F4C
:1000C0000C9454070C9454070C9454070C94540744
:1000D0000C9454070C9454070C946B6F0C94A16F00
:1000E0000C9454070C94AE610C9463070C946375E4
:1000F0000C941B6E0C945D750C94585B0C94027000
:100100000C946E750C944F750C946F750C94CB6FAA
:100110000C94B66D0C94946D0C944B750C94346FD8
:100120000C9447750C9498080C94C56D0C94D56F7D
:100130000C9446090C942F750C94FC5A0C946B7516
:100140000C94D75D0C944E5B0C9433750C94CE6874
:100150000C943D750C94CC590C94B2510C945F08DE
:100160000C9464070C942F5B0C94125B0C943B6E04
:100170000C94F95A0C9467750C94A26D0C94886DCC
:100180000C943E6F0C9441750C9455750C94560765
:100190000C94E35B0C94045A0C9429750C945975D7
:1001A0000C9437756364696E6F70737578585B0073
:1001B00000407A10F35A00A0724E18090010A5D41E
:1001C000E80000E87648170000E40B54020000CA7B
:1001D0009A3B000000E1F5050000809698000000C1
:1001E00040420F000000A086010000001027000020
:1001F0000000E803000000006400000000000A00A6
:10020000000000000100000000002C76D888DC67A8
:100210004F0823DFC1DFAE59E1B1B796E5E3E45300
:10022000C63AE651997696E8E6C28426EB898C9B1D
:1002300062ED407C6FFCEFBC9C9F40F2BAA56FA5BD
:10024000F490055A2AF75C936B6CF9676DC11BFC3F
:10025000E0E40D47FEF520E6B500D0ED902E03005A
:10026000943577050080841E080000204E0A0000A7
:1002700000C80C333333330F986E12831141EF8D66
:100280002114893BE65516CFFEE6DB18D1844B38A6
:100290001BF77C1D901DA4BBE424203284725E22D7
:1002A0008100C9F124ECA1E53D270000803FCDCCC1
:1002B000CC3D6F12833A95BFD6337D1D9026B3CEC9
:1002C000010CCDCCCC3D0AD7233C17B7D13877CC25
:1002D0002B329595E6241FB14F0A00002041000003
:1002E000C84200401C4620BCBE4CCA1B0E5AAEC5BC
:1002F0009D74526573706F6E736500526573706F95
:100300006E73652053656E64656420200020202094
:1003100020202020202020202020202020200052CB
:10032000696E6720202020202020202020202020EF
:1003300000202020202020202020202020202020DD
:10034000202020202000526573706F6E7365202D71
:100350002D3E205B2020205D00202020202020201A
:10036000202020202020202020202020200050613C
:10037000636B2053656E6465642E2E2E000D0A009B
:100380000D0A00557365722D4167656E743A200041
:10039000436F6E74656E742D547970653A20617088
:1003A000706C69636174696F6E2F6A736F6E0D0A8A
:1003B00000436F6E6E656374696F6E3A20636C6F95
:1003C00073650D0A000D0A00436F6E74656E742D1F
:1003D0004C656E6774683A20000D0A00486F7374AC
:1003E0003A200020485454502F312E310D0A00502D
:1003F0004F535420000D0A004154235353454E449B
:100400003D330020202020202020202020202020DC
:10041000202020202020200053656E64696E672014
:100420005061636B2E2E2E002020202020202020C3
:10043000202020202020202020202020004A534F50
:100440004E205061636B002020202020202020209F
:1004500020202020202020202020200044617461C2
:1004600020496E697469616C697A65004E6F20433A
:100470006F6E6E656374696F6E00436C6F75642098
:100480004F6E6C696E65004E6F20534420436F6E53
:100490006E6563746564004E6F20534420436F6E35
:1004A0006E656374656400202E2E200041542B433A
:1004B000434C4B00202E2E20004154234D4F4E49DB
:1004C0005A495000202E2E200041542349434D50BC
:1004D0003D3100202E2E20004154234652574C3DE2
:1004E000312C2A2A2A00202E2E2000415423465245
:1004F000574C3D312C2A2A2A00202E2E2000415410
:10050000234652574C3D312C2A2A2A00202E2E20D9
:1005100000415423534346474558543D322C312C17
:10052000302C312C302C3000202E2E200041542332
:10053000534346473D322C312C313530302C393045
:100540002C3330302C353000202E2E200041542307
:10055000534346474558543D332C312C302C312CD5
:10056000302C3000202E2E20004154235343464788
:100570003D332C312C313530302C39302C33303068
:100580002C353000202E2E20004154235347414368
:10059000543D312C3100202E2E200041542B2B4372
:1005A0004744434F4E543D312C2A2A2C2A2A2C2AC8
:1005B0002A2C302C30002020202000202E2E20003D
:1005C00041542B43475245473F00202E2E200041E7
:1005D000542B43475245473D300020202020002027
:1005E0002E2E200041542B435245473F00202E2EF3
:1005F000200041542B435245473D3000202E2E20F1
:100600000041542354584D4F4E4D4F44453D310009
:10061000202E2E20004154234532534C52493D3563
:100620003000202E2E2000415423534C454453418A
:100630005600202E2E2000415423534C45443D3279
:1006400000202E2E200041542B474D5200202E2EEC
:10065000200041542B474D4D00202E2E20004154A8
:100660002B474D4900202E2E200041542B43434957
:100670004400202E2E200041542B47534E00202EA4
:100680002E200041542B4347534E00202E2E200095
:1006900041542B4350494E3F00202E2E2000415400
:1006A000264B3000202E2E200041542B46434C4137
:1006B00053533D3000202E2E200041542B434D45F6
:1006C000453D3100202E2E20004154453000202E83
:1006D0002E200041542B4346554E3D312C300020F6
:1006E0002E2E20004154004661756C7400446576DE
:1006F0006963650054696D655374616D7000506184
:10070000796C6F61640043656C6C5F4944004C41D7
:10071000430064426D00436F6465004F7065726111
:10072000746F720049434349440053494D5F547903
:1007300070650053494D00494D4549005365726944
:10074000616C004669726D77617265004D6F64651A
:100750006C004D616E756661637475726572004DF3
:100760006F64756C650047534D0049420046420076
:10077000540043686172676500534F430041430072
:1007800049560048756D69646974790054656D70E7
:10079000657261747572650030302E30302E3030E5
:1007A000004669726D776172650030302E30302EF0
:1007B00030300048617264776172650049440049D5
:1007C0006E666F00446576696365004F6E6C696E96
:1007D00065002E003A00436F6D6D616E640020006D
:1007E000E29692000D0A00557365722D4167656EA1
:1007F000743A205354462D506F7765725374617468
:100800000D0A00436F6E74656E742D547970653AED
:10081000206170706C69636174696F6E2F6A736FA9
:100820006E0D0A00436F6E6E656374696F6E3A20D9
:10083000636C6F73650D0A000D0A00436F6E74657B
:100840006E742D4C656E6774683A20000D0A00487E
:100850006F73743A200020485454502F312E310DBC
:100860000A00504F535420000D0A00557365722D35
:100870004167656E743A205354462D506F77657208
:10088000537461740D0A00436F6E74656E742D5459
:100890007970653A206170706C69636174696F6E1C
:1008A0002F6A736F6E0D0A00436F6E6E6563746915
:1008B0006F6E3A20636C6F73650D0A004854545094
:1008C0002F312E3120343036204E6F742041636337
:1008D00065707461626C650D0A00485454502F3184
:1008E0002E3120343035204D6574686F64204E6F92
:1008F0007420416C6C6F7765640D0A004854545045
:100900002F312E3120343030204261642052657105
:10091000756573740D0A00485454502F312E3120E0
:100920003230322041636365707465640D0A00489B
:100930005454502F312E3120323030204F4B0D0A7D
:10094000000D0A0022002E68657800220041542321
:100950004654504653495A453D000D0A0041542320
:10096000465450545950453D000D0A004154234609
:100970005450524543563D000D0A00222C002E686B
:100980006578002200415423465450474554504B4B
:10099000543D000D0A0022002200415423465450C9
:1009A0004357443D000D0A00415423465450544FD0
:1009B0003D000D0A00415423465450434C4F5345CB
:1009C000000D0A00222C00222C2200222C220022C0
:1009D000004154234654504F50454E3D000D0A00EF
:1009E0002C0041542353524543563D000D0A00410B
:1009F00054235353454E443D000D0A002C002C0057
:100A0000222C002C22002C002C0041542353443D66
:100A1000000D0A002C0041542353413D000D0A00F3
:100A200041542353483D000D0A002C002C002C009B
:100A3000415423534C3D000D0A0041542353533D70
:100A4000000D0A002C002C002C002C002C0041541E
:100A500023534346474558543D000D0A002C002CB3
:100A6000002C002C002C00415423534346473D00EA
:100A70000D0A00222C223235352E3235352E3235F4
:100A8000352E3022002C22004154234652574C3D33
:100A9000000D0A0041542B43434C4B3F000D0A000C
:100AA0004154234D4F4E495A4950000D0A004154BC
:100AB0002349434D503D000D0A002C00415423535F
:100AC000474143543D000D0A002C00222C00222CEB
:100AD0002200222C22002C220041542B4347444365
:100AE0004F4E543D000D0A0041542B434752454799
:100AF0003F000D0A0041542B43475245473D000D2E
:100B00000A0041542B435245473F000D0A0041540F
:100B10002B435245473D000D0A0041542354584D84
:100B20004F4E4D4F44453D000D0A00415423453280
:100B3000534C52493D000D0A00415423534C454447
:100B4000534156000D0A00415423534C45443D0087
:100B50000D0A0041542343434944000D0A00415407
:100B60002B4347534E000D0A0041542B4350494E2E
:100B70003F000D0A004154264B000D0A0041542B42
:100B800046434C4153533D000D0A0041542B434D05
:100B900045453D000D0A00415445000D0A002C005A
:100BA00041542B4346554E3D000D0A0041542B47FE
:100BB000534E000D0A0041542B474D52000D0A00C0
:100BC00041542B474D4D000D0A0041542B474D49D0
:100BD000000D0A00415400506F73744F66666963DC
:100BE000650043656C6C204944004C41430049500A
:100BF00020416464726573730047534D204F7065E4
:100C00007261746F720052535349204C6576656C63
:100C10000047534D20436F6E6E656374696F6E209D
:100C200054696D65004943434944005365726961E5
:100C30006C20494400494D4549004669726D776111
:100C40007265004D6F64656C004D616E7566616321
:100C500074757265720055702054696D65203A2074
:100C60000047534D20546573742050726F63656460
:100C7000757265004641494C00204F4B20001B5BBC
:100C800000070048003B001B5B005D005B002E007E
:100C9000E2948000E294A400E2949C00E29480003C
:100CA000E294A400E2949C005B205D00E29480004A
:100CB000E2948000E2948200E2948200E294980040
:100CC000E2949000E2949400E2948C001B5B001B81
:100CD0005B3F32356C001B5B324A007C3C3E5E2B36
:100CE0003D3F2F5B5D3B2C2A225C0000000B0C0378
:100CF0000A0D0E0F090804050200000000000000A4
:100D000000000000000000000000000000000000E3
:100D1000000000000000001312110000000000009D
:100D200000000000000000000000000000000000C3
:100D300000000000000000000000000000000000B3
:100D400000010210202008081020401020408002DE
:100D50000102010804020101020408102040808001
:100D60004020100804020180040201804020100885
:100D7000040201080402010102040810204080015D
:100D800002040810204080044080048008101020D5
:100D900040040810204080050505050705080808DF
:100DA00008020202020A0A080804040404010101FC
:100DB0000101010101030303030303030304070704
:100DC000070C0C0C0C0C0C0C0C02020202060606A2
:100DD00006060606060B0B0B0B0B0B0B0B0505058E
:100DE000080807070404040A0A0A0A0A0A0000207D
:100DF000002300260029002C002F003200000100F3
:100E00000003010601090100002200250028002B33
:100E1000002E003100340002010000050108010B22
:100E20000100002100240027002A002D003000339B
:100E30000001010000040107010A0100CC59D75D3F
:100E40003E6FD56F045A11241FBECFEFD1E2DEBF33
:100E5000CDBF00E00CBF14E0A0E0B2E0E2EFF8E0AC
:100E600001E00BBF02C007900D92A437B107D9F77C
:100E700029E0A4E7B4E001C01D92A734B207E1F76E
:100E800017E0C2E2D7E000E006C021970109802FF9
:100E9000FE010E944976CE31D10780E00807A9F70C
:100EA0000E94DB730C9467840C94000080EF90E048
:100EB0009093FF048093FE0484EF91E090930105EA
:100EC00080930005089508950895CF93DF93EC0172
:100ED00088819981DC01ED91FC910084F185E02D00
:100EE00019951816190684F488819981DC01ED9111
:100EF000FC910284F385E02D199561E070E080E0BB
:100F000090E00E949074E4CFDF91CF91089580919A
:100F1000030183FF08C06AE070E080E090E00E9477
:100F2000907481E008956AE070E080E090E00E94B3
:100F3000907480E00895FA01309741F02481207880
:100F40002C60248360837183828393830895FB01E3
:100F5000309759F0948190789860948390E0B0E055
:100F6000A0E080839183A283B38308959C01FB0159
:100F7000309759F09481907898609483C901B0E0DB
:100F8000A0E080839183A283B383089561157105E6
:100F900079F023E637E0232B59F0DC01ED91FC9149
:100FA00084814130510529F48F7784837783668368
:100FB00008958068FACF0F931F93CF93DF93EC01CE
:100FC000062F142F67E87CE0888199810E943E708B
:100FD0004AE050E0602F888199810E944F7165E856
:100FE0007CE0888199810E943E704AE050E0612F48
:100FF000888199810E944F7163E87CE088819981A2
:10100000DF91CF911F910F910C943E7061E87CE0CD
:10101000FC01808191810C943E701F93CF93DF93EC
:10102000EC01162F6EE77CE0888199810E943E706A
:101030004AE050E0612F888199810E944F71888138
:101040009981DC01ED91FC910190F081E02D6DE63C
:10105000DF91CF911F911994DF92EF92FF920F933E
:101060001F93CF93DF9300D000D0CDB7DEB77C01C4
:10107000D22E0E94DB076D2DC7010E940D08F701DB
:10108000E080F180B801CE0101960E94B772BE01E6
:101090006F5F7F4FC7010E949570CE0101960E943D
:1010A0006E7126960FB6F894DEBF0FBECDBFDF91EE
:1010B000CF911F910F91FF90EF90DF9008950F93C4
:1010C0001F93CF93DF9300D000D0CDB7DEB78C0154
:1010D0008FE195E00E940608083C1105F1F46BE0F1
:1010E00072E0CE0101960E94DD718E010F5F1F4FED
:1010F00020E24CE665E18FE195E00E942C08C801F2
:101100000E946E7126960FB6F894DEBF0FBECDBF5B
:10111000DF91CF911F910F91089565E172E0CE01AB
:1011200001960E94DD718E010F5F1F4F2FE1E1CF0D
:101130000F931F93CF93DF9300D000D0CDB7DEB7CE
:10114000182F8FE195E00E94060860E272E01130EE
:1011500021F0123099F46AE272E0CE0101960E9409
:10116000DD718E010F5F1F4F2FE14CE665E18FE1CE
:1011700095E00E942C08C8010E946E7181E0809366
:10118000160526960FB6F894DEBF0FBECDBFDF91D1
:10119000CF911F910F910895BF92CF92DF92EF925E
:1011A000FF920F931F93CF93DF9300D000D0CDB762
:1011B000DEB76C01B62EF42EE22EE40EFE14A1F082
:1011C0006EE87CE0CE0101960E9419738E010F5FDC
:1011D0001F4F2AE54F2D6B2DC6010E942C08C80118
:1011E0000E946E71F394EACF26960FB6F894DEBF94
:1011F0000FBECDBFDF91CF911F910F91FF90EF9068
:10120000DF90CF90BF900895BF92CF92DF92EF9280
:10121000FF920F931F93CF93DF9300D000D0CDB7F1
:10122000DEB76C01E62EF42EB22E6CE87CE0CE0127
:1012300001960E9419738E010F5F1F4F25E24F2DFB
:101240006E2DC6010E942C08C8010E946E716AE8CA
:101250007CE0C8010E9419734F2D4B0D25E26E2DC5
:10126000C6010E942C08C8010E946E7126960FB616
:10127000F894DEBF0FBECDBFDF91CF911F910F91CC
:10128000FF90EF90DF90CF90BF9008950F931F9342
:10129000CF93DF9300D000D0CDB7DEB768E372E024
:1012A000CE0101960E94DD718E010F5F1F4F21E27A
:1012B0004CE665E18FE195E00E942C08C8010E9490
:1012C0006E718FE892ECA1EBB1E48093E10490930E
:1012D000E204A093E304B093E4048CEE91E5A5E06E
:1012E000B2E48093E5049093E604A093E704B093FE
:1012F000E80480E090E0A0E8BFE38093E9049093E5
:10130000EA04A093EB04B093EC0480E090E0A0E04A
:10131000B0E48093ED049093EE04A093EF04B093B7
:10132000F00480E090E0A0E4B0E48093F1049093B6
:10133000F204A093F304B093F40483E08093F504E3
:1013400080E090E0A0E3B1E48093F6049093F7048A
:10135000A093F804B093F90480EB94E09093FB041D
:101360008093FA0488EE93E09093FD048093FC044C
:1013700065EE73E0C8010E94DD7121E24CE665E193
:101380008FE195E00E942C08C8010E946E7126969C
:101390000FB6F894DEBF0FBECDBFDF91CF911F9186
:1013A0000F9108955F926F927F928F929F92AF926A
:1013B000BF92CF92DF92EF92FF920F931F93CF9342
:1013C000DF93CDB7DEB73C01162FB42ED22E65E2E7
:1013D0000E940D086CEC7CE0D3018D919C910E94E1
:1013E0003E704AE050E062E0F301808191810E940A
:1013F0004F71D3018D919C91DC01ED91FC91019095
:10140000F081E02D6DE619954B2D612FC3010E94EF
:10141000DB0768EC7CE0F301808191810E9483709E
:101420004B2D6D2DC3010E94DB0764EC7CE0D301E2
:101430008D919C910E948370402F612FC3010E9467
:10144000DB0760EC7CE0F301808191810E94837076
:10145000402F6D2DC3010E94DB076CEB7CE0D301B4
:101460008D919C910E94837099249394910E9D1468
:10147000D0F44B2D692DC3010E94DB0768EB7CE0A3
:10148000F301808191810E948370402F692DC301F7
:101490000E94DB0764EB7CE0D3018D919C910E945C
:1014A00083709394E4CF992493949B0C592C5016F9
:1014B000D0F4452D612FC3010E94DB0760EB7CE077
:1014C000F301808191810E948370452D6D2DC301B0
:1014D0000E94DB076CEA7CE0D3018D919C910E9415
:1014E00083705394E4CF61E2C3010E940D0842E08F
:1014F0004B0D612FC3010E94DB07B701F30180810F
:1015000091810E949570CC2019F165E2C3010E947F
:101510000D084CEF400F612FC3010E94DB0768EA02
:101520007CE0D3018D919C910E94837061E2C301A4
:101530000E940D084DEF400F612FC3010E94DB0791
:101540004AE050E06C2DF301808191810E94567138
:10155000AA2071F165E2C3010E940D081E5F4B2DA8
:10156000612FC3010E94DB0764EA7CE0D3018D9107
:101570009C910E948370402F612FC3010E94DB0762
:1015800060EA7CE0F301808191810E948370F92CF4
:10159000F01670F44F2D612FC3010E94DB076CE938
:1015A0007CE0D3018D919C910E948370F394F0CFE5
:1015B000882071F165E2C3010E940D08DA94DA9483
:1015C0004B2D6D2DC3010E94DB0768E97CE0F30120
:1015D000808191810E948370402F6D2DC3010E94F4
:1015E000DB0764E97CE0D3018D919C910E948370BC
:1015F000901670F4492D6D2DC3010E94DB0760E940
:101600007CE0F301808191810E9483709394F0CFFC
:10161000DF91CF911F910F91FF90EF90DF90CF90CE
:10162000BF90AF909F908F907F906F905F90089544
:10163000CF92DF92EF92FF920F931F93CF93DF939E
:1016400000D000D0CDB7DEB77C01D42EC22E6623E9
:1016500009F169E77CE0CE0101960E9419738E01C1
:101660000F5F1F4F20E24C2D6D2DC7010E942C08EB
:10167000C8010E946E7126960FB6F894DEBF0FBEA9
:10168000CDBFDF91CF911F910F91FF90EF90DF9031
:10169000CF90089564E77CE0CE0101960E94197313
:1016A0008E010F5F1F4F2FE1DECF6F927F928F92DF
:1016B000AF92CF92EF92FF920F931F93CF93DF934E
:1016C00000D000D0CDB7DEB73C016DE873E0CE01AD
:1016D00001960E94DD7188248394AA24A394C12CCE
:1016E000CE0101967C0108E72EE141E061E0C301F3
:1016F0000E94D209C7010E946E7161E67CE0C701B9
:101700000E941973870125E245E362E0C3010E944C
:101710002C08C7010E946E7166E57CE0C7010E943B
:10172000197325E243E062E0C3010E942C08C7015F
:101730000E946E7162E472E0C7010E94DD71812C2B
:10174000A12CCC24C39407E226E142E064E0C3016B
:101750000E94D209C7010E946E7115E02CE144E09D
:10176000612FC3010E94CC0825E040E2612FC30134
:101770000E9404091F5F163189F76CE472E0CE0104
:1017800001960E94DD71812CA12C32E0C32ECE0186
:1017900001967C010FE426E148E264E0C3010E9467
:1017A000D209C7010E946E7115E02EE14AE2612F55
:1017B000C3010E94CC0825E048E4612FC3010E94C8
:1017C00004091F5F163189F76BE572E0CE010196BF
:1017D0000E94DD71812CA12C83E0C82ECE010196E0
:1017E0007C0107E72BE040E564E0C3010E94D209D9
:1017F000C7010E946E7169E47CE0C7010E94197301
:10180000870125E242E565E0C3010E942C08C7017B
:101810000E946E7125E14EE565E0C3010E94CC088F
:1018200022E043E765E0C3010E94040963E47CE031
:10183000C7010E94197325E242E566E0C3010E94D8
:101840002C08C7010E946E712CE147E566E0C301D8
:101850000E94CC0822E043E766E0C3010E9404092D
:101860006AE37CE0C7010E94197325E242E567E064
:10187000C3010E942C08C7010E946E7121E14AE554
:1018800067E0C3010E94CC082AE04BE667E0C30191
:101890000E94040965E37CE0C7010E94197325E2F8
:1018A00042E568E0C3010E942C08C7010E946E71E6
:1018B0002FE046E568E0C3010E94CC0820E145E640
:1018C00068E0C3010E9404096BE27CE0C7010E944A
:1018D000197325E242E569E0C3010E942C08C701A3
:1018E0000E946E712FE04BE569E0C3010E94CC08B5
:1018F0002BE04AE669E0C3010E94040965E27CE04E
:10190000C7010E94197325E242E56AE0C3010E9403
:101910002C08C7010E946E712AE047E56AE0C30106
:101920000E94CC0824E141E66AE0C3010E94040958
:1019300060E572E0C7010E94DD7194E0C92E07E7FF
:1019400026E140E56CE0C3010E94D209C7010E9474
:101950006E7161E17CE0C7010E941973870125E285
:1019600042E56DE0C3010E942C08C7010E946E7120
:101970002BE045E66DE0C3010E94CC0825E040E77E
:101980006DE0C3010E94040966E07CE0C7010E948B
:10199000197325E242E56EE0C3010E942C08C701DD
:1019A0000E946E7126E14CE56EE0C3010E94CC08F6
:1019B00023E042E76EE0C3010E94040969EF7BE087
:1019C000C7010E94197325E242E56FE0C3010E943E
:1019D0002C08C7010E946E7121E14EE56FE0C30142
:1019E0000E94CC0826E04FE66FE0C3010E94040984
:1019F0006EEE7BE0C7010E94197325E242E560E1CB
:101A0000C3010E942C08C7010E946E7129E04CE5B9
:101A100060E1C3010E94CC0820E145E660E1C3011A
:101A20000E9404096AEE7BE0C7010E94197325E257
:101A300042E561E1C3010E942C08C7010E946E715A
:101A40002AE145E561E1C3010E94CC0826E04FE6AA
:101A500061E1C3010E94040962EE7BE0C7010E94BC
:101A6000197325E242E562E1C3010E942C08C70117
:101A70000E946E7126E149E562E1C3010E94CC0833
:101A800026E04FE662E1C3010E94040967ED7BE0B6
:101A9000C7010E94197325E242E565E1C3010E9476
:101AA0002C08C7010E946E712CE04CE565E1C30172
:101AB0000E94CC082AE04BE665E1C3010E940409BC
:101AC0006DE873E0C7010E94DD7128E0C22E07E7D0
:101AD00029E142E067E1C3010E94D209C7010E94E7
:101AE0006E7126960FB6F894DEBF0FBECDBFDF91A4
:101AF000CF911F910F91FF90EF90CF90AF908F906B
:101B00007F906F9008957F928F929F92AF92BF9235
:101B1000CF92DF92EF92FF920F931F93CF93DF93B9
:101B2000CDB7DEB7CF5FD1090FB6F894DEBF0FBED9
:101B3000CDBF8C010E946507CE0101966C018FEF2D
:101B4000D6011D928A95E9F764E170E080E090E0AB
:101B50000E94907464ED7BE0F801808191810E9485
:101B60003E7061ED7BE0D8018D919C910E943E70AA
:101B70000E9431744B015C016AE070E080E090E00B
:101B80000E949074E12CF12C7F2CF11029C0F801F7
:101B900080819181DC01ED91FC910284F385E02D3F
:101BA00019952E2D30E0F601E20FF31F80832C0FE4
:101BB0003D1FF90190819F3421F48B3411F4FF24EF
:101BC000F39480528F3508F4E3940E9431746819BD
:101BD00079098A099B09683E734081059105A0F245
:101BE000872DC150DF4F0FB6F894DEBF0FBECDBFBB
:101BF000DF91CF911F910F91FF90EF90DF90CF90E9
:101C0000BF90AF909F908F907F9008952F923F92BA
:101C10004F925F926F927F928F929F92AF92BF92FC
:101C2000CF92DF92EF92FF920F931F93CF93DF93A8
:101C3000CDB7DEB7CA50D1400FB6F894DEBF0FBEA5
:101C4000CDBF7C014B010E946507CE0101965C016E
:101C50008FEFD5011D928A95E9F76E01D3948AE042
:101C6000F60111928A95E9F764E170E080E090E076
:101C70000E9490746AEC7BE0D7018D919C910E9448
:101C80003E7067EC7BE0F701808191810E943E709D
:101C90000E9431742B013C016AE070E080E090E02A
:101CA0000E949074212C312CC65FDE4F3882CA50BE
:101CB000D140022D10E0311046C0D7018D919C918A
:101CC000DC01ED91FC910284F385E02D1995F5017D
:101CD000E00FF11F8083FE01E00FF11F90819F3420
:101CE00021F48B3411F43324339480528F3508F46B
:101CF00023940E9431746419750986099709683E16
:101D000073408105910580F2C65FDE4F8881CA501D
:101D1000D140C65FDE4F0FB6F894DEBF0FBECDBF19
:101D2000DF91CF911F910F91FF90EF90DF90CF90B7
:101D3000BF90AF909F908F907F906F905F904F90EB
:101D40003F902F90089520E002501109822F90E0DB
:101D50008017910754F4F601E80FF91F8A0D9B1DB7
:101D6000DC018C9180832F5FF1CF66E672E0C601C3
:101D70000E945B7B892B41F681E0F4018083C4CF14
:101D80002F923F924F925F926F927F928F929F928B
:101D9000AF92BF92CF92DF92EF92FF920F931F9379
:101DA000CF93DF93CDB7DEB7C451D1400FB6F894CF
:101DB000DEBF0FBECDBF7C014B010E946507CE0187
:101DC00001965C018FEFD5011D928A95E9F76E01AE
:101DD000D39484E1F60111928A95E9F764E170E009
:101DE00080E090E00E94907460EC7BE0D7018D91E0
:101DF0009C910E943E706DEB7BE0F70180819181A8
:101E00000E943E700E9431742B013C016AE070E038
:101E100080E090E00E949074212C312CCC5EDE4F4B
:101E20003882C451D140022D10E0311046C0D70194
:101E30008D919C91DC01ED91FC910284F385E02D64
:101E40001995F501E00FF11F8083FE01E00FF11FEE
:101E500090819F3421F48B3411F4332433948052D5
:101E60008F3508F423940E9431746419750986092A
:101E70009709683E73408105910580F2CC5EDE4F84
:101E80008881C451D140CC5EDE4F0FB6F894DEBFDE
:101E90000FBECDBFDF91CF911F910F91FF90EF90BB
:101EA000DF90CF90BF90AF909F908F907F906F907A
:101EB0005F904F903F902F90089520E002501109BD
:101EC000822F90E08017910754F4F601E80FF91F74
:101ED0008A0D9B1DDC018C9180832F5FF1CF6CE616
:101EE00072E0C6010E945B7B892B41F681E0F40120
:101EF0008083C4CF4F925F926F927F929F92AF92F6
:101F0000BF92CF92DF92EF92FF920F931F93CF93E6
:101F1000DF93CDB7DEB7CF5FD1090FB6F894DEBF40
:101F20000FBECDBF7C016B010E9465078E010F5F64
:101F30001F4F8FEFD8011D928A95E9F764E170E099
:101F400080E090E00E94907466EB7BE0F701808176
:101F500091810E943E7063EB7BE0D7018D919C9153
:101F60000E943E700E9431742B013C016AE070E0D7
:101F700080E090E00E949074912CB12CAB2CB110B9
:101F800041C0F70180819181DC01ED91FC910284D7
:101F9000F385E02D1995292D30E0F801E20FF31FAC
:101FA00080832C0F3D1FF90190819F3421F48B34E5
:101FB00011F4BB24B39480528F3508F493940E949B
:101FC00031746419750986099709683E7340810563
:101FD0009105A0F28A2DC150DF4F0FB6F894DEBFF5
:101FE0000FBECDBFDF91CF911F910F91FF90EF906A
:101FF000DF90CF90BF90AF909F907F906F905F9059
:102000004F9008958AE0D6011D928A95E9F7F8016C
:102010009E01339580E0919140ED490F4A3010F0D8
:102020009E3229F4D601A80FB11D9C938F5FE21751
:10203000F30789F7CFCF4F925F926F927F929F9273
:10204000AF92BF92CF92DF92EF92FF920F931F93C6
:10205000CF93DF93CDB7DEB7CF5FD1090FB6F8943A
:10206000DEBF0FBECDBF7C016B010E9465078E01F4
:102070000F5F1F4F8FEFD8011D928A95E9F764E13A
:1020800070E080E090E00E9490746CEA7BE0F701E1
:10209000808191810E943E7069EA7BE0D7018D9139
:1020A0009C910E943E700E9431742B013C016AE0B9
:1020B00070E080E090E00E949074912CB12CAB2CE9
:1020C000B11041C0F70180819181DC01ED91FC915B
:1020D0000284F385E02D1995292D30E0F801E20FF7
:1020E000F31F80832C0F3D1FF90190819F3421F451
:1020F0008B3411F4BB24B39480528F3508F493943D
:102100000E9431746419750986099709683E734005
:1021100081059105A0F28A2DC150DF4F0FB6F894CA
:10212000DEBF0FBECDBFDF91CF911F910F91FF900A
:10213000EF90DF90CF90BF90AF909F907F906F9087
:102140005F904F9008958BE0D6011D928A95E9F734
:10215000F8019E01339580E0919140ED490F4A309E
:1021600028F4D601A80FB11D9C938F5FE217F307E7
:1021700099F7D1CF7F928F929F92AF92BF92CF92D9
:10218000DF92EF92FF920F931F93CF93DF93CDB720
:10219000DEB7CF5FD1090FB6F894DEBF0FBECDBF5B
:1021A0008C01E62EF42E0E946507CE0101966C018B
:1021B0008FEFD6011D928A95E9F764E170E080E027
:1021C00090E00E94907460EA7BE0F8018081918148
:1021D0000E943E704AE050E06E2DD8018D919C9196
:1021E0000E944F716EE97BE0F801808191810E942D
:1021F0003E706F2D70E04AE050E0D8018D919C91C7
:102200000E943B716BE97BE0F801808191810E9423
:102210003E700E9431744B015C016AE070E080E026
:1022200090E00E949074E12CF12C7F2CF11029C0D9
:10223000D8018D919C91DC01ED91FC910284F38594
:10224000E02D19952E2D30E0F601E20FF31F80836B
:102250002C0F3D1FF90190819F3421F48B3411F430
:10226000FF24F39480528F3508F4E3940E94317474
:10227000681979098A099B09683E734081059105AF
:10228000A0F2872DC150DF4F0FB6F894DEBF0FBE0E
:10229000CDBFDF91CF911F910F91FF90EF90DF9015
:1022A000CF90BF90AF909F908F907F9008957F9236
:1022B0008F929F92AF92BF92CF92DF92EF92FF9256
:1022C0000F931F93CF93DF93CDB7DEB7CF5FD109C5
:1022D0000FB6F894DEBF0FBECDBF8C01F62E0E9464
:1022E0006507CE0101966C018FEFD6011D928A958C
:1022F000E9F764E170E080E090E00E94907467E9A3
:102300007BE0F801808191810E943E706F2D70E02A
:102310004AE050E0D8018D919C910E943B7164E9A4
:102320007BE0F801808191810E943E700E943174AF
:102330004B015C016AE070E080E090E00E949074E4
:10234000E12CF12C7F2CF11029C0D8018D919C91AA
:10235000DC01ED91FC910284F385E02D19952E2D81
:1023600030E0F601E20FF31F80832C0F3D1FF901CF
:1023700090819F3421F48B3411F4FF24F394805224
:102380008F3508F4E3940E943174681979098A0939
:102390009B09683E734081059105A0F2872DC150CD
:1023A000DF4F0FB6F894DEBF0FBECDBFDF91CF91E8
:1023B0001F910F91FF90EF90DF90CF90BF90AF9063
:1023C0009F908F907F9008958F929F92AF92BF922F
:1023D000CF92DF92EF92FF920F931F93CF93DF93F1
:1023E000CDB7DEB7CF5FD1090FB6F894DEBF0FBE11
:1023F000CDBF633008F060C0B62E8C010E94650727
:10240000CE0101967C018FEFD7011D928A95E9F7E5
:1024100064E170E080E090E00E9490746BE87BE003
:10242000F801808191810E943E704AE050E06B2D5E
:10243000D8018D919C910E944F7168E87BE0F80172
:10244000808191810E943E700E9431744B015C0139
:102450006AE070E080E090E00E949074C12CD12C82
:102460008D2DD1102AC0D8018D919C91DC01ED9168
:10247000FC910284F385E02D19952C2D30E0F701B5
:10248000E20FF31F80832C0F3D1FF90190819F34D1
:1024900021F48B3411F4DD24D39480528F3508F469
:1024A000C3940E943174681979098A099B09683EAE
:1024B000734081059105A0F280E0C150DF4F0FB657
:1024C000F894DEBF0FBECDBFDF91CF911F910F916A
:1024D000FF90EF90DF90CF90BF90AF909F908F9044
:1024E00008957F928F929F92AF92BF92CF92DF9288
:1024F000EF92FF920F931F93CF93DF93CDB7DEB789
:10250000CF5FD1090FB6F894DEBF0FBECDBF8C01EF
:10251000F62E0E946507CE0101966C018FEFD60161
:102520001D928A95E9F764E170E080E090E00E94F6
:1025300090746DE77BE0F801808191810E943E708C
:102540004AE050E06F2DD8018D919C910E944F710F
:102550006AE77BE0F801808191810E943E700E94D1
:1025600031744B015C016AE070E080E090E00E9411
:102570009074E12CF12C7F2CF11029C0D8018D91A1
:102580009C91DC01ED91FC910284F385E02D19957D
:102590002E2D30E0F601E20FF31F80832C0F3D1F3C
:1025A000F90190819F3421F48B3411F4FF24F394CA
:1025B00080528F3508F4E3940E94317468197909C8
:1025C0008A099B09683E734081059105A0F2872D19
:1025D000C150DF4F0FB6F894DEBF0FBECDBFDF9105
:1025E000CF911F910F91FF90EF90DF90CF90BF9010
:1025F000AF909F908F907F9008957F928F929F923F
:10260000AF92BF92CF92DF92EF92FF920F931F9300
:10261000CF93DF93CDB7DEB7CF5FD1090FB6F89474
:10262000DEBF0FBECDBF8C01F62E0E946507CE0126
:1026300001966C018FEFD6011D928A95E9F764E14E
:1026400070E080E090E00E94907465E77BE0F80124
:10265000808191810E943E704AE050E06F2DD80148
:102660008D919C910E944F7162E77BE0F80180811F
:1026700091810E943E700E9431744B015C016AE0BE
:1026800070E080E090E00E949074E12CF12C7F2CAF
:10269000F11029C0D8018D919C91DC01ED91FC9144
:1026A0000284F385E02D19952E2D30E0F601E20F1E
:1026B000F31F80832C0F3D1FF90190819F3421F47B
:1026C0008B3411F4FF24F39480528F3508F4E39493
:1026D0000E943174681979098A099B09683E734020
:1026E00081059105A0F2872DC150DF4F0FB6F894F8
:1026F000DEBF0FBECDBFDF91CF911F910F91FF9035
:10270000EF90DF90CF90BF90AF909F908F907F9091
:1027100008954F925F926F927F929F92AF92BF9275
:10272000CF92DF92EF92FF920F931F93CF93DF939D
:10273000CDB7DEB7CF5FD1090FB6F894DEBF0FBEBD
:10274000CDBF7C018B010E946507CE0101965C0123
:102750008FEFD5011D928A95E9F764E170E080E082
:1027600090E00E94907469E67BE0F701808191819E
:102770000E943E7066E67BE0D7018D919C910E949D
:102780003E700E9431742B013C016AE070E080E0F1
:1027900090E00E949074912CC12CDC2CC11041C09F
:1027A000F70180819181DC01ED91FC910284F38538
:1027B000E02D1995292D30E0F501E20FF31F8083FC
:1027C0002C0F3D1FF90190819F3421F48B3411F4BB
:1027D000CC24C39480528F3508F493940E943174B2
:1027E000641975098609970968387341810591054F
:1027F000A0F28D2DC150DF4F0FB6F894DEBF0FBE93
:10280000CDBFDF91CF911F910F91FF90EF90DF909F
:10281000CF90BF90AF909F907F906F905F904F90C0
:102820000895D8011C92FE0135979E0126503F4F16
:1028300091E043E052E07F018281823571F463814F
:10284000653459F46481613441F46581643429F458
:102850006681693511F4D8019C933196D7016C914A
:102860006335F1F460816934D9F48D34C9F482811F
:102870008032B1F48381803541F48481893429F434
:1028800085818E3411F4D8015C938381803541F4C5
:102890008481853529F485818B3411F4D8014C93DA
:1028A000E217F30741F6DD24D394F80180818130EB
:1028B00009F49FCFD12C9DCF4F925F926F927F9260
:1028C0009F92AF92BF92CF92DF92EF92FF920F93BF
:1028D0001F93CF93DF93CDB7DEB7CF5FD1090FB68C
:1028E000F894DEBF0FBECDBF7C016B010E9465076F
:1028F0008E010F5F1F4F8FEFD8011D928A95E9F768
:1029000064E170E080E090E00E9490746EE57BE00E
:10291000F701808191810E943E706BE57BE0D701D9
:102920008D919C910E943E700E9431742B013C015C
:102930006AE070E080E090E00E949074912CB12CED
:10294000AB2CB11030C0F70180819181DC01ED9199
:10295000FC910284F385E02D1995292D30E0F801D2
:10296000E20FF31F80832C0F3D1FF90190819F34EC
:1029700021F48B3411F4BB24B39480528F3508F4C6
:1029800093940E9431746419750986099709683E09
:10299000734081059105E8F462E070E080E090E02A
:1029A0000E949074CDCF81E1D6011D928A95E9F7FE
:1029B000F8019E01339580E0919140ED490F4A3036
:1029C00028F4D601A80FB11D9C938F5FE217F3077F
:1029D00099F78A2DC150DF4F0FB6F894DEBF0FBEB6
:1029E000CDBFDF91CF911F910F91FF90EF90DF90BE
:1029F000CF90BF90AF909F907F906F905F904F90DF
:102A000008954F925F926F927F929F92AF92BF9282
:102A1000CF92DF92EF92FF920F931F93CF93DF93AA
:102A2000CDB7DEB7CF5FD1090FB6F894DEBF0FBECA
:102A3000CDBF7C016B010E9465078E010F5F1F4FA8
:102A40008FEFD8011D928A95E9F764E170E080E08C
:102A500090E00E94907463E57BE0F70180819181B2
:102A60000E943E7060E57BE0D7018D919C910E94B1
:102A70003E700E9431742B013C016AE070E080E0FE
:102A800090E00E949074912CB12CAB2CB11030C00E
:102A9000F70180819181DC01ED91FC910284F38545
:102AA000E02D1995292D30E0F801E20FF31F808306
:102AB0002C0F3D1FF90190819F3421F48B3411F4C8
:102AC000BB24B39480528F3508F493940E943174E0
:102AD0006419750986099709683E73408105910557
:102AE000E8F462E070E080E090E00E949074CDCF66
:102AF00085E1D6011D928A95E9F7F8019E0133958B
:102B000080E0919140ED490F4A3028F4D601A80F9A
:102B1000B11D9C938F5FE217F30799F78A2DC1507F
:102B2000DF4F0FB6F894DEBF0FBECDBFDF91CF9160
:102B30001F910F91FF90EF90DF90CF90BF90AF90DB
:102B40009F907F906F905F904F9008957F928F92AB
:102B50009F92AF92BF92CF92DF92EF92FF920F932C
:102B60001F93CF93DF93CDB7DEB7CF5FD1090FB6F9
:102B7000F894DEBF0FBECDBF8C01F62E0E94650714
:102B8000CE0101966C018FEFD6011D928A95E9F76F
:102B900064E170E080E090E00E94907467E47BE084
:102BA000F801808191810E943E704AE050E06F2DD3
:102BB000D8018D919C910E944F7164E47BE0F801F3
:102BC000808191810E943E700E9431744B015C01B2
:102BD0006AE070E080E090E00E949074E12CF12CBB
:102BE0007F2CF11029C0D8018D919C91DC01ED91D1
:102BF000FC910284F385E02D19952E2D30E0F6012D
:102C0000E20FF31F80832C0F3D1FF90190819F3449
:102C100021F48B3411F4FF24F39480528F3508F49F
:102C2000E3940E943174681979098A099B09683E06
:102C3000734081059105A0F2872DC150DF4F0FB67B
:102C4000F894DEBF0FBECDBFDF91CF911F910F91E2
:102C5000FF90EF90DF90CF90BF90AF909F908F90BC
:102C60007F9008957F928F929F92AF92BF92CF9262
:102C7000DF92EF92FF920F931F93CF93DF93CDB725
:102C8000DEB7CF5FD1090FB6F894DEBF0FBECDBF60
:102C90008C010E946507CE0101966C018FEFD60171
:102CA0001D928A95E9F764E170E080E090E00E946F
:102CB000907469E37BE0F801808191810E943E700D
:102CC00066E37BE0D8018D919C910E943E700E944A
:102CD00031744B015C016AE070E080E090E00E949A
:102CE0009074E12CF12C7F2CF11029C0F801808127
:102CF0009181DC01ED91FC910284F385E02D199521
:102D00002E2D30E0F601E20FF31F80832C0F3D1FC4
:102D1000F90190819F3421F48B3411F4FF24F39452
:102D200080528F3508F4E3940E9431746819790950
:102D30008A099B09683E734081059105A0F2872DA1
:102D4000C150DF4F0FB6F894DEBF0FBECDBFDF918D
:102D5000CF911F910F91FF90EF90DF90CF90BF9098
:102D6000AF909F908F907F9008957F928F929F92C7
:102D7000AF92BF92CF92DF92EF92FF920F931F9389
:102D8000CF93DF93CDB7DEB7CF5FD1090FB6F894FD
:102D9000DEBF0FBECDBF8C017B010E946507CE0157
:102DA00001966C018FEFD6011D928A95E9F764E1D7
:102DB00070E080E090E00E9490746BE27BE0F801AC
:102DC000808191810E943E704AE050E0B701D801B5
:102DD0008D919C910E94687168E27BE0F80180818E
:102DE00091810E943E700E9431744B015C016AE047
:102DF00070E080E090E00E949074E12CF12C7F2C38
:102E0000F11029C0D8018D919C91DC01ED91FC91CC
:102E10000284F385E02D19952E2D30E0F601E20FA6
:102E2000F31F80832C0F3D1FF90190819F3421F403
:102E30008B3411F4FF24F39480528F3508F4E3941B
:102E40000E943174681979098A099B09683E7340A8
:102E500081059105A0F2872DC150DF4F0FB6F89480
:102E6000DEBF0FBECDBFDF91CF911F910F91FF90BD
:102E7000EF90DF90CF90BF90AF909F908F907F901A
:102E800008957F928F929F92AF92BF92CF92DF92DE
:102E9000EF92FF920F931F93CF93DF93CDB7DEB7DF
:102EA000CF5FD1090FB6F894DEBF0FBECDBF8C0146
:102EB000F62E0E946507CE0101966C018FEFD601B8
:102EC0001D928A95E9F764E170E080E090E00E944D
:102ED00090746AE17BE0F801808191810E943E70EC
:102EE0004AE050E06F2DD8018D919C910E944F7166
:102EF00067E17BE0F801808191810E943E700E9431
:102F000031744B015C016AE070E080E090E00E9467
:102F10009074E12CF12C7F2CF11029C0D8018D91F7
:102F20009C91DC01ED91FC910284F385E02D1995D3
:102F30002E2D30E0F601E20FF31F80832C0F3D1F92
:102F4000F90190819F3421F48B3411F4FF24F39420
:102F500080528F3508F4E3940E943174681979091E
:102F60008A099B09683E734081059105A0F2872D6F
:102F7000C150DF4F0FB6F894DEBF0FBECDBFDF915B
:102F8000CF911F910F91FF90EF90DF90CF90BF9066
:102F9000AF909F908F907F9008957F928F929F9295
:102FA000AF92BF92CF92DF92EF92FF920F931F9357
:102FB000CF93DF93CDB7DEB7CF5FD1090FB6F894CB
:102FC000DEBF0FBECDBF8C01F62E0E946507CE017D
:102FD00001966C018FEFD6011D928A95E9F764E1A5
:102FE00070E080E090E00E9490746EE07BE0F80179
:102FF000808191810E943E706F2D70E04AE050E028
:10300000D8018D919C910E943B716BE07BE0F801AF
:10301000808191810E943E706AE070E080E090E0E3
:103020000E9490740E9431744B015C01E12CF12CE0
:103030007F2CF11029C0D8018D919C91DC01ED917C
:10304000FC910284F385E02D19952E2D30E0F601D8
:10305000E20FF31F80832C0F3D1FF90190819F34F5
:1030600021F48B3411F4FF24F39480528F3508F44B
:10307000E3940E943174681979098A099B09683EB2
:10308000734081059105A0F2872DC150DF4F0FB627
:10309000F894DEBF0FBECDBFDF91CF911F910F918E
:1030A000FF90EF90DF90CF90BF90AF909F908F9068
:1030B0007F9008953F924F925F926F927F928F928E
:1030C0009F92AF92BF92CF92DF92EF92FF920F93B7
:1030D0001F93CF93DF93CDB7DEB7CF5FD1090FB684
:1030E000F894DEBF0FBECDBF8C01862E372E6A014D
:1030F0000E946507CE0101965C018FEFD5011D92FC
:103100008A95E9F764E170E080E090E00E949074B5
:1031100062E07BE0F801808191810E943E706FEF58
:103120007AE0D8018D919C910E943E706AE070E037
:1031300080E090E00E9490740E9431742B013C0169
:10314000912CE12CFE2CE11043C0F801808191818B
:10315000DC01ED91FC910284F385E02D1995292D78
:1031600030E0F501E20FF31F80832C0F3D1FF901C2
:1031700090819F3421F48B3411F4EE24E394805237
:103180008F3508F493940E94317464197509860987
:103190009709683E734081059105A0F28F2DC150BB
:1031A000DF4F0FB6F894DEBF0FBECDBFDF91CF91DA
:1031B0001F910F91FF90EF90DF90CF90BF90AF9055
:1031C0009F908F907F906F905F904F903F90089569
:1031D000DF92CF923F928F9287E792E09F938F93F7
:1031E000BF92AF920E94197CFF24F3940FB6F8941B
:1031F000DEBF0FBECDBFD6018C91863078F2F12CA8
:10320000CDCF7F928F929F92AF92BF92CF92DF925B
:10321000EF92FF920F931F93CF93DF93CDB7DEB75B
:10322000CF5FD1090FB6F894DEBF0FBECDBF8C01C2
:10323000F62E0E946507CE0101966C018FEFD60134
:103240001D928A95E9F764E170E080E090E00E94C9
:10325000907465EF7AE0F801808191810E943E7060
:103260006F2D70E04AE050E0D8018D919C910E9452
:103270003B7162EF7AE0F801808191810E943E709B
:103280006AE070E080E090E00E9490740E943174E7
:103290004B015C01E12CF12C7F2CF11029C0D801ED
:1032A0008D919C91DC01ED91FC910284F385E02DE0
:1032B00019952E2D30E0F601E20FF31F80832C0FBD
:1032C0003D1FF90190819F3421F48B3411F4FF24C8
:1032D000F39480528F3508F4E3940E943174681996
:1032E00079098A099B09683E734081059105A0F21E
:1032F000872DC150DF4F0FB6F894DEBF0FBECDBF94
:10330000DF91CF911F910F91FF90EF90DF90CF90C1
:10331000BF90AF909F908F907F9008953F924F9273
:103320005F926F927F928F929F92AF92BF92CF9255
:10333000DF92EF92FF920F931F93CF93DF93CDB75E
:10334000DEB7CF5FD1090FB6F894DEBF0FBECDBF99
:103350008C01862E372E6A010E946507CE010196E8
:103360005C018FEFD5011D928A95E9F764E170E069
:1033700080E090E00E94907468EE7AE0F80180812D
:1033800091810E943E7065EE7AE0D8018D919C910A
:103390000E943E706AE070E080E090E00E949074CD
:1033A0000E9431742B013C01912CE12CFE2CE11088
:1033B00043C0F80180819181DC01ED91FC91028490
:1033C000F385E02D1995292D30E0F501E20FF31F6B
:1033D00080832C0F3D1FF90190819F3421F48B34A1
:1033E00011F4EE24E39480528F3508F493940E94F4
:1033F00031746419750986099709683E734081051F
:103400009105A0F28F2DC150DF4F0FB6F894DEBFAB
:103410000FBECDBFDF91CF911F910F91FF90EF9025
:10342000DF90CF90BF90AF909F908F907F906F90E4
:103430005F904F903F900895DF92CF923F928F928E
:103440008AE892E09F938F93BF92AF920E94197C7B
:10345000FF24F3940FB6F894DEBF0FBECDBFD601A4
:103460008C91863078F2F12CCDCF4F925F926F9293
:103470007F928F929F92AF92BF92CF92DF92EF9204
:10348000FF920F931F93CF93DF93CDB7DEB7CF5F3C
:10349000D1090FB6F894DEBF0FBECDBF5C01F62E8A
:1034A0003A0149010E946507CE0101962C018FEF78
:1034B000D2011D928A95E9F764E170E080E090E026
:1034C0000E94907469ED7AE0F501808191810E94FB
:1034D0003E704AE050E06F2DD5018D919C910E9485
:1034E0004F7166ED7AE0F501808191810E943E7016
:1034F000B301D5018D919C910E94707062ED7AE0CC
:10350000F501808191810E943E70B401D5018D91B9
:103510009C910E9470706EEC7AE0F501808191813F
:103520000E943E70B801D5018D919C910E947070EF
:103530006BEC7AE0F501808191810E943E706E2DE6
:1035400070E04AE050E0D5018D919C910E943B7162
:1035500069EC7AE0F501808191810E943E706C2DCA
:1035600070E04AE050E0D5018D919C910E943B7142
:1035700066EC7AE0F501808191810E943E700E94A4
:1035800031746B017C016AE070E080E090E00E94A1
:10359000907400E010E0912E111128C0D5018D919A
:1035A0009C91DC01ED91FC910284F385E02D19954D
:1035B000202F30E0F201E20FF31F80832C0F3D1F1C
:1035C000F90190819F3419F48B3409F411E0805291
:1035D0008F3508F40F5F0E9431746C197D098E09D4
:1035E0009F09683E734081059105A8F2892DC1505D
:1035F000DF4F0FB6F894DEBF0FBECDBFDF91CF9186
:103600001F910F91FF90EF90DF90CF90BF90AF9000
:103610009F908F907F906F905F904F9008954F9202
:103620005F926F927F929F92AF92BF92CF92DF9202
:10363000EF92FF920F931F93CF93DF93CDB7DEB737
:10364000CB51D1400FB6F894DEBF0FBECDBF8C0179
:10365000A62ED42EC22EB32E0E9465079E012F5F88
:103660003F4F79018FEFD9011D928A95E9F764E107
:1036700070E080E090E00E9490746CEB7AE0F801DA
:10368000808191810E943E704AE050E06A2DD8010D
:103690008D919C910E944F716AEB7AE0F8018081D4
:1036A00091810E943E706D2D70E04AE050E0D8019B
:1036B0008D919C910E943B7167EB7AE0F8018081CB
:1036C00091810E943E700E9431742B013C016EE199
:1036D00070E080E090E00E949074A12C912CD92C95
:1036E000911041C0D8018D919C91DC01ED91FC912C
:1036F0000284F385E02D19952A2D30E0F701E20FC1
:10370000F31F80832C0F3D1FF90190819F3421F41A
:103710008B3411F49924939480528F3508F4A39438
:103720000E943174641975098609970960367A4ECA
:1037300081059105A0F28D2DC55EDE4F0FB6F89480
:10374000DEBF0FBECDBFDF91CF911F910F91FF90D4
:10375000EF90DF90CF90BF90AF909F907F906F9051
:103760005F904F900895FE01F39584E1DF011D9273
:103770008A95E9F7A70180E0942F9E199A1580F4A5
:10378000DA019D91AD0120ED290F2A3010F09E3213
:1037900099F79F01280F311DD9019C938F5FECCFC2
:1037A0008E010C5E1E4FC80106969F938F93029761
:1037B0009F938F9302979F938F931F930F938EE9FD
:1037C00092E09F938F93FF93EF930E94197C0FB623
:1037D000F894DEBF0FBECDBF843069F5D8011796CF
:1037E0008C9117978F9316968C9116978F931596A9
:1037F0008C9115978F9314968C9114978F931396A1
:103800008C9113978F9312968C9112978F93119698
:103810008C9111978F938C918F938AEA92E09F936A
:103820008F93BF92CF920E94E97B0FB6F894DEBFD0
:103830000FBECDBF80CF1F921F921F921F921F926B
:103840001F921F921F928AEA92E09F938F93BF92DA
:10385000CF920E94E97B0FB6F894DEBF0FBECDBFBA
:10386000D12C69CF7F928F929F92AF92BF92CF92CD
:10387000DF92EF92FF920F931F93CF93DF93CDB719
:10388000DEB7CF5FD1090FB6F894DEBF0FBECDBF54
:103890008C01F62E0E946507CE0101966C018FEF18
:1038A000D6011D928A95E9F764E170E080E090E02E
:1038B0000E9490746EEA7AE0F801808191810E9402
:1038C0003E704AE050E06F2DD8018D919C910E948E
:1038D0004F716BEA7AE0F801808191810E943E701D
:1038E0000E9431744B015C016AE070E080E090E07E
:1038F0000E949074E12CF12C7F2CF11029C0D8018A
:103900008D919C91DC01ED91FC910284F385E02D79
:1039100019952E2D30E0F601E20FF31F80832C0F56
:103920003D1FF90190819F3421F48B3411F4FF2461
:10393000F39480528F3508F4E3940E94317468192F
:1039400079098A099B09683E734081059105A0F2B7
:10395000872DC150DF4F0FB6F894DEBF0FBECDBF2D
:10396000DF91CF911F910F91FF90EF90DF90CF905B
:10397000BF90AF909F908F907F9008952F923F922D
:103980004F925F926F927F928F929F92AF92BF926F
:10399000CF92DF92EF92FF920F931F93CF93DF931B
:1039A000CDB7DEB7C851D1400FB6F894DEBF0FBE19
:1039B000CDBF7C01862E772ECA5EDE4F4883C6516E
:1039C000D140C95EDE4F5883C751D140C85EDE4F3B
:1039D0002883C851D140632EC050DF4F198218820E
:1039E000C050D140CE5FDE4F19821882C250D14004
:1039F000CC5FDE4F19821882C450D140C05FDE4FC9
:103A000019821882C051D140CE5EDE4F19821882D1
:103A1000C251D140CC5EDE4F19821882C451D140D0
:103A20000E9465079E012F5F3F4F59018FEFD9011B
:103A30001D928A95E9F764E170E080E090E00E94D1
:103A4000907460EA7AE0F701808191810E943E7073
:103A50006DE97AE0D7018D919C910E943E700E94A1
:103A600031741B012C016AE070E080E090E00E945C
:103A70009074912CC12CDC2CC11044C0F7018081C2
:103A80009181DC01ED91FC910284F385E02D199583
:103A9000292D30E0F501E20FF31F80832C0F3D1F2D
:103AA000F90190819F3421F48B3411F4CC24C39418
:103AB00080528F3508F493940E943174621973090F
:103AC000840995096031774281059105A0F28D2D19
:103AD000C85EDE4F0FB6F894DEBF0FBECDBFDF91DC
:103AE000CF911F910F91FF90EF90DF90CF90BF90FB
:103AF000AF909F908F907F906F905F904F903F908E
:103B00002F90089580E091E08C0F9D1F44969F9325
:103B10008F931F930F9380E091E08C0F9D1F409631
:103B20009F938F936F92C85EDE4F2881C851D1401A
:103B30002F93C95EDE4F3881C751D1403F93CA5E93
:103B4000DE4F8881C651D1408F9380E091E08C0F89
:103B50009D1F04969F938F9380E091E08C0F9D1F93
:103B600002969F938F937F928F9286EC92E09F9321
:103B70008F93BF92AF920E94197CF701EE5BFF4FCB
:103B800095E09083DD24D3940FB6F894DEBF0FBE8A
:103B9000CDBF883009F49BCFD12C99CF2F923F9283
:103BA0004F925F926F927F929F92AF92BF92CF920D
:103BB000DF92EF92FF920F931F93CF93DF93CDB7D6
:103BC000DEB7C750D1400FB6F894DEBF0FBECDBFF1
:103BD0005C01CE5FDE4F79836883C250D140CC5FF9
:103BE000DE4F59834883C450D140CA5FDE4F3983CA
:103BF0002883C650D14017010E946507CE01019667
:103C00007C018FEFD7011D928A95E9F764E170E09E
:103C100080E090E00E94907464E97AE0F501808190
:103C200091810E943E7061E97AE0D5018D919C916D
:103C30000E943E700E9431742B013C016AE070E0EA
:103C400080E090E00E949074912CC050DF4F188269
:103C5000C050D140C050DF4FB881C050D140CF5F7D
:103C6000DE4FB883C150D140B1114BC0F501808106
:103C70009181DC01ED91FC910284F385E02D199591
:103C8000292D30E0F701E20FF31F80832C0F3D1F39
:103C9000F90190819F3441F48B3431F4F1E0C0504C
:103CA000DF4FF883C050D14080528F3508F4939491
:103CB0000E9431746419750986099709683E73403A
:103CC0008105910538F2CF5FDE4F8881C150D14028
:103CD000C95FDE4F0FB6F894DEBF0FBECDBFDF91D8
:103CE000CF911F910F91FF90EF90DF90CF90BF90F9
:103CF000AF909F907F906F905F904F903F902F90EC
:103D00000895298520538AE09A859053289F900D25
:103D10001124CE5FDE4FA881B981C250D1409C935F
:103D20002C8520539D859053289F900D1124CC5FA6
:103D3000DE4FE881F981C450D14090832F85205314
:103D400098899053289F900D1124CA5FDE4FA88157
:103D5000B981C650D1409C932A8920539B899053A6
:103D6000289F900D1124F80190832D8920539E895E
:103D70009053289F900D1124D1019C93288D20539E
:103D8000998D9053289F900D1124F60190839BCF1D
:103D90007F928F929F92AF92BF92CF92DF92EF92DB
:103DA000FF920F931F93CF93DF93CDB7DEB7CF5F13
:103DB000D1090FB6F894DEBF0FBECDBF8C01B62E71
:103DC0007A010E946507CE0101966C018FEFD60142
:103DD0001D928A95E9F764E170E080E090E00E942E
:103DE000907468E87AE0F801808191810E943E70C9
:103DF0004AE050E06B2DD8018D919C910E944F714B
:103E000065E87AE0F801808191810E943E70B701F7
:103E1000D8018D919C910E94707063E77AE0F8015F
:103E2000808191810E943E7060E77AE0D8018D9197
:103E30009C910E943E700E9431744B015C016AE0CB
:103E400070E080E090E00E949074E12CF12C7F2CD7
:103E5000F11029C0F80180819181DC01ED91FC9184
:103E60000284F385E02D19952E2D30E0F601E20F46
:103E7000F31F80832C0F3D1FF90190819F3421F4A3
:103E80008B3411F4FF24F39480528F3508F4E394BB
:103E90000E943174681979098A099B09683E734048
:103EA00081059105A0F2872DC150DF4F0FB6F89420
:103EB000DEBF0FBECDBFDF91CF911F910F91FF905D
:103EC000EF90DF90CF90BF90AF909F908F907F90BA
:103ED00008955F926F927F928F929F92AF92BF925E
:103EE000CF92DF92EF92FF920F931F93CF93DF93C6
:103EF000CDB7DEB7CF5FD1090FB6F894DEBF0FBEE6
:103F0000CDBF5C01D62E542E39010E946507CE012B
:103F100001964C018FEFD4011D928A95E9F764E177
:103F200070E080E090E00E94907467E67AE0F5012E
:103F3000808191810E943E704AE050E06D2DD50154
:103F40008D919C910E944F7165E67AE0F501808128
:103F500091810E943E704AE050E0652DD5018D911F
:103F60009C910E944F7163E67AE0F5018081918116
:103F70000E943E704AE050E0B301D5018D919C91C2
:103F80000E94687161E67AE0F501808191810E946A
:103F90003E704AE050E0B801D5018D919C910E949D
:103FA00068716FE57AE0F501808191810E943E7031
:103FB0004AE050E0B701D5018D919C910E94687153
:103FC0006DE57AE0F501808191810E943E704AE0C2
:103FD00050E06C2DD5018D919C910E944F716AE546
:103FE0007AE0F501808191810E943E700E943174D7
:103FF0006B017C016AE070E080E090E00E949074C8
:1040000000E010E0712E111128C0D5018D919C9116
:10401000DC01ED91FC910284F385E02D1995202FB0
:1040200030E0F401E20FF31F80832C0F3D1FF901F4
:1040300090819F3419F48B3409F411E080528F354C
:1040400008F40F5F0E9431746C197D098E099F0975
:10405000683E734081059105A8F2872DC150DF4F5E
:104060000FB6F894DEBF0FBECDBFDF91CF911F9189
:104070000F91FF90EF90DF90CF90BF90AF909F9007
:104080008F907F906F905F9008957F928F929F9214
:10409000AF92BF92CF92DF92EF92FF920F931F9356
:1040A000CF93DF93CDB7DEB7CF5FD1090FB6F894CA
:1040B000DEBF0FBECDBF5C01D62EF42E122F0E94A4
:1040C0006507CE0101964C018FEFD4011D928A95B0
:1040D000E9F764E170E080E090E00E9490746EE4A3
:1040E0007AE0F501808191810E943E704AE050E0C3
:1040F0006D2DD5018D919C910E944F716CE47AE0F9
:10410000F501808191810E943E704AE050E06F2D60
:10411000D5018D919C910E944F716AE47AE0F5017E
:10412000808191810E943E704AE050E0612FD5016C
:104130008D919C910E944F7168E47AE0F501808135
:1041400091810E943E704AE050E0602FD5018D9130
:104150009C910E944F7166E47AE0F5018081918123
:104160000E943E704AE050E06E2DD5018D919C91E9
:104170000E944F7164E47AE0F501808191810E9490
:104180003E704AE050E06C2DD5018D919C910E94CB
:104190004F7161E47AE0F501808191810E943E7067
:1041A0000E9431746B017C016AE070E080E090E075
:1041B0000E94907400E010E0712E111128C0D5010A
:1041C0008D919C91DC01ED91FC910284F385E02DB1
:1041D0001995202F30E0F401E20FF31F80832C0F9C
:1041E0003D1FF90190819F3419F48B3409F411E0DB
:1041F00080528F3508F40F5F0E9431746C197D096D
:104200008E099F09683E734081059105A8F2872DAC
:10421000C150DF4F0FB6F894DEBF0FBECDBFDF91A8
:10422000CF911F910F91FF90EF90DF90CF90BF90B3
:10423000AF909F908F907F9008954F925F926F9272
:104240007F929F92AF92BF92CF92DF92EF92FF92B6
:104250000F931F93CF93DF93CDB7DEB7C550D140F7
:104260000FB6F894DEBF0FBECDBF8C01962E5A015B
:104270000E946507CE0101966C018FEFD6011D9259
:104280008A95E9F764E170E080E090E00E94907424
:104290006AE37AE0F801808191810E943E70D80142
:1042A000ED90FC904AE0692DCE0193950E94FC713F
:1042B000BE017395C7010E946270CE0193950E9462
:1042C0006E7167E37AE0F801808191810E943E700F
:1042D0000E9431742B013C016AE070E080E090E0C4
:1042E0000E949074E12CF12C9F2CF11041C0D80158
:1042F0008D919C91DC01ED91FC910284F385E02D80
:1043000019952E2D30E0F601E20FF31F80832C0F5C
:104310003D1FF90190819F3421F48B3411F4FF2467
:10432000F39480528F3508F4E3940E943174641939
:10433000750986099709683E734081059105A0F2C9
:10434000892DCB5FDE4F0FB6F894DEBF0FBECDBF19
:10435000DF91CF911F910F91FF90EF90DF90CF9061
:10436000BF90AF909F907F906F905F904F90089517
:1043700088858053D5018C93E3CF7F928F929F9253
:10438000AF92BF92CF92DF92EF92FF920F931F9363
:10439000CF93DF93CDB7DEB7CF5FD1090FB6F894D7
:1043A000DEBF0FBECDBF7C01962E142F59010E9497
:1043B0006507CE0101966C018FEFD6011D928A959B
:1043C000E9F764E170E080E090E00E94907460E3BF
:1043D0007AE0F701808191810E943E704AE050E0CE
:1043E000692DD7018D919C910E944F716EE27AE008
:1043F000F701808191810E943E70612F70E04AE058
:1044000050E0D7018D919C910E943B716CE27AE063
:10441000F701808191810E943E704AE050E0B50131
:10442000D7018D919C910E9468716AE27AE0F70150
:10443000808191810E943E704AE050E0602FD70158
:104440008D919C910E944F7167E27AE0F701808123
:1044500091810E943E700E9431744B015C016AE0C0
:1044600070E080E090E00E94907400E010E0712E17
:10447000111128C0D7018D919C91DC01ED91FC9127
:104480000284F385E02D1995202F30E0F601E20F2C
:10449000F31F80832C0F3D1FF90190819F3419F485
:1044A0008B3409F411E080528F3508F40F5F0E94BD
:1044B0003174681979098A099B09683E734081053E
:1044C0009105A8F2872DC150DF4F0FB6F894DEBFDB
:1044D0000FBECDBFDF91CF911F910F91FF90EF9055
:1044E000DF90CF90BF90AF909F908F907F90089576
:1044F0007F928F929F92AF92BF92CF92DF92EF9274
:10450000FF920F931F93CF93DF93CDB7DEB7C550C4
:10451000D1400FB6F894DEBF0FBECDBF8C01B62ED2
:104520000E946507CE0101966C018FEFD6011D92A6
:104530008A95E9F764E170E080E090E00E94907471
:1045400060E27AE0F801808191810E943E70D8019A
:10455000ED90FC904AE06B2DCE0193950E94FC718A
:10456000BE017395C7010E946270CE0193950E94AF
:104570006E716DE17AE0F801808191810E943E7058
:104580000E9431744B015C016AE070E080E090E0D1
:104590000E949074E12CF12C7F2CF11029C0D801DD
:1045A0008D919C91DC01ED91FC910284F385E02DCD
:1045B00019952E2D30E0F601E20FF31F80832C0FAA
:1045C0003D1FF90190819F3421F48B3411F4FF24B5
:1045D000F39480528F3508F4E3940E943174681983
:1045E00079098A099B096838734181059105A0F210
:1045F000872DCB5FDE4F0FB6F894DEBF0FBECDBF69
:10460000DF91CF911F910F91FF90EF90DF90CF90AE
:10461000BF90AF909F908F907F9008952F923F9280
:104620004F925F926F927F928F929F92AF92BF92C2
:10463000CF92DF92EF92FF920F931F93CF93DF936E
:10464000CDB7DEB7C250D1400FB6F894DEBF0FBE73
:10465000CDBF8C01C62ED42E59010E946507CE0114
:1046600001967C018FEFD7011D928A95E9F764E1ED
:1046700070E080E090E00E94907466E17AE0F801DA
:10468000808191810E943E704AE050E06C2DD801FB
:104690008D919C910E944F7164E17AE0F8018081D4
:1046A00091810E943E704AE050E06D2DD8018D91BD
:1046B0009C910E944F7161E17AE0F80180819181C3
:1046C0000E943E700E9431742B013C016AE070E050
:1046D00080E090E00E949074C12CD12CD11045C094
:1046E000D8018D919C91DC01ED91FC910284F385C0
:1046F000E02D19952C2D30E0F701E20FF31F808398
:104700002C0F3D1FF90190819F3421F48B3411F45B
:10471000DD24D39480528F3508F4C3940E94317401
:10472000641975098609970968397A4381059105E5
:10473000A8F2212C822DCE5FDE4F0FB6F894DEBF9B
:104740000FBECDBFDF91CF911F910F91FF90EF90E2
:10475000DF90CF90BF90AF909F908F907F906F90A1
:104760005F904F903F902F9008950E9431742B01DD
:104770003C018FEFD7011D928A95E9F7812C912C8E
:10478000C12C312C2C2CC11034C0F80180819181B6
:10479000DC01ED91FC910284F385E02D1995F70180
:1047A000E90DF11D8083332071F090ED980F9A3060
:1047B00040F4E0E0F1E0EC0FFD1FE80DF11D808317
:1047C00083948A3099F08C3209F43D2C80528F35D5
:1047D00008F493940E943174641975098609970945
:1047E000683A71468105910568F2A3CFCC24C39441
:1047F000EDCFCE0193950E94C67AF5019183808317
:1048000099CF4F925F926F927F928F929F92AF92C9
:10481000BF92CF92DF92EF92FF920F931F93CF93AD
:10482000DF93CDB7DEB7CF5FD1090FB6F894DEBF07
:104830000FBECDBF4C01762ED42E622E502E0E947C
:1048400065078E010F5F1F4F8FEFD8011D928A956C
:10485000E9F764E170E080E090E00E9490746AE023
:104860007AE0F401808191810E943E704AE050E03C
:10487000672DD4018D919C910E944F7168E07AE080
:10488000F401808191810E943E704AE050E06D2DDC
:10489000D4018D919C910E944F7166E07AE0F40101
:1048A000808191810E943E704AE050E0662DD401E3
:1048B0008D919C910E944F7163E07AE0F4018081B8
:1048C00091810E943E70B501D4018D919C910E940E
:1048D000707060E07AE0F401808191810E943E7006
:1048E0004AE050E0652DD4018D919C910E944F715A
:1048F0006EEF79E0F401808191810E943E704AE080
:1049000050E0B701D4018D919C910E9468716CEFC9
:1049100079E0F401808191810E943E706C2D70E0FD
:104920004AE050E0D4018D919C910E943B7169EF67
:1049300079E0F401808191810E943E700E9431747F
:104940002B013C01E12CF12CDF2CF11038C0D401FB
:104950008D919C91DC01ED91FC910284F385E02D19
:1049600019952E2D30E0F801E20FF31F8083FE0130
:10497000E20FF31F90819F3421F48B3411F4FF2454
:10498000F394EFEFFFEFEC0FFD1F2E0F3F1FD90148
:104990002C91233429F49D3419F4853409F4F12C35
:1049A00080528F3508F4E3940E94317464197509BC
:1049B0008609970968397A438105910528F28D2D7A
:1049C000C150DF4F0FB6F894DEBF0FBECDBFDF91F1
:1049D000CF911F910F91FF90EF90DF90CF90BF90FC
:1049E000AF909F908F907F906F905F904F900895C1
:1049F0003F924F925F926F927F928F929F92AF926F
:104A0000BF92CF92DF92EF92FF920F931F93CF93BB
:104A1000DF93CDB7DEB7CF5FD1090FB6F894DEBF15
:104A20000FBECDBF8C01962E7A0159010E946507F9
:104A3000CE0101966C018FEFD6011D928A95E9F7A0
:104A400064E170E080E090E00E94907462EE79E0B2
:104A5000F801808191810E943E704AE050E0692D0A
:104A6000D8018D919C910E944F7160EE79E0F80120
:104A7000808191810E943E704AE050E0B701D801E8
:104A80008D919C910E9468716DED79E0F8018081B3
:104A900091810E943E700E9431742B013C016AE0BA
:104AA00070E080E090E00E949074812C912C392C71
:104AB000E82CF12C992009F1FE013A968AE090E069
:104AC00050E040E020E0E816F90608F441C08F010C
:104AD00031813B3711F0222341F0B501640F751F7E
:104AE000DB013C934F5F5F4F292D3196D8013C91FC
:104AF0003D3709F420E00196E6CFD8018D919C91D5
:104B0000DC01ED91FC910284F385E02D1995F6010D
:104B1000EE0DFF1D8083BEE1B81550F4FE01EE0DD1
:104B2000FF1D90819F3421F48B3411F499249394C8
:104B300081528E3508F483940E943174641975098A
:104B400086099709683873418105910508F4AFCF4C
:104B5000832DC150DF4F0FB6F894DEBF0FBECDBF1F
:104B6000DF91CF911F910F91FF90EF90DF90CF9049
:104B7000BF90AF909F908F907F906F905F904F907D
:104B80003F9008956F927F928F929F92AF92BF92C3
:104B9000CF92DF92EF92FF920F931F93CF93DF9309
:104BA000CDB7DEB7CF5FD1090FB6F894DEBF0FBE29
:104BB000CDBF7C013B014A0159010E946507AE014E
:104BC0004F5F5F4F6A018FEFDA011D928A95E9F717
:104BD00064E170E080E090E00E94907461ED79E023
:104BE000F701808191810E943E706FEC79E0D701DE
:104BF0008D919C910E943E70B301F701808191815B
:104C00000E9470706BEC79E0D7018D919C910E94AD
:104C10003E70B401F701808191810E94707067EC51
:104C200079E0D7018D919C910E943E70B501F7010A
:104C3000808191810E94707064EC79E0D7018D9140
:104C40009C910E943E704AE050E0602FF701808105
:104C500091810E944F7161EC79E0D7018D919C9117
:104C60000E943E700E9431744B015C016AE070E06A
:104C700080E090E00E94907400E010E0712E11112D
:104C800036C0F70180819181DC01ED91FC910284B5
:104C9000F385E02D1995202F30E0F601E20FF31F88
:104CA0008083FE01E20FF31F90819F3419F48B344F
:104CB00009F411E0EFEFFFEFEC0FFD1F2E0F3F1F88
:104CC000D9012C91233421F49D3411F4853479F0E9
:104CD00080528F3508F40F5F0E943174681979098A
:104CE0008A099B09603A76488140910538F2872D00
:104CF000C150DF4F0FB6F894DEBF0FBECDBFDF91BE
:104D0000CF911F910F91FF90EF90DF90CF90BF90C8
:104D1000AF909F908F907F906F9008957F928F9229
:104D20009F92AF92BF92CF92DF92EF92FF920F933A
:104D30001F93CF93DF93CDB7DEB7CF5FD1090FB607
:104D4000F894DEBF0FBECDBF8C010E946507AE0197
:104D50004F5F5F4F6A018FEFDA011D928A95E9F785
:104D600064E170E080E090E00E94907465EB79E08F
:104D7000F801808191810E943E7062EB79E0D80158
:104D80008D919C910E943E700E9431744B015C0198
:104D90006AE070E080E090E00E949074E12CF12CD9
:104DA0007F2CF11037C0F80180819181DC01ED91F9
:104DB000FC910284F385E02D19952E2D30E0F6014B
:104DC000E20FF31F8083FE01E20FF31F90819F34F7
:104DD00021F48B3411F4FF24F394EFEFFFEFEC0F89
:104DE000FD1F2E0F3F1FD9012C91233421F49D3438
:104DF00011F4853479F080528F3508F4E3940E94E1
:104E00003174681979098A099B096032714A8740AF
:104E1000910530F2872DC150DF4F0FB6F894DEBFF9
:104E20000FBECDBFDF91CF911F910F91FF90EF90FB
:104E3000DF90CF90BF90AF909F908F907F9008951C
:104E40007F928F929F92AF92BF92CF92DF92EF921A
:104E5000FF920F931F93CF93DF93CDB7DEB7CF5F52
:104E6000D1090FB6F894DEBF0FBECDBF8C017B0118
:104E70000E946507AE014F5F5F4F6A018FEFDA0155
:104E80001D928A95E9F764E170E080E090E00E946D
:104E9000907468EA79E0F801808191810E943E7007
:104EA0004AE050E0B701D8018D919C910E94687151
:104EB00065EA79E0F801808191810E943E700E944C
:104EC00031744B015C016AE070E080E090E00E9488
:104ED0009074E12CF12C7F2CF11037C0D8018D910A
:104EE0009C91DC01ED91FC910284F385E02D1995F4
:104EF0002E2D30E0F601E20FF31F8083FE01E20F5A
:104F0000F31F90819F3421F48B3411F4FF24F39428
:104F1000EFEFFFEFEC0FFD1F2E0F3F1FD9012C917C
:104F2000233421F49D3411F4853479F080528F3587
:104F300008F4E3940E943174681979098A099B097D
:104F4000683873418105910530F2872DC150DF4FDC
:104F50000FB6F894DEBF0FBECDBFDF91CF911F918A
:104F60000F91FF90EF90DF90CF90BF90AF909F9008
:104F70008F907F9008957F928F929F92AF92BF9271
:104F8000CF92DF92EF92FF920F931F93CF93DF9315
:104F9000CDB7DEB7CF5FD1090FB6F894DEBF0FBE35
:104FA000CDBF8C017B010E946507AE014F5F5F4F53
:104FB0006A018FEFDA011D928A95E9F764E170E0EA
:104FC00080E090E00E9490746AE979E0F8018081C5
:104FD00091810E943E7068E979E0D8018D919C91A1
:104FE0000E943E70B701F801808191810E9470702B
:104FF00066E979E0D8018D919C910E943E7063E949
:1050000079E0F801808191810E943E700E943174A4
:105010004B015C016AE070E080E090E00E949074D7
:10502000E12CF12C7F2CF11037C0D8018D919C918F
:10503000DC01ED91FC910284F385E02D19952E2D74
:1050400030E0F601E20FF31F8083FE01E20FF31F51
:1050500090819F3421F48B3411F4FF24F394EFEF0B
:10506000FFEFEC0FFD1F2E0F3F1FD9012C912334B2
:1050700021F49D3411F4853479F080528F3508F491
:10508000E3940E943174681979098A099B09603296
:10509000714A8740910530F2872DC150DF4F0FB61E
:1050A000F894DEBF0FBECDBFDF91CF911F910F915E
:1050B000FF90EF90DF90CF90BF90AF909F908F9038
:1050C0007F9008957F928F929F92AF92BF92CF92DE
:1050D000DF92EF92FF920F931F93CF93DF93CDB7A1
:1050E000DEB7CF5FD1090FB6F894DEBF0FBECDBFDC
:1050F0008C015B01F42E0E946507AE014F5F5F4F8C
:105100006A018FEFDA011D928A95E9F764E170E098
:1051100080E090E00E94907465E879E0F801808179
:1051200091810E943E7063E879E0D8018D919C9155
:105130000E943E704AE050E0B501F8018081918103
:105140000E9468716EE779E0D8018D919C910E9470
:105150003E706BE779E0F801808191810E943E709A
:105160004AE050E06F2DD8018D919C910E944F71C3
:1051700068E779E0F801808191810E943E700E9489
:1051800031744B015C016AE070E080E090E00E94C5
:105190009074E12CF12C7F2CF11037C0D8018D9147
:1051A0009C91DC01ED91FC910284F385E02D199531
:1051B0002E2D30E0F601E20FF31F8083FE01E20F97
:1051C000F31F90819F3421F48B3411F4FF24F39466
:1051D000EFEFFFEFEC0FFD1F2E0F3F1FD9012C91BA
:1051E000233421F49D3411F4853479F080528F35C5
:1051F00008F4E3940E943174681979098A099B09BB
:105200006032714A8740910530F2872DC150DF4FDF
:105210000FB6F894DEBF0FBECDBFDF91CF911F91C7
:105220000F91FF90EF90DF90CF90BF90AF909F9045
:105230008F907F9008953F924F925F926F927F92EE
:105240008F929F92AF92BF92CF92DF92EF92FF9296
:105250000F931F93CF93DF93CDB7DEB7CF5FD10905
:105260000FB6F894DEBF0FBECDBF7C018B015A0193
:105270000E946507CE0101964C018FEFD4011D926B
:105280008A95E9F764E170E080E090E00E94907414
:105290006CE679E0F701808191810E943E704AE0DE
:1052A00050E0B801D7018D919C910E94687169E628
:1052B00079E0F701808191810E943E700E943174F3
:1052C0002B013C016AE070E080E090E00E94907465
:1052D000312CD12CCD2C032D10E0DD2011F1FE015D
:1052E000339620E08AE090E030E08017910708F0E4
:1052F00043C041914D3019F440814A3011F03323BD
:1053000031F03181D501A20FB11D3C933D2D468175
:105310004F3419F447814B3479F131112F5F0196E5
:10532000E4CFD7018D919C91DC01ED91FC91028439
:10533000F385E02D1995F401E00FF11F8083B1E0B2
:10534000B31550F4FE01E00FF11F90819F3421F45A
:105350008B3411F4DD24D39481528E3508F43394C8
:105360000E94317464197509860997096032714A7F
:105370008740910508F4AECF8C2DC150DF4F0FB69A
:10538000F894DEBF0FBECDBFDF91CF911F910F917B
:10539000FF90EF90DF90CF90BF90AF909F908F9055
:1053A0007F906F905F904F903F9008957F928F9283
:1053B0009F92AF92BF92CF92DF92EF92FF920F93A4
:1053C0001F93CF93DF93CDB7DEB7CF5FD1090FB671
:1053D000F894DEBF0FBECDBF8C01F62E0E9465078C
:1053E000AE014F5F5F4F6A018FEFDA011D928A9520
:1053F000E9F764E170E080E090E00E9490746DE570
:1054000079E0F801808191810E943E704AE050E08D
:105410006F2DD8018D919C910E944F716AE579E0C2
:10542000F801808191810E943E700E9431744B018D
:105430005C016AE070E080E090E00E949074E12CF2
:10544000F12C7F2CF11037C0D8018D919C91DC019B
:10545000ED91FC910284F385E02D19952E2D30E01D
:10546000F601E20FF31F8083FE01E20FF31F90812C
:105470009F3421F48B3411F4FF24F394EFEFFFEF0A
:10548000EC0FFD1F2E0F3F1FD9012C91233421F467
:105490009D3411F4853479F080528F3508F4E3940B
:1054A0000E943174681979098A099B096032714A2E
:1054B0008740910530F2872DC150DF4F0FB6F89429
:1054C000DEBF0FBECDBFDF91CF911F910F91FF9037
:1054D000EF90DF90CF90BF90AF909F908F907F9094
:1054E00008953F924F925F926F927F928F929F9218
:1054F000AF92BF92CF92DF92EF92FF920F931F93E2
:10550000CF93DF93CDB7DEB7C750D1400FB6F89435
:10551000DEBF0FBECDBF8C017B015A010E94650723
:10552000AE014F5F5F4F6A018FEFDA011D928A95DE
:10553000E9F764E170E080E090E00E9490746DE42F
:1055400079E0F801808191810E943E706BE479E0FE
:10555000D8018D919C910E943E704AE050E0B701C5
:10556000F801808191810E94687166E479E0D80138
:105570008D919C910E943E7064E479E0F8018081F5
:1055800091810E943E7061E479E0D8018D919C91F7
:105590000E943E700E9431742B013C016AE070E071
:1055A00080E090E00E949074912CE12CF12C812CF1
:1055B0003F2CF11064C0F80180819181DC01ED91F4
:1055C000FC910284F385E02D19952E2D30E0F60133
:1055D000E20FF31F8083882061F090ED980F9A30DE
:1055E00040F4E0E0F1E0EC0FFD1FE90DF11D8083D8
:1055F0009394FE01E20FF31F90819F3421F48B34CA
:1056000011F4FF24F394EFEFFFEFEC0FFD1F2E0FCB
:105610003F1FD9012C91233421F49D3411F485349A
:10562000A1F08A3311F48824839480528F3508F4D2
:10563000E3940E94317464197509860997096032F0
:10564000714A8740910508F4B3CF832DC95FDE4FBF
:105650000FB6F894DEBF0FBECDBFDF91CF911F9183
:105660000F91FF90EF90DF90CF90BF90AF909F9001
:105670008F907F906F905F904F903F900895CE01F4
:1056800093950E94E47AF50160837183828393830A
:10569000DCCF7F928F929F92AF92BF92CF92DF9298
:1056A000EF92FF920F931F93CF93DF93CDB7DEB7A7
:1056B000CF5FD1090FB6F894DEBF0FBECDBF7C011E
:1056C0008E010F5F1F4F8FEFD8011D928A95E9F76A
:1056D0000E9431744B015C01C12CD12C7D2CD11066
:1056E00059C0F70180819181DC01ED91FC91028428
:1056F000F385E02D19952C2D30E0F801E20FF31F12
:105700008083EAEFFFEFEC0FFD1FE20FF31F9081A4
:10571000933581F5EBEFFFEFEC0FFD1FE20FF31F69
:105720009081923539F5ECEFFFEFEC0FFD1FE20FA2
:10573000F31F90819934F1F4EDEFFFEFEC0FFD1FB3
:10574000E20FF31F90819E34A9F4EEEFFFEFEC0F10
:10575000FD1FE20FF31F9081973461F4EFEFFFEF2D
:10576000EC0FFD1F2E0F3F1FD9019C919A3311F4AE
:10577000DD24D39480528F3508F4C3940E94317491
:10578000681979098A099B0968397A438105910565
:1057900008F4A4CF872DC150DF4F0FB6F894DEBFB9
:1057A0000FBECDBFDF91CF911F910F91FF90EF9072
:1057B000DF90CF90BF90AF909F908F907F90089593
:1057C000AF92BF92CF92DF92EF92FF920F931F930F
:1057D000CF93DF9300D000D0CDB7DEB76C01590175
:1057E000613009F04EC0FC01808191816FE279E067
:1057F000483C5105B1F067E179E04A3C510589F038
:105800006CEF78E04039F1E05F0759F06AED78E03D
:10581000453921E0520729F04639514021F46CEB1B
:1058200078E00E943E7068EA78E0F601808191811C
:105830000E943E7067E878E0F601808191810E94C5
:105840003E706BE678E0F601808191810E943E70A7
:1058500068E678E0F601808191810E943E7081E0E7
:1058600026960FB6F894DEBF0FBECDBFDF91CF9165
:105870001F910F91FF90EF90DF90CF90BF90AF906E
:10588000089580E0623061F762E678E0F601808199
:1058900091810E943E70B801F601808191810E9441
:1058A000707066E578E0F601808191810E943E701B
:1058B0006FE478E0F601808191810E943E70B5012D
:1058C000F601808191810E9470706CE478E0F601AD
:1058D000808191810E943E706BE378E0F6018081C7
:1058E00091810E943E70F60100811181B701CE01C5
:1058F00001960E94DD716D817E814AE050E0C80111
:105900000E946871CE0101960E946E7168E378E092
:10591000F601808191810E943E7064E278E0F60198
:10592000808191810E943E7063E078E0F601808181
:1059300091810E943E7067EE77E0F601808191814F
:105940000E943E7064EE77E085CF2F923F924F9297
:105950005F926F927F928F929F92AF92BF92CF92FF
:10596000DF92EF92FF920F931F93CF93DF93CDB708
:10597000DEB7C250D1400FB6F894DEBF0FBECDBF28
:105980005C01762EC050DF4F4883C050D140CF5FBE
:10599000DE4F39832883C150D140180187010E940E
:1059A0006507CE0101964C018FEFD4011D928A95B7
:1059B000E9F764E170E080E090E00E9490746FEE9F
:1059C00079E0F501808191810E943E704AE050E0CB
:1059D000672DD5018D919C910E944F716CEE79E0FD
:1059E000F501808191810E943E700E9431742B01EB
:1059F0003C016AE070E080E090E00E949074F12C3D
:105A0000E12CE11044C0D5018D919C91DC01ED9118
:105A1000FC910284F385E02D19952F2D30E0F401DF
:105A2000E20FF31F80832C0F3D1FF90190819E33FD
:105A300021F4803211F4EE24E39480528F3508F47F
:105A4000F3940E9431746419750986099709603DC1
:105A5000774081059105A8F280E0CE5FDE4F0FB65A
:105A6000F894DEBF0FBECDBFDF91CF911F910F9194
:105A7000FF90EF90DF90CF90BF90AF909F908F906E
:105A80007F906F905F904F903F902F9008956AE0C5
:105A900070E080E090E00E94907476019101CF5F09
:105AA000DE4F48815981C150D140C050DF4F6881DD
:105AB000C050D140C5010E94E02BB601D5018D91A7
:105AC0009C910E9470706AE1F501808191810E9431
:105AD00078708FEFD4011D928A95E9F70E94317496
