:100000000C9435070C9466070C9466070C946607ED
:100010000C9466070C9466070C9466070C946607AC
:100020000C9466070C9466070C94F8590C946607B8
:100030000C9466070C9466070C9466070C9466078C
:100040000C9466070C9466070C9466070C9466077C
:100050000C9466070C9466070C9466070C94F3588E
:100060000C9466070C94C3590C9499590C94660728
:100070000C9466070C9466070C9466070C9466074C
:100080000C9466070C9466070C9466070C9466073C
:100090000C9466070C9466070C9466070C9466072C
:1000A0000C9466070C9466070C9466070C9466071C
:1000B0000C9466070C9466070C9466070C942E5AF1
:1000C0000C9466070C9466070C9466070C946607FC
:1000D0000C9466070C9466070C9464590C943A5976
:1000E0000C94660708000000BE922449123EABAA99
:1000F000AA2ABECDCCCC4C3E00000080BEABAAAA42
:10010000AA3E00000000BF000000803F0000000089
:1001100000084178D3BB4387D1133D190E3CC3BDC2
:100120004282AD2B3E68EC8276BED98FE1A93E4C6F
:1001300080EFFFBE01C4FF7F3F00000000000C9471
:10014000BC070C9423130C940E080C94E6120C9428
:10015000B7070C94EA070C94E0070C9426090C945A
:10016000DD120C94DE120C94A3560C947C120C94A9
:1001700017090C9439090C94E6070C9458320C9426
:1001800006080C948F5A0C9462140C94F4070C9487
:10019000F8070C94DC070C94FC070C94EE070C9405
:1001A000D86B0C9483090C9402080C94D2070C941D
:1001B00089410C94B0310C9406130C94EA080C9409
:1001C00058140C940A080C94D6070C9486140C94BA
:1001D000B6410C9447090C94CE070C94CA09636489
:1001E000696E6F70737578585B0048003B001B5B4D
:1001F000001B5B000D0A00557365722D4167656E2B
:10020000743A205354462D506F776572537461745D
:100210000D0A00436F6E74656E742D547970653AE3
:10022000206170706C69636174696F6E2F6A736F9F
:100230006E0D0A00436F6E6E656374696F6E3A20CF
:10024000636C6F73650D0A00485454502F312E3182
:1002500020323030204F4B0D0A000D0A004154234C
:100260005353454E443D00526573706F6E73652065
:1002700053656E646564202000526573706F6E7301
:100280006500CDCCCC3D0AD7233C17B7D13877CC0D
:100290002B329595E6241FB14F0A0000803FCDCC4C
:1002A000CC3D6F12833A95BFD6337D1D9026B3CED9
:1002B000010C000020410000C84200401C4620BC48
:1002C000BE4CCA1B0E5AAEC59D747C3C3E5E2B3D97
:1002D0003F2F5B5D3B2C2A225C001B5B324A001BDC
:1002E0005B3F32356C0049434349440053657269B2
:1002F000616C20494400494D4549004669726D775B
:10030000617265004D6F64656C004D616E7566616C
:100310006374757265720053656300446F776E6C29
:100320006F61642054696D65002500446F776E6CC1
:100330006F61642050657263656E7400534420469B
:10034000696C652053697A65004654502046696C93
:10035000652053697A6500446F776E6C6F61642025
:100360005374617475730046696C65204944004399
:10037000656C6C204944004C414300495020416465
:1003800064726573730047534D204F7065726174DA
:100390006F72005369676E616C204C6576656C0006
:1003A00047534D20436F6E6E656374696F6E2054C2
:1003B000696D65004669726D77617265203A20004B
:1003C00055702054696D65203A2000506F73744F4A
:1003D000666669636520546573742050726F636547
:1003E00064757265000D0A0041542B43434C4B3F2A
:1003F000000D0A0041542349434D503D000D0A00B1
:100400002C0041542353474143543D000D0A002C16
:1004100000222C00222C2200222C22002C2200411F
:10042000542B434744434F4E543D000D0A00415462
:100430002B43475245473F000D0A0041542B434789
:10048000495A495000202E2E200041542349434D03
:10049000503D3100202E2E20004154234652574C0F
:1004A0003D312C2A2A2A00202E2E2000415423469A
:1004B00052574C3D312C2A2A2A00202E2E20004152
:1004C00054234652574C3D312C2A2A2A00202E2EE6
:1004D0002000415423534346474558543D322C3164
:1004E0002C302C312C302C3000202E2E200041546A
:1004F00023534346473D322C312C313530302C3993
:10050000302C3330302C353000202E2E200041543A
:1005100023534346474558543D332C312C302C311E
:100520002C302C3000202E2E2000415423534346E3
:10053000473D332C312C313530302C39302C333091
:10054000302C353000202E2E2000415423534741BB
:1005500043543D312C3100202E2E200041542B2BB2
:10056000434744434F4E543D312C2A2A2C2A2A2CEF
:100570002A2A2C302C30002020202000202E2E2053
:100580000041542B43475245473F00202E2E200068
:1005900041542B43475245473D30005B434545524C
:1005A0003A2020205D002020202000202E2E200038
:1005B00041542B435245473F00202E2E20004154EA
:1005C0002B435245473D3000436C6F7564204F6E9E
:1005D0006C696E65004E6F2047534D20436F6E6E01
:1005E000656374696F6E0007000D0A002C004154AA
:1005F0002353413D002020202020202020202020A7
:100600002020202020200052696E672020202020FA
:1006100020202020202020200000000B0C030A0DA9
:100620000E0F090804050200000000000000000091
:1006300000000000000000000000000000000000BA
:100640000000000000131211000000000000000074
:10065000000000000000000000000000000000009A
:100660000000000000000000000000000000000D7D
:100670000A00415423465450434C4F5345000D0A41
:1006800000415423465450524543563D000D0A0044
:1006B000780022004154234654504653495A453D40
:1006C000000D0A0022002200415423465450435793
:1006D000443D000D0A00415423465450545950459E
:1006E0003D000D0A00222C00222C2200222C220088
:1006F00022004154234654504F50454E3D000D0AB0
:1007000000415423465450544F3D0053442043610C
:100710006E204E6F74204F70656E0046696C6520C8
:100720004E6F74204F70656E65640020202020207D
:1007300020202020202020202020202020202020B9
:100740002020202020202020202000534420436C03
:100750006F7365640020202020202020202020208E
:100760002020202020202020202020202020202089
:1007700020202020005344204F70656E65640020C7
:100780002020202020202020202020202020202069
:100790002020202020202020202020202020004653
:1007A000696C6520457869737420616E64204465C6
:1007B0006C657465642E00202020202020202020DD
:1007C0002020202020202020202020202020202029
:1007D0002020202020200000002200250028002BBF
:1007E000002E003100340002010000050108010B59
:1007F0000100002100240027002A002D00300033D2
:100800000001010000040107010A010505050507B3
:100810000508080808020202020A0A08080404047B
:1008200004010101010101010103030303030303A7
:1008300003040707070C0C0C0C0C0C0C0C02020236
:100840000206060606060606060B0B0B0B0B0B0B29
:100850000B050505080807070404040A0A0A0A0A22
:100860000A010210202008081020401020408002B9
:1008700001020108040201010204081020408080E6
:10088000402010080402018004020180402010086A
:100890000402010804020101020408102040800142
:1008A00002040810204080044080048008101020BA
:1008B000400408102040804E6F20436F6E6E6563C9
:1008C00074696F6E2020202020202000202020200E
:1008D0002020202020202020202020202020202018
:1008E00000446F776E6C6F616454696D65005344AA
:1008F0005F53697A65004654505F53697A650053C7
:1009000074617475730046696C655F4944004661A3
:10091000756C7400446576696365004661756C7436
:1009200000446576696365004661756C74004465D2
:10093000766963650054696D655374616D7000502C
:1009400061796C6F61640043656C6C5F4944004C75
:1009500041430064426D00436F6465004F706572EF
:1009600061746F720049434349440053494D5F54D9
:100970007970650053494D00494D454900536572F2
:1009800069616C004669726D77617265004D6F64D4
:10099000656C004D616E7566616374757265720099
:1009A0004D6F64756C650047534D004942004642E7
:1009B00000540043686172676500534F4300414330
:1009C0000049560048756D69646974790054656D15
:1009D0007065726174757265004669726D776172D7
:1009E000650030302E30302E30310048617264772F
:1009F0006172650030302E30302E303000494400B6
:100A0000496E666F0044657669636500436F6D6D7E
:100A1000616E6400556E4B6E6F776E002E003A006B
:100A2000436F6D6D616E6400464F54415F446F7754
:100A30006E6C6F6164002E003A00436F6D6D616EE5
:100A40006400496E74657272757074002E003A000D
:100A5000436F6D6D616E640054696D6564002E00B6
:100A60003A00436F6D6D616E64004F6E6C696E6528
:100A7000002E003A000D0A002C002C00222C002C25
:100A800022002C002C0041542353443D0020202000
:100A90002020202020202020202020202020202056
:100AA0002000526573706F6E7365202D2D3E205BA4
:100AB0002020205D005061636B2053656E64656487
:100AC0002E2E2E202020202020002020202020201C
:100AD0002020202020202020202020202020000D49
:100AE0000A000D0A00557365722D4167656E743AF0
:100AF0002000436F6E74656E742D547970653A20D2
:100B00006170706C69636174696F6E2F6A736F6E68
:100B10000D0A000D0A00436F6E74656E742D4C65EE
:100B20006E6774683A20000D0A00486F73743A20AB
:100B30000020485454502F312E310D0A00504F538D
:100B40005420000D0A004154235353454E443D3375
:100B50000053656E64696E67205061636B2E2E2EA4
:100B600020202020200020202020202020202020A5
:100B700020202020202020202020004A534F4E20DB
:100B80005061636B20202020202020202020200086
:100B90002020202020202020202020202020202055
:100BA00020202020000D0A002C002C002C00415495
:100BB00023534C3D000D0A004154234532534C52FF
:100BC000493D000D0A00415423534C4544534156BE
:100BD000000D0A00415423534C45443D000D0A00CA
:100BE00041542B474D52000D0A0041542B474D4DA7
:100BF000000D0A0041542B474D49000D0A00415495
:100C00002343434944000D0A0041542B47534E00EF
:100C10000D0A0041542B4347534E000D0A00415426
:100C20002B4350494E3F000D0A004154264B000D06
:100C30000A0041542B46434C4153533D000D0A00DA
:100C400041542B434D45453D000D0A00415445009C
:100C50000D0A0041542B4346554E3D000D0A0041FC
:100C600054235345415243484C494D3D3130302C7B
:100C7000313030000D0A00415400202E2E2000415A
:100C800054234532534C52493D353000202E2E20FE
:100C900000415423534C454453415600202E2E20EE
:100CA00000415423534C45443D3200202E2E200059
:100CB00041542B474D5200202E2E200041542B47EB
:100CC0004D4D00202E2E200041542B474D49002031
:100CD0002E2E200041542B4343494400202E2E2029
:100CE0000041542B47534E00202E2E200041542B00
:100CF0004347534E0050554B3F20200050494E3F34
:100D0000202000524541445920004E4F2053494D68
:100D100000202E2E20005B2020202020205D00417E
:100D2000542B4350494E3F00202E2E200041542684
:100D30004B3000202E2E200041542B46434C415373
:100D4000533D3000202E2E200041542B434D45456D
:100D50003D3100202E2E20004154453000202E2E03
:100D6000200041542B4346554E3D312C3000202E5F
:100D70002E20004154235345415243484C494D3D98
:100D80003130302C31303000202E2E2000415400E4
:100D90000D0A002C0041542353524543563D000D8B
:100DA0000A0041542353483D000D0A004154235387
:100DB000533D000D0A002C002C002C002C002C00B0
:100DC000415423534346474558543D000D0A002CD7
:100DD000002C002C002C002C004154235343464788
:100DE0003D000D0A00222C223235352E3235352EAB
:100DF0003235352E3022002C2200415423465257E2
:100E00004C3D000D0A004154234D4F4E495A495064
:100E1000002000E2969200204F4B20004641494CB2
:100E200000E2948000E294A400E2949C00E29480AA
:100E300000E294A400E2949C005B205D00E29480B8
:100E400000E2948000E2948200E2948200E29498AE
:100E500000E2949000E2949400E2948C001B5B000A
:100E60005D005B002E008F5AD86B11241FBECFEFA0
:100E7000D1E2DEBFCDBF00E00CBF14E0A0E0B2E0E5
:100E8000E0E4F0EF00E00BBF02C007900D92A23B40
:100E9000B107D9F72AE0A2EBB4E001C01D92AD3E44
:100EA000B207E1F717E0C4E3D7E000E006C02197FE
:100EB0000109802FFE010E940F71C333D10780E02A
:100EC0000807A9F70E94775B0C940E780C94000039
:100ED00090E0FC01EF59F74F2491855F974FFC019B
:100EE0008491882399F090E0880F991FFC01EF50BE
:100EF000F84FA591B491FC01E952F84F8591949176
:100F00008FB7F894EC91E22BEC938FBF0895282FC4
:100F100030E0F901E75EF94F9491F901EF59F74F8D
:100F20004491255F374FF9012491222309F435C0FC
:100F3000992311F192509231F8F4E92FF0E08827CB
:100F4000EB55F84F8F4F0C940F710A080E08B70736
:100F5000CE07D207BC07D607DC07E007E607EA079B
:100F6000EE07F407F807BC07FC07020806088091A3
:100F700080008F7780938000E22FF0E0EE0FFF1F5C
:100F8000E952F84FA591B4918FB7F894EC916111A3
:100F900048C040954E234C938FBF089580918000A8
:100FA0008F7DE8CF80918000877FE4CF8091B00073
:100FB0008F778093B000E0CF8091B0008F7DF9CF24
:100FC000809190008F7780939000D6CF8091900091
:100FD0008F7DF9CF80919000877FF5CF8091A00021
:100FE0008F778093A000C8CF8091A0008F7DF9CF2C
:100FF0008091A000877FF5CF809120018F7780932B
:101000002001BACF809120018F7DF9CF80912001FE
:10101000877FF5CF84B58F7784BDAECF84B58F7DC4
:10102000FBCF4E2BB8CF00009C01220F331FAEEE3A
:10103000BBEE0E94EC700D970197F1F70895CF92E7
:10104000DF92EF92FF926FB7F8948091C304909172
:10105000C404A091C504B091C6045091C20426B541
:1010600035B3432F417030FF04C041E02F3F09F4F6
:1010700040E06FBF6C017D0137E0CC0CDD1CEE1C45
:10108000FF1C3A95D1F7C50ED11CE11CF11CC81A02
:10109000D90AEA0AFB0A880F991FAA1FBB1FC81AA0
:1010A000D90AEA0AFB0A63E0CC0CDD1CEE1CFF1C2B
:1010B0006A95D1F730E0AEEAB8E00E94EC70672F95
:1010C000782F892F99276C0D7D1D8E1D9F1D442320
:1010D00021F06255774F8F4F9F4FFF90EF90DF9039
:1010E000CF9008958F929F92AF92BF92CF92DF924E
:1010F000EF92FF926B017C010E941F084B015C0183
:10110000C114D104E104F104B9F00E941F08681968
:1011100079098A099B09683E73408105910580F32E
:1011200021E0C21AD108E108F10888EE880E83E0B8
:10113000981EA11CB11CE4CFFF90EF90DF90CF90E0
:10114000BF90AF909F908F9008952FB7F8946091C3
:10115000C3047091C4048091C5049091C6042FBF4C
:101160000895DC01ED91FC910190F081E02D19943E
:10117000DB0114964D915C9115976D917C91DC018A
:10118000ED91FC910280F381E02D1994EF92FF9292
:101190000F931F93CF93DF938C017B01D0E0C0E0CE
:1011A000F701EC0FFD1F6491662361F0D801ED910A
:1011B000FC910190F081E02DC8011995892B11F067
:1011C0002196EECFCE01DF91CF911F910F91FF902D
:1011D000EF900895AF92BF92CF92DF92EF92FF927D
:1011E0000F931F93CF93DF936C017B018B01040F4F
:1011F000151FEB015E01AE18BF08C017D10759F0EB
:101200006991D601ED91FC910190F081E02DC6012C
:101210001995892B79F7C501DF91CF911F910F9116
:10122000FF90EF90DF90CF90BF90AF900895FC01BA
:10123000538D448D252F30E0842F90E0821B930B3B
:10124000541710F0CF96089501970895FC01918DE1
:10125000828D981759F0A28DAE0FBF2FB11D5D96EC
:101260008C91928D9F5F928F90E008958FEF9FEF0A
:101270000895FC01918D828D981731F0828DE80FD1
:10128000F11D858D90E008958FEF9FEF0895FC018B
:10129000918D828D981B892F90E0089580E897E0CA
:1012A0000E94470921E0892B09F420E0822F08954C
:1012B0008AE899E00E94470921E0892B09F420E09F
:1012C000822F0895FC01A48DA80FB92FB11DA35E34
:1012D000BE4F2C91848D90E001968F739927848F57
:1012E000A689B7892C93A089B1898C9180648C934D
:1012F000938D848D981306C00288F389E02D808138
:101300008F7D80830895EF92FF920F931F93CF9369
:10131000DF93EC0181E0888F9B8D8C8D981316C034
:10132000E889F989808185FF11C0EE89FF89608392
:10133000E889F98980818064808381E090E0DF9191
:10134000CF911F910F91FF90EF900895F62E0B8D86
:1013500010E00F5F1F4F0F731127E02E8C8D8E1141
:101360000CC00FB607FCFACFE889F989808185FFA8
:10137000F5CFCE010E946209F1CFEB8DEC0FFD2F6E
:10138000F11DE35EFE4FF0820B8FEA89FB898081BD
:101390008062D2CFCF93DF93EC01888D8823B9F0A0
:1013A000AA89BB89E889F9898C9185FD03C0808170
:1013B00086FD0DC00FB607FCF7CF8C9185FFF2CFED
:1013C000808185FFEDCFCE010E946209E9CFDF91D8
:1013D000CF91089580E090E0892B29F00E94580970
:1013E00081110E94000080E090E0892B49F080E0AC
:1013F00090E0892B29F00E94000081110E940000DA
:1014000080E090E0892B49F080E090E0892B29F082
:101410000E94000081110E94000080E090E0892B72
:1014200029F00E944E0981110C94000008958FB795
:10143000F8948091B3048FBF089561E0FC0184812A
:101440000E9487078091B20481111092B20408951E
:101450008EBD00000DB407FEFDCF8EB508958FEF51
:101460000C94280A0F931F93CF93DF93EC010E94F3
:10147000A5088B010E942F0A8F3F69F00E94A508E2
:10148000601B710B6C177D07A8F380E0DF91CF9193
:101490001F910F91089581E0F9CF8CBD9DBD0895F6
:1014A000CF93DF93EC018091B204811109C081E0F8
:1014B0008093B2048091CA069091CB060E944D0A97
:1014C00060E08C81DF91CF910C9487078F929F927F
:1014D000AF92BF92FF920F931F93CF93DF93EC01D4
:1014E000F62E49015A018E81882389F08F819885D3
:1014F0009C012F5F3F4F38872F838230924018F432
:101500000E942F0AF3CFCE010E941D0A1E82CE0137
:101510000E94500A8CE291E00E94320A8F2D806472
:101520000E94280A08E110E0D501C401002E04C081
:10153000B695A795979587950A94D2F70E94280AA1
:1015400008501109083F8FEF180771F785E9FF2050
:1015500021F028E087E8F2128FEF0E94280A10E0BD
:101560000E942F0A8A8787FF04C01F3F11F01F5F68
:10157000F7CFDF91CF911F910F91FF90BF90AF9068
:101580009F908F900895AF92BF92CF92DF92EF928B
:10159000FF920F931F93CF93DF93EC016901C80172
:1015A000820F931F8130924050F58E81882379F00D
:1015B00088819981AA81BB8184179507A607B707FF
:1015C00031F48F819885C816D90608F042C0488347
:1015D00059836A837B838B85833039F089E0440F9C
:1015E000551F661F771F8A95D1F79A01AB0161E1FC
:1015F000CE010E94660A882389F083E08D83CE01A4
:101600000E941D0A80E0DF91CF911F910F91FF9002
:10161000EF90DF90CF90BF90AF9008950E94A50803
:101620005B010E942F0A8A878F3F69F40E94A508F8
:101630006A197B096D327140A0F38FE08D83CE0172
:101640000E941D0ADCCF8E3F89F418861F8281E03C
:101650008E838F8198858C159D0550F40E942F0AEA
:101660008F819885019698878F83F3CF8DE0E6CFA1
:101670006701E00EF11E0E942F0AF60181936F01AF
:10168000EE15FF05C1F78F819885080F191F188780
:101690000F838985882319F001151240A0F08E81EF
:1016A000882389F08F8198859C012F5F3F4F388771
:1016B0002F838230924018F40E942F0AF3CFCE017C
:1016C0000E941D0A1E8281E09ECFEF92FF920F932F
:1016D0001F93CF93DF93EC01790182E1411551050E
:1016E0006105710599F08B85833039F089E0440FED
:1016F000551F661F771F8A95D1F79A01AB0168E1E4
:10170000CE010E94660A882319F084E08D8330C0E0
:101710008EEF0E94280A87018EEFF81AF801819156
:101720008F010E94280A0E151F05C1F78FEF0E9436
:10173000280A8FEF0E94280A0E942F0A8A878F7139
:10174000853089F488E592E00E94320A8823A9F066
:1017500020E030E0A9016DE0CE010E94660A8823F6
:1017600071F084E1D3CF81E18D83CE010E941D0A07
:10177000CE010E941D0A80E00AC085E1C7CF0E9409
:101780002F0A8111EECFCE010E941D0A81E0DF9168
:10179000CF911F910F91FF90EF900895CF93DF931A
:1017A0008091B4048823A9F1C091C804D091C904E0
:1017B0004091000250910102609102027091030277
:1017C0002AEC34E0CE010E94650B811104C080E058
:1017D000DF91CF9108954091B5045091B604609186
:1017E000B7047091B804411551056105710579F090
:1017F0002AEC34E0CE010E94650B882341F310925D
:10180000B5041092B6041092B7041092B804109266
:10181000B40481E0DDCF8F929F92AF92BF92EF929E
:10182000FF920F931F93CF934B015C01C42F8091C4
:10183000000290910102A0910202B091030288156A
:101840009905AA05BB0549F10E94CE0B81110BC079
:1018500080E0CF911F910F91FF90EF90BF90AF90DC
:101860009F908F9008958AECE82E84E0F82E00E097
:1018700012E030E020E0B501A4018091C80490910D
:10188000C9040E94C30A882319F38092000290922F
:101890000102A0920202B09203024091B4044C2BC8
:1018A0004093B40481E0D5CFCF93DF93EC016E85F4
:1018B0007F858889998941E00E940B0C882351F02B
:1018C0008A8920E2829FC001112486539B4FDF91B9
:1018D000CF91089590E080E0FACF8F929F92AF92DF
:1018E000BF92CF92DF92EF92FF92CF932CEC36E033
:1018F0003093C9042093C804882309F46DC040E0E4
:1019000060E070E0CB010E940B0C81110BC080E005
:10191000CF91FF90EF90DF90CF90BF90AF909F90CE
:101920008F900895809188068F7789F7809194062B
:1019300090919506A0919606B091970684369105F0
:10194000A105B10520F3C0909006D0909106E090DB
:101950009206F0909306C114D104E104F104B9F2A7
:1019600040E0C701B6010E940B0C882381F28091F0
:10197000D5049091D6048115924049F6A091DA04DD
:10198000AA2329F26091D8047091D90461157105D8
:1019900009F4BDCF2091D704222309F4B8CFA09336
:1019A000EA062093DC0690E080E030E0E1E0F0E041
:1019B000C82FAF01082E02C0440F551F0A94E2F74A
:1019C0002417350769F041E0480F019689309105E9
:1019D00079F74093E5069BCFC12CD12C7601C0CF7F
:1019E0008093E5062091E0043091E10450E040E06E
:1019F0002115310541F42091EE043091EF0440911E
:101A0000F0045091F1042093DD063093DE064093FC
:101A1000DF065093E00646015701860E971EA11C73
:101A2000B11C8092EB069092EC06A092ED06B0926B
:101A3000EE06E091DB04F091DC04F093F106E09314
:101A4000F006B0E00E94BF70DC01CB01880D991D4B
:101A5000AA1DBB1D8093F2069093F306A093F40693
:101A6000B093F50625E0EE0FFF1F2A95E1F7E15050
:101A7000FE4FEF2FFF27E6958E0F9F1FA11DB11D73
:101A80008093E6069093E706A093E806B093E906F4
:101A90008090DD049090DE04B12CA12C811491047F
:101AA00041F48090EA049090EB04A090EC04B09094
:101AB000ED04C81AD90AEA0AFB0AC80CD91CEA1CA8
:101AC000FB1C04C0F694E794D794C794CA95D2F748
:101AD000C092E106D092E206E092E306F092E406BC
:101AE00085EFC8168FE0D806E104F10428F48CE0F5
:101AF0008093EF0681E00CCF80E125EFC2162FEF37
:101B0000D206E104F104A0F38091F6049091F70469
:101B1000A091F804B091F9048093F2069093F30633
:101B2000A093F406B093F50680E2E2CF4F925F9265
:101B30006F927F928F929F92AF92BF92CF92DF92DD
:101B4000EF92FF920F931F93CF93DF93EC014230FC
:101B500051056105710590F480E0DF91CF911F91EF
:101B60000F91FF90EF90DF90CF90BF90AF909F903C
:101B70008F907F906F905F904F90089589859A85A0
:101B8000AB85BC850196A11DB11D84179507A607DD
:101B9000B70710F3CB88DC88ED88FE888F89803109
:101BA00009F042C0BB27A72F962F852F4801590166
:101BB0002A013B01C80ED91EEA1EFB1E80910002BD
:101BC00090910102A0910202B0910302C816D906B9
:101BD000EA06FB0699F58F898031C1F5B301A201B0
:101BE000552766277727440F551F46535B4FFA0149
:101BF000918280828091B40481608093B4048A8948
:101C0000823080F08D819E81AF81B8858C0D9D1DC5
:101C1000AE1DBF1D8093B5049093B604A093B70486
:101C2000B093B80481E099CFDB01CA01E7E0B69533
:101C3000A79597958795EA95D1F7B8CF40E0C7016A
:101C4000B6010E940B0C8111C6CF86CFB301A20151
:101C50004F77552766277727440F551F440F551F89
:101C600046535B4FFA0180829182A282B382C2CF37
:101C70008F929F92AF92BF92CF92DF92EF92FF929C
:101C80000F931F93CF93DF93FC0181859285A385EA
:101C9000B4850196A11DB11D84179507A607B70746
:101CA00070F480E0DF91CF911F910F91FF90EF9042
:101CB000DF90CF90BF90AF909F908F9008958388D2
:101CC0009488A588B6888789803189F5BB27A72F96
:101CD000962F852FE9016A017B018F01BC01CD019F
:101CE000680D791D8A1D9B1D809000029090010255
:101CF000A0900202B090030286169706A806B906C5
:101D000001F5F8018789803111F5DD24EE24FF24E7
:101D1000F601EE0FFF1FE653FB4F80819181B0E08B
:101D2000A0E088839983AA83BB8381E0BBCFDB01DA
:101D3000CA01C7E0B695A79597958795CA95D1F73B
:101D4000C9CF40E00E940B0C8111DBCFAACFE894F1
:101D5000C7F8DD24EE24FF24F601EE0FFF1FEE0F7F
:101D6000FF1FE653FB4F80819181A281B381BF7039
:101D7000D8CF4F925F926F927F92AF92BF92CF92E5
:101D8000DF92EF92FF920F931F93CF93DF9300D0D8
:101D90001F92CDB7DEB78C0149835A836B837C8356
:101DA0005901C12CD12C7601412C82E0582E612C96
:101DB000712C49815A816B817C819E012F5F3F4F3D
:101DC000C8010E94380E882339F1F8018585A301E6
:101DD000920104C0220F331F441F551F8A95D2F76A
:101DE000DA01C901C80ED91EEA1EFB1E49815A81BB
:101DF0006B817C818789803111F188EF9FEFAFEF94
:101E0000BFE0481759076A077B0798F2F501C082BF
:101E1000D182E282F38281E00F900F900F900F90B9
:101E2000DF91CF911F910F91FF90EF90DF90CF90B6
:101E3000BF90AF907F906F905F904F90089588EF24
:101E40009FEFA0E0B0E0DDCF8F929F92AF92BF9264
:101E5000CF92DF92EF92FF920F931F93CF93DF9376
:101E6000EC018D8181110EC080E0DF91CF911F9137
:101E70000F91FF90EF90DF90CF90BF90AF909F9029
:101E80008F9008950B891C892D893E8904171507A9
:101E90002607370748F34A015B01823031F48A860E
:101EA0009B86AC86BD8681E0E0CF81149104A104BD
:101EB000B10449F41E821F82188619861A861B8671
:101EC0001C861D86F0CF0A851B852C853D85EB8DF4
:101ED000FC8D858590E00996B901A8014150510912
:101EE00061097109082E04C0769567955795479545
:101EF0000A94D2F775016401E1E0CE1AD108E10835
:101F0000F10804C0F694E794D794C7948A95D2F761
:101F1000C416D506E606F70620F0012B022B032B8C
:101F200011F58F89988DA98DBA8D8E839F83A8878F
:101F3000B9878E010A5F1F4FC114D104E104F10477
:101F400009F4ADCF4E815F816885798598018B8DCD
:101F50009C8D0E94380E91E0C91AD108E108F10861
:101F60008111EACF81CFC41AD50AE60AF70AE1CF78
:101F70003F924F925F926F927F928F929F92AF9219
:101F8000BF92CF92DF92EF92FF920F931F93CF9366
:101F9000DF93CDB7DEB72C970FB6F894DEBF0FBE38
:101FA000CDBF5C01DC015B968D909C905C97169692
:101FB0004D905D906D907C9019974114510461048F
:101FC000710409F468C0BFEF4B1A5B0A6B0A7B0A05
:101FD000312CF40181859285A385B4859C01AD01E6
:101FE0002F5F3F4F4F4F5F4F29873A874B875C8763
:101FF000730162011D821E821F821886F401818591
:102000009285A385B4852D813E814F8158852817FF
:1020100039074A075B0708F056C089859A85AB8562
:10202000BC858C159D05AE05BF0550F482E0C82E19
:10203000D12CE12CF12C92E0492E512C612C712CE9
:102040009E012F5F3F4FB701A601C4010E94380EC9
:102050008823C9F189819A81AB81BC81892B8A2B24
:102060008B2B09F1260137019FEF491A590A690A9A
:10207000790A2D813E814F8158852F5F3F4F4F4F09
:102080005F4F2D833E834F8358873FEFC31AD30A98
:10209000E30AF30AB3CFF401408051806280738079
:1020A0003324339496CFC414D504E604F70409F717
:1020B0000FEF1FEF2FEF3FE0B701A601C4010E9411
:1020C000960D811119C080E02C960FB6F894DEBFF2
:1020D0000FBECDBFDF91CF911F910F91FF90EF9079
:1020E000DF90CF90BF90AF909F908F907F906F9038
:1020F0005F904F903F900895F5014681578160852C
:102100007185411551056105710539F09701860109
:10211000C4010E94960D8823B1F2D5011696CD9286
:10212000DD92ED92FC921997332051F0D701C60150
:102130000196A11DB11DF40180839183A283B38315
:10214000F5018789908DA18DB28D892B8A2B8B2BE0
:1021500039F4C78AD08EE18EF28E848180688483C0
:1021600081E0B2CFCF93DF93EC018D81882329F1F9
:102170008C8187FF1EC0CE010E94540CFC01892B6C
:10218000E1F08D81823040F48B899C89AD89BE89D4
:10219000848F958FA68FB78F8F89988D938F828F1D
:1021A0008F89988DA98DBA8DB58BA48B8C818F77F3
:1021B0008C83DF91CF910C94CE0B80E0DF91CF9197
:1021C0000895CF93DF93EC010E94B210882311F0A1
:1021D0001D8281E0DF91CF9108952F923F924F921F
:1021E0005F926F927F928F929F92AF92BF92CF92A7
:1021F000DF92EF92FF920F931F93CF93DF9300D064
:102200001F92CDB7DEB78C015B011A01DC01159678
:102210008C911597813009F0C8C014968C9181FF7C
:10222000C4C082FDAEC06101D8011A964D915D9186
:102230006D917C911D97C114D10409F429C15B965D
:102240008D919C915C97FC0174802FEF270D2A01E2
:102250003B0139E076946794579447943A95D1F7C7
:10226000722E74207A01F1E0FF22711020C0E11477
:10227000F104E9F416964D915D916D917C91199759
:10228000411551056105710509F098C057968D916A
:102290009D910D90BC91A02D0097A105B10509F06D
:1022A000AFC0C8010E94B80F882309F47EC080E047
:1022B00092E08E199F0946018C159D0508F44C018A
:1022C000D8015B964D915C915C9716968D919D918E
:1022D0000D90BC91A02D0297A109B109FA012585A5
:1022E00004C0880F991FAA1FBB1F2A95D2F74685E5
:1022F000578560897189840F951FA61FB71F9C01A0
:10230000AD01270D311D411D511D29013A018114D7
:1023100032E0930609F07AC08091000290910102A8
:10232000A0910202B091030284159505A605B70598
:1023300059F48FEF9FEFDC0180930002909301022C
:10234000A0930202B09303029501B301A201809110
:10235000C8049091C9040E94650B882331F19EEF57
:10236000B91AC818D908F80182859385A485B5855E
:10237000880D991DA11DB11D82879387A487B587FC
:1023800053CFF8014389548965897689828593857D
:10239000A485B585481759076A077B0709F443CF19
:1023A000C8010E94240F81113ECF81E090E0D80146
:1023B00013969C938E93129780E007C09E012F5F27
:1023C0003F4F0E94380E811102C090E077C0898192
:1023D0009A81AB81BC81F801238D348DF901278965
:1023E00048EF5FEF60E070E0203121F048EF5FEFF1
:1023F0006FEF7FE084179507A607B70708F051CF66
:10240000F80186839783A087B18751CFE114F10447
:1024100091F5D8011A964D915D916D917C911D9722
:1024200053968D919D910D90BC91A02D4817590701
:102430006A077B0700F10E94CE0B882309F4B5CF11
:1024400040920002509201026092020270920302D6
:102450008091B40481608093B404970126533B4F6C
:10246000D501C901880D991DF9018E179F0759F0F3
:102470004D914193FACF41E0C301B2010E940B0C90
:102480008111EBCF92CF821B930BA80EB91E69CF9F
:10249000F80183899489A589B68984179507A607C9
:1024A000B70738F48481438B548B658B768B8068B7
:1024B0008483F801848183FD18C0C1010F900F90BF
:1024C0000F900F90DF91CF911F910F91FF90EF90A0
:1024D000DF90CF90BF90AF909F908F907F906F9044
:1024E0005F904F903F902F900895C8010E94B210C6
:1024F000882309F45ACFE1CFCF93DF931F92CDB752
:10250000DEB7698341E050E0BE016F5F7F4F0E94FC
:10251000ED100F90DF91CF910895FC01DB01129631
:102520008D919C9113979383828382E392E09183B0
:10253000808314968C911497848315968C911597AB
:10254000858316964D915D916D917C911997468387
:102550005783608771871A964D915D916D917C913B
:102560001D9742875387648775871E964D915D91AD
:102570006D917C91519746875787608B718B5296EE
:102580008C915297828B53964D915D916D917C9178
:102590005697438B548B658B768B57964D915D91F7
:1025A0006D917C915A97478B508F618F728F5B969C
:1025B0008D919C91948F838F08950895FC01818D56
:1025C000928D009711F00C94B2100895DC01599689
:1025D000ED91FC913097B9F083899489A589B689EA
:1025E0004285538564857585841B950BA60BB70BB7
:1025F000811520E89207A105B10538F08FEF9FE71C
:10260000A0E0B0E0089590E080E00895CF93DF93DC
:10261000EC01E98DFA8D309749F481E090E09B83DD
:102620008A8390E080E0DF91CF9108951382128237
:10263000898D9A8D0E94ED10E98DFA8D228133816A
:10264000232B59F7F0CFCF93DF931F92CDB7DEB78F
:102650006983DC01ED91FC910280F381E02D41E082
:1026600050E0BE016F5F7F4F19950F90DF91CF91C2
:1026700008952F923F924F925F926F927F928F9226
:102680009F92AF92BF92CF92DF92EF92FF920F9301
:102690001F93CF93DF9300D0CDB7DEB7FC018581C8
:1026A000811118C08FEF9FEF0F900F900F90DF9167
:1026B000CF911F910F91FF90EF90DF90CF90BF903F
:1026C000AF909F908F907F906F905F904F903F90D2
:1026D0002F900895848180FFE5CF438954896589CF
:1026E000768982859385A485B585312C212C481760
:1026F00059076A077B0719F022242394312C6F01B4
:102700002101CE0101963C01DF011696BB83AA830D
:102710004114510409F4C5C0F6014285538564850E
:1027200075854A01F1E09F22D6015B968D919C91BF
:102730005C978A019B01E9E03695279517950795E7
:10274000EA95D1F71596EC91E230E9F5FC01628D3E
:10275000738D848D958D600F711F821F931FA12C27
:1027600022E0B22EA818B9084A145B0408F45201FA
:10277000F601248126FD04C0A114F2E0BF0671F425
:102780000091000210910102209102023091030297
:10279000061717072807390709F05EC040E00E94B6
:1027A0000B0C882309F47ECFC40186539B4FD301C1
:1027B0009C012A0D3B1DFC012E173F0709F46CC03C
:1027C00041914D93F9CFDC011496BC90BA94B0229C
:1027D0008114910479F4B1100DC0452B462B472B81
:1027E00069F5F6018789908DA18DB28D86839783D7
:1027F000A087B187D6015B96ED91FC915C97169608
:102800006D917D918D919C9119976250710981090B
:102810009109258504C0660F771F881F991F2A9587
:10282000D2F70685178520893189600F711F821FB5
:10283000931F6B0D711D811D911D91CFD6011696B1
:102840004D915D916D917C9119972A813B810E94F8
:10285000380E8111CFCF26CF730185019401AB01D2
:10286000BC018091C8049091C9040E94C30A8823C6
:1028700009F418CF6A0C7B1CF60182859385A48528
:10288000B5858A0D9B1DA11DB11D82879387A487E5
:10289000B5874A185B083CCF281B390B620E731EA4
:1028A000EBCF2A94232809F0FDCE898190E0FCCE5D
:1028B000FC01818D928D009711F00C9439138FEFEC
:1028C0009FEF08950F931F93CF93DF93EC01898DB2
:1028D0009A8D10E000E0009799F00E9439138C0166
:1028E0000F3F100769F0898D9A8DFC014285538551
:1028F0006485758541505109610971090E94240F51
:10290000C801DF91CF911F910F91089590E080E071
:1029100008956115710559F0DC01ED91FC918481F8
:102920004130510529F48F77848377836683089536
:102930008068FACF9C01FB01309759F09481907820
:1029400098609483C901B0E0A0E080839183A28362
:10295000B3830895FB01309759F094819078986083
:10296000948390E0B0E0A0E080839183A283B3835E
:102970000895FA01309741F0248120782C60248357
:1029800060837183828393830895CF93DF93EC01F7
:1029900088819981DC01ED91FC910084F185E02D25
:1029A00019951816190684F488819981DC01ED9136
:1029B000FC910284F385E02D199561E070E080E0E0
:1029C00090E00E947208E4CFDF91CF91089580914A
:1029D000030183FB882780F90895982F80336CF0DA
:1029E0008A3324F08F3524F08B3724F481E0089566
:1029F00081341CF081E09B350CF080E00895FC01EF
:102A0000808581110AC0A581B681CD01019696838A
:102A100085838C91878381E08087878108951F93C8
:102A2000CF93DF93EC01162F0E94FF14811306C091
:102A3000188681E0DF91CF911F91089580E0FACF51
:102A40000F931F93CF93DF938C01EB018991882320
:102A500069F0C8010E94FF14882379F0FE013197C4
:102A6000908198130DC0F8011086F0CF90E080E0BF
:102A7000DF91CF911F910F91089582E090E0F8CF00
:102A800083E090E0F5CFCF93DF93EC01CE010E947D
:102A9000FF148B304CF489305CF4882359F081E0CA
:102AA0008C8390E080E00BC08D3011F08032B9F75C
:102AB0001886ECCF8C81811105C081E090E0DF9118
:102AC000CF91089582E090E0FACFFC0184858111D6
:102AD0000AC0A185B285CD010196928781878C912C
:102AE000838781E08487838508951F93CF93DF9345
:102AF000EC01162F0E946515811306C01C8681E02B
:102B0000DF91CF911F91089580E0FACF0F931F932B
:102B1000CF93DF938C01EB018991882369F0C80181
:102B20000E946515882379F0FE01319790819813F2
:102B30000DC0F8011486F0CF90E080E0DF91CF91D6
:102B40001F910F91089582E090E0F8CF83E090E02C
:102B5000F5CFCF93DF93EC01CE010E9465158B304A
:102B60004CF489305CF4882359F081E0888790E048
:102B700080E00BC08D3011F08032B9F71C86ECCFAD
:102B80008885811105C081E090E0DF91CF910895A3
:102B900082E090E0FACFAF92BF92CF92DF92EF92B5
:102BA000FF920F931F93CF93DF9300D01F921F923A
:102BB000CDB7DEB75C0129833A834B835C836D8399
:102BC00029813A812115310599F4F0E0E0E0CF0147
:102BD0000F900F900F900F900F90DF91CF911F915A
:102BE0000F91FF90EF90DF90CF90BF90AF9008953E
:102BF0004B815C81DC01ED91FC91119712966D91F6
:102C00007C917A01E20EF31ECF01840F951F861787
:102C10009707B8F4DC018C9181110DC0C9018F01B7
:102C2000E816F90661F0DC01CD90CD01D801DD9008
:102C30008D01CD14A9F381918111FDCFE5CF30979E
:102C400031F6CA010196860F971FD5011496ED91B2
:102C5000FC911597E817F90720F481E018968C93FA
:102C6000B4CFF501938382836115710509F4ADCF6B
:102C7000F901DB01240F351F2E173F0719F0819151
:102C80008D93FACF460F571FDA011C92FB019FCF9D
:102C9000CF93DF9300D000D0CDB7DEB729833A833E
:102CA0004B835C836D837E8329813A8150E040E0D1
:102CB0002115310511F04DED52E1DC01ED91FC9152
:102CC00084818078452B51F4848326960FB6F8943E
:102CD000DEBF0FBECDBFDF91CF9108954B815C81E8
:102CE0006D817E816130710539F484608483318324
:102CF000208353834283E9CF8560F8CF08950F93F3
:102D00001F93CF93DF93DB0112962D913C91EC0141
:102D1000E881F9818A819B81DF01A20FB31FA81787
:102D2000B907A8F44C9141110EC0EB01A881B981FB
:102D3000EF018D01020F131FA017B10751F05D9134
:102D400049915417C9F341914111FDCFE5CFF0E00E
:102D5000E0E0CF01DF91CF911F910F910895EF92A5
:102D6000FF920F931F93CF93DF9300D01F92CDB7A5
:102D7000DEB749835A836B837C83042F152F01159B
:102D8000110569F490E080E00F900F900F900F9084
:102D9000DF91CF911F910F91FF90EF9008957C01EB
:102DA000BE016F5F7F4F0E947F16009769F72B81EE
:102DB0003C81F70182819381A9014F5F5F4F480FEA
:102DC000591F648175816417750718F481E0808745
:102DD000D9CF538342830097A9F2F801DC01BF01E8
:102DE000620F731F6E177F0719F041914D93FACF51
:102DF000280F391FF9011082C7CFCF92DF92EF92CF
:102E0000FF920F931F93CF93DF9300D000D01F92B8
:102E10001F92CDB7DEB7FA013097C1F1DC01CD903A
:102E2000DC90C114D10499F484818078848381E09A
:102E300028960FB6F894DEBF0FBECDBFDF91CF91BD
:102E40001F910F91FF90EF90DF90CF9008958A012E
:102E50009B01FC01F480E580A6016F2D7E2D188773
:102E60000F83C9010E94AF168C01282F9A83898392
:102E70004F2D1E821D823A815E2D60E07E81CE0143
:102E800007960E94481681E0012B91F680E0D0CF92
:102E9000CF93DF93FB0122813381DC0113963C93B6
:102EA0002E931297448155816681778114964D93B4
:102EB0005D936D937C9317974085518562857385EB
:102EC00018964D935D936D937C931B971C96EF0121
:102ED0002C969C01275E3F4F49914D93A217B30753
:102EE000D9F7218D328DFC01328F218FDF91CF9167
:102EF0000895FC01CB01985D8115944028F473700E
:102F00007183608380E00895CB019C5D81159440BE
:102F100088F4808140E0582F550F550F7370642B53
:102F2000752B90E080E001966283738384839583A0
:102F300081E00895AB0170E060E0428353836483D5
:102F40007583F6CFCF92DF92EF92FF920F931F938C
:102F5000CF93DF9300D000D000D01F921F92CDB747
:102F6000DEB78C011A8219821B821C821D821E828E
:102F70000E94FF14F82ED80118961C92C8010E94D6
:102F8000FF14F8011086F81609F4B5C0811111C0BC
:102F900082E090E02B960FB6F894DEBF0FBECDBF57
:102FA000DF91CF911F910F91FF90EF90DF90CF9025
:102FB00008958C3509F095C0C8010E94FF1488233C
:102FC00039F3EAE3F2E0853709F07FC0D8011896BB
:102FD0001C9244E0E42ED12CC12CC8010E94FF14A5
:102FE0008823B1F2813434F48053803130F083E0AF
:102FF00090E0D0CF8F7D8753F8CF34E0CC0CDD1C30
:103000003A95E1F7C82AF8011086EA94E110E5CF75
:10301000B601CE0101960E947917882309F4AECF3C
:103020008B819C81AD81BE8180389105A105B10560
:1030300058F4F801408151819A012F5F3F4F31834D
:103040002083FA0180839ACF1F82282F2F73206854
:10305000288726E0B695A795979587952A95D1F765
:1030600080329105A0F4806C8987FE013A968291A6
:10307000882309F483CFD8014D915C9111979A016F
:103080002F5F3F4F2D933C93DA018C93F0CF282F85
:103090002F73206829879C0186E0369527958A95AD
:1030A000E1F72031310528F4206E2A87FE013B9696
:1030B000DECF2F7320682A87892F82958F70806FCB
:1030C0008B87FE013C96D3CF32969081992309F4E9
:1030D0008ECF8913F9CF8181882309F488CFF80135
:1030E0001086D801ED91FC9111979F012F5F3F4F02
:1030F0002D933C93A7CF90E080E04CCFFC0124813E
:103100003581A9014F5F5F4F868197814817590725
:1031100048F48281938155834483FC01E20FF31FBD
:10312000608308950190F081E02D81E0808708950B
:10313000CF92DF92EF92FF920F931F93CF93DF9383
:1031400000D000D000D01F921F92CDB7DEB78C0107
:103180002B960FB6F894DEBF0FBECDBFDF91CF9167
:103190001F910F91FF90EF90DF90CF9008958C35A5
:1031A000E9F5C8010E946515882341F3EAE3F2E0DE
:1031B000853709F079C0D8011C961C9244E0E42EB2
:1031C000D12CC12CC8010E9465158823B9F2813425
:1031D00034F48053803130F083E090E0D1CF8F7DA4
:1031E0008753F8CF34E0CC0CDD1C3A95E1F7C82AC0
:1031F000F8011486EA94E110E5CFB601CE010196FC
:103200000E947917882309F4AFCF8B819C81AD810F
:10321000BE8180389105A105B10528F4682FC80149
:103220000E947E18A1CF1F82282F2F732068288725
:1032300026E0B695A795979587952A95D1F7803280
:10324000910580F4806C89876E01FAE0CF0ED11C65
:10325000F60162916F01662309F486CFC8010E94CE
:103260007E18F6CF282F2F73206829879C0186E0CF
:10327000369527958A95E1F72031310538F4206E8F
:103280002A876E018BE0C80ED11CE2CF2F73206815
:103290002A87892F82958F70806F8B876E01ACE0B3
:1032A000CA0ED11CD5CF32969081992309F494CFC0
:1032B0008913F9CF8181882309F48ECFD8011C9618
:1032C0001C92ACCF0190F081E02D8085882319F00D
:1032D00084E090E055CF90E080E052CF4F925F9233
:1032E0006F927F928F929F92AF92BF92CF92DF9216
:1032F000EF92FF920F931F93CF93DF93EC018B011B
:1033000088818B32C9F18D32C1F52196FF24F39467
:10331000888190ED980F9A3018F08E3209F04DC1E7
:1033200060E070E0CB01FE012191A0ED8A2E820EBB
:1033300039E0381520F16A3949E97407840749E111
:10334000940738F5AAE0B0E09B01AC010E94BF7081
:10335000912CB12CA12C24013501409450946094FF
:103360007094461657066806790698F0680D791D20
:103370008A1D9B1DEF01D7CF2196F12CC9CF2111BA
:1033800008C0FF20F1F161307105810550E8950713
:10339000A0F0E12CEAE08E2E912CA12CB12C61152D
:1033A0007105F0E88F079105C0F1A50194010E9415
:1033B000CA70CA01B901E394F2CFF80124812078E0
:1033C0002A6024839B01AC0188279927DC01821B9A
:1033D000930BA40BB50B80839183A283B3838F2DB2
:1033E000DF91CF911F910F91FF90EF90DF90CF90E1
:1033F000BF90AF909F908F907F906F905F904F9015
:103400000895F801248120782860248360837183E3
:1034100082839383FF24F394E2CFFE01299130ED60
:10342000320F3A3010F4E394F8CF2E32F1F4EF017A
:103430002196FE012196208150EDD52ED20E29E055
:103440002D1598F06C3C3CEC73073CE0830791052C
:1034500080F7AAE0B0E09B01AC010E94BF706D0D47
:10346000711D811D911DEA94E4CF20812F7DD0E054
:10347000C0E0253409F05DC021812D32D9F53296A6
:10348000CC24C394DF01D0E0C0E02E2D0E2C000C24
:10349000330B4AE0B42EFD01DD9040ED4D0D4A3076
:1034A00008F042C0BC9EA001BD9E500D1124CD2D40
:1034B000DD0CDD0BE097C40FD51FAE01420F531F8B
:1034C0004732510544F3F8018481CC20D1F040E02B
:1034D00050E060E070E8F11003C040E050E0BA0155
:1034E00080788C60F8018483408351836283738386
:1034F000FC2C75CF2B3219F03196C12CC3CF3296EC
:10350000FCCF40E050E060E87FEFF11004C040E005
:1035100050E060E87FE780788C60F8018483408326
:1035200051836283738376CFCC2019F0D195C195F6
:10353000D1092081211141C0CE0DD11DE7FCDA95C2
:103540000E947E6F1C161D0604F5E12CC0FF0CC006
:1035500024E0E29EF0011124EE54FD4F25913591B7
:10356000459154910E94DF6FD595C795E3942097BC
:1035700069F7F1109058F801248120782C60248399
:10358000608371838283938345CFD195C195D1099F
:10359000E12C209771F3C0FF0CC044E0E49EF001E1
:1035A0001124EE57FD4F25913591459154910E947C
:1035B000DF6FD595C795E394ECCFF12C10CFCF9268
:1035C000DF92EF92FF92CF93DF9300D01F921F9272
:1035D000CDB7DEB7FC0184818F778630B1F028F457
:1035E000843008F590E080E012C08A3021F08C3001
:1035F00039F18830B9F780819181A281B381009738
:1036000021E0A207B10518F0EDCF808190E00F9086
:103610000F900F900F900F90DF91CF91FF90EF9050
:10362000DF90CF900895808191811D82BE016F5FF0
:103630007F4F0E946E19CE0101960E94DF1AE7CFDC
:10364000C080D180E280F38020E030E0A901C70192
:10365000B6010E94B37187FDC5CF20E03FEF4FE771
:1036600057E4C701B6010E94796F18160CF4BACF5F
:10367000C701B6010E948471CB01C9CFCF93DF93FC
:10368000DC01EB01EC81FD818A819B810896E817C2
:10369000F90740F481E08887F0E0E0E0CF01DF91B6
:1036A000CF9108953897FD83EC833097B9F3129644
:1036B000CD91DC911397209791F0CF018C1B9D0B3E
:1036C00023E0959587952A95E1F78D831396FC93D2
:1036D000EE9312971582148217821682DFCF11960D
:1036E000FC93EE93F3CF009749F0FC0124812078FE
:1036F0002062248311821082138212820895CF9255
:10370000DF92EF92FF920F931F93CF93DF9300D03E
:103710001F92CDB7DEB76C018B01DC011296ED90E4
:10372000FC90FA82E9827C836B83BE016F5F7F4FDE
:103730000E947F16009761F4F701E00FF11FCF019F
:103740000196D60113969C938E9312971082C7010F
:103750000F900F900F900F90DF91CF911F910F91CD
:10376000FF90EF90DF90CF900895FC01718360830C
:10377000738362836115710511F0640F751F758382
:1037800064837783668310860895FC012581222354
:1037900039F0F8E02F0290011124820F931F089551
:1037A00090E080E00895EF92FF920F931F93CF93E4
:1037B000DF938C017B01FC01C081D181209731F026
:1037C000CE010E94C51BE816F906E9F4C7010E9464
:1037D000C51B2097D1F020E0009741F09C012C1BE5
:1037E0003D0B43E0359527954A95E1F72D83892BCD
:1037F00019F4F801D383C283DF91CF911F910F9108
:10380000FF90EF900895EC01D9CFF8019183808368
:10381000EECF8F929F92AF92BF92CF92DF92EF92B4
:10382000FF920F931F93CF93DF9300D01F92CDB7DA
:10383000DEB7FC018581813091F080E00F900F9020
:103840000F900F90DF91CF911F910F91FF90EF900C
:10385000DF90CF90BF90AF909F908F90089584811C
:1038600081FFEBCF83899489A589B689892B8A2B1F
:103870008B2B09F45EC07F0140E050E0BA01CF011C
:103880000E94240F8823C9F2F701C38CD48C878847
:10389000908CA18CB28C82E090E0A0E0B0E0F601C8
:1038A00080839183A283B3839E012F5F3F4FB50135
:1038B000A401C6010E94380E882309F4BECF00E09F
:1038C00010E09801B501A401C6010E94960D88235D
:1038D00009F4B3CF89809A80AB80BC80F6018789D8
:1038E000803111F188EF9FEFAFEFBFE088169906A6
:1038F000AA06BB06C8F2F701178A108E118E128E27
:10390000138A148A158A168A848180688483C70181
:103910000E94B210882309F490CF40E050E0BA0131
:10392000C7010E94240F8ACF88EF9FEFA0E0B0E08C
:10393000DDCF81E083CFCF92DF92EF92FF921F9392
:10394000CF93DF93EC0180E2689FF0011124E653EE
:10395000FB4F9385917161F0842F827449F080E070
:10396000DF91CF911F91FF90EF90DF90CF9008955E
:10397000142F6A8B8091000290910102A0910202A3
:10398000B09103028E879F87A88BB98BC488D58896
:10399000F12CE12C7601DD24CC24CF8AD88EE98E5F
:1039A000FA8E828D938DB0E0A0E0AC01BD014C2970
:1039B0005D296E297F294F8B588F698F7A8F838578
:1039C0008871B1F4848D958DA68DB78D8B8B9C8B72
:1039D000AD8BBE8B81E08D831F701C831E821F8286
:1039E000188619861A861B861C861D8681E0B8CF2C
:1039F000803109F0B4CF9E012D5E3F4F8B8D9C8DA1
:103A00000E94B90E882309F4AACF84E0E4CF2F9254
:103A10003F924F925F926F927F928F929F92AF925E
:103A2000BF92CF92DF92EF92FF920F931F93CF93AB
:103A3000DF93CDB7DEB7C651D1400FB6F894DEBFE5
:103A40000FBECDBFC82EB92EA62E972ECA5EDE4F52
:103A50004883C651D140852E322E232EC050DF4FD1
:103A600019821882C050D140CE5FDE4F1982188271
:103A7000C250D140CC5FDE4F19821882C450D14071
:103A8000C05FDE4F19821882C051D140CE5EDE4F3A
:103A900019821882C251D140CC5EDE4F1982188241
:103AA000C451D1408EED98E00E94C5149E012F5F55
:103AB0003F4F79018FEFD9011D928A95E9F764E1B3
:103AC00070E080E090E00E94720866E07EE0809105
:103AD000DE089091DF080E94C60863E07EE08091D6
:103AE000DE089091DF080E94C6080E94A5082B01FD
:103AF0003C016AE070E080E090E00E947208D12C06
:103B000000E0102F011144C08091DE089091DF0881
:103B1000DC01ED91FC910284F385E02D19952D2DAA
:103B200030E0F701E20FF31F80832C0F3D1FF901F6
:103B300090819F3419F48B3409F401E080528F3561
:103B400008F4D3940E94A508641975098609970999
:103B50006031774281059105A0F2812FCA5EDE4F68
:103B60000FB6F894DEBF0FBECDBFDF91CF911F918E
:103B70000F91FF90EF90DF90CF90BF90AF909F900C
:103B80008F907F906F905F904F903F902F9008950F
:103B900080E091E08C0F9D1F44969F938F932F920E
:103BA0003F9280E091E08C0F9D1F40969F938F93F2
:103BB0008F92CA5EDE4F2881C651D1402F939F92CB
:103BC000AF9280E091E08C0F9D1F04969F938F939E
:103BD00080E091E08C0F9D1F02969F938F93BF9280
:103BE000CF928BE492E09F938F93FF92EF920E948B
:103BF000CA7495E09093200911E00FB6F894DEBFE7
:103C00000FBECDBF883009F4A8CF10E0A6CFCF9368
:103C1000DF93EC0188819981009711F00E94E17295
:103C2000198218821D821C821B821A82DF91CF9119
:103C30000895FC01808191810C94E172FB01019057
:103C40000020E9F73197AF01461B570BDC01ED91DE
:103C5000FC910280F381E02D19948F929F92AF9294
:103C6000BF92EF92FF920F931F93CF93DF93CDB745
:103C7000DEB7A1970FB6F894DEBF0FBECDBF7C01B3
:103C8000FA01CB0119A2223008F42AE08E010F5D5F
:103C90001F4F822E912CB12CA12CBF01A5019401A4
:103CA0000E94CA70F901CA016A300CF5605DD80142
:103CB0006E938D01232B242B252B79F790E080E048
:103CC000109721F0BD01C7010E941E1EA1960FB6DC
:103CD000F894DEBF0FBECDBFDF91CF911F910F9142
:103CE000FF90EF90BF90AF909F908F900895695C88
:103CF000DECF462F50E070E060E02AE00C942D1EED
:103D00008F929F92AF92BF92DF92EF92FF920F93AA
:103D10001F93CF93DF93CDB7DEB7CF5FD1090FB637
:103D2000F894DEBF0FBECDBF182F8EED98E00E9435
:103D3000C514CE0101967C018FEFD7011D928A95A3
:103D4000E9F764E170E080E090E00E94720860ECC6
:103D50007DE08091DE089091DF080E94C608612F07
:103D60008091DE089091DF080E94791E6EEB7DE065
:103D70008091DE089091DF080E94C60861E0809182
:103D8000DE089091DF080E94791E6CEB7DE0809147
:103D9000DE089091DF080E94C60860E08091DE088E
:103DA0009091DF080E94791E6AEB7DE08091DE0829
:103DB0009091DF080E94C60861E08091DE08909132
:103DC000DF080E94791E68EB7DE08091DE0890910B
:103DD000DF080E94C60860E08091DE089091DF084D
:103DE0000E94791E66EB7DE08091DE089091DF08ED
:103DF0000E94C60860E08091DE089091DF080E9472
:103E0000791E63EB7DE08091DE089091DF080E94CF
:103E1000C6080E94A5084B015C016AE070E080E0E2
:103E200090E00E94720800E010E0D12E111129C02C
:103E30008091DE089091DF08DC01ED91FC91028415
:103E4000F385E02D1995202F30E0F701E20FF31FE5
:103E500080832C0F3D1FF90190819F3419F48B341E
:103E600009F411E080528F3508F40F5F0E94A50815
:103E7000681979098A099B09683E73408105910593
:103E8000A0F28D2DC150DF4F0FB6F894DEBF0FBEEC
:103E9000CDBFDF91CF911F910F91FF90EF90DF90F9
:103EA000BF90AF909F908F9008951F93CF93DF9313
:103EB000EC01162F61EF71E0888199810E94C6089C
:103EC000612F888199810E94791E88819981DC0106
:103ED000ED91FC910190F081E02D6DE6DF91CF91A5
:103EE0001F9119940F931F93CF93DF93EC01062F2B
:103EF000142F6EEE71E0888199810E94C608602FB0
:103F0000888199810E94791E6CEE71E08881998187
:103F10000E94C608612F888199810E94791E6AEEED
:103F200071E088819981DF91CF911F910F910C945D
:103F3000C608AB01770F660B770B2AE00C942D1E99
:103F4000AB0170E060E02AE00C942D1E8F929F92EE
:103F5000AF92BF92DF92EF92FF920F931F93CF9396
:103F6000DF93CDB7DEB7CF5FD1090FB6F894DEBFD0
:103F70000FBECDBF082F5B01142F8EED98E00E947D
:103F8000C514CE0101967C018FEFD7011D928A9551
:103F9000E9F764E170E080E090E00E94720869ED6A
:103FA0007DE08091DE089091DF080E94C608602FB6
:103FB0008091DE089091DF080E94791E67ED7DE018
:103FC0008091DE089091DF080E94C60861E0809130
:103FD000DE089091DF080E94791E65ED7DE08091FA
:103FE000DE089091DF080E94C6086CED75E08091B4
:103FF000DE089091DF080E94A01F63ED7DE08091B4
:10400000DE089091DF080E94C6086AE570E08091A2
:10401000DE089091DF080E94A01F61ED7DE0809195
:10402000DE089091DF080E94C608B5018091DE0885
:104030009091DF080E94A01F6FEC7DE08091DE0868
:104040009091DF080E94C608612F8091DE08909150
:10405000DF080E94791E6CEC7DE08091DE08909173
:10406000DF080E94C6080E94A5084B015C016AE0B7
:1040700070E080E090E00E94720800E010E0D12E35
:10408000111129C08091DE089091DF08DC01ED91CB
:10409000FC910284F385E02D1995202F30E0F70183
:1040A000E20FF31F80832C0F3D1FF90190819F3495
:1040B00019F48B3409F411E080528F3508F40F5F46
:1040C0000E94A508681979098A099B09683E73400E
:1040D00081059105A0F28D2DC150DF4F0FB6F894E8
:1040E000DEBF0FBECDBFDF91CF911F910F91FF902B
:1040F000EF90DF90BF90AF909F908F9008954F9278
:104100005F926F927F929F92AF92BF92CF92DF9217
:10411000EF92FF920F931F93CF93DF93CDB7DEB74C
:10412000CF5FD1090FB6F894DEBF0FBECDBFF82E1A
:104130008B016A018EED98E00E94C514CE010196B4
:104140005C018FEFD5011D928A95E9F764E170E07B
:1041500080E090E00E94720865E97DE08091DE08D1
:104160009091DF080E94C6086F2D8091DE08909123
:10417000DF080E94791E63E97DE08091DE0890915E
:10418000DF080E94C608B8018091DE089091DF0820
:104190000E94A01F60E97DE08091DE089091DF0819
:1041A0000E94C6080E94A5082B013C016AE070E04D
:1041B00080E090E00E947208912CF12CEF2C092DE8
:1041C00010E0FF2009F1FE013A968AE090E050E00D
:1041D00040E020E00817190708F442C05F01318170
:1041E0003B3711F0222341F0B601640F751FDB014C
:1041F0003C934F5F5F4F2F2D3196D5013C913D375A
:1042000009F420E00196E6CF8091DE089091DF0866
:10421000DC01ED91FC910284F385E02D1995F50107
:10422000E00FF11F8083BEE1B91550F4FE01E00FED
:10423000F11F90819F3421F48B3411F4FF24F39407
:1042400081528E3508F493940E94A508641975096B
:1042500086099709683873418105910508F4AECF46
:104260008E2DC150DF4F0FB6F894DEBF0FBECDBF0D
:10427000DF91CF911F910F91FF90EF90DF90CF9042
:10428000BF90AF909F907F906F905F904F900895F8
:104290000F931F93CF93DF93EC010E94C6088C010C
:1042A0006DE873E0CE010E941E1E800F911FDF910A
:1042B000CF911F910F9108956F927F928F929F924D
:1042C000AF92BF92CF92DF92EF92FF920F931F9324
:1042D000CF93DF93C82FD62EF42ED22F480165E25C
:1042E00088E899E00E94551F6DE57EE0809188097D
:1042F000909189090E94C60862E080918809909196
:1043000089090E94791E8091880990918909DC01B0
:10431000ED91FC910190F081E02D6DE619954D2D08
:104320006C2F88E899E00E94721F69E57EE0809119
:104330008809909189090E9448214D2D6F2D88E8A8
:1043400099E00E94721F65E57EE080918809909156
:1043500089090E9448214D2F6C2F88E899E00E941E
:10436000721F61E57EE080918809909189090E9421
:1043700048214D2F6F2D88E899E00E94721F6DE44F
:104380007EE080918809909189090E94482111E07E
:104390001C0F1F15F0F44D2D612F88E899E00E9445
:1043A000721F69E47EE080918809909189090E94DA
:1043B00048214D2F612F88E899E00E94721F65E423
:1043C0007EE080918809909189090E9448211F5FB1
:1043D000E0CF11E01D0DB12EBD16F0F44B2D6C2F6A
:1043E00088E899E00E94721F61E47EE0809188096C
:1043F000909189090E9448214B2D6F2D88E899E002
:104400000E94721F6DE37EE0809188099091890976
:104410000E944821B394E0CF61E288E899E00E94CD
:10442000551F42E04D0D6C2F88E899E00E94721FE5
:104430006090880970908909B401C3010E94B8088E
:104440006DE873E0C3010E941E1EEE2069F165E273
:1044500088E899E00E94551F4CEF4D0F6C2F88E8BB
:1044600099E00E94721F69E37EE080918809909133
:1044700089090E94482161E288E899E00E94551F5D
:104480004DEF4D0F6C2F88E899E00E94721F8090CD
:104490008809909089096E2DC4010E94791E6DE8EB
:1044A00073E0C4010E941E1ECC20A9F165E288E8D9
:1044B00099E00E94551FCE5F4D2D6C2F88E899E042
:1044C0000E94721F65E37EE08091880990918909BE
:1044D0000E9448214D2F6C2F88E899E00E94721F9E
:1044E00061E37EE080918809909189090E944821CA
:1044F000B12EBD1680F44B2D6C2F88E899E00E94F8
:10450000721F6DE27EE080918809909189090E9476
:104510004821B394EECFAA20A9F165E288E899E09A
:104520000E94551FFA94FA944D2D6F2D88E899E05A
:104530000E94721F69E27EE080918809909189094A
:104540000E9448214D2F6F2D88E899E00E94721F2C
:1045500065E27EE080918809909189090E94482156
:104560001D1780F4412F6F2D88E899E00E94721F7B
:1045700061E27EE080918809909189090E9448213A
:104580001F5FEECFDF91CF911F910F91FF90EF90C2
:10459000DF90CF90BF90AF909F908F907F906F9063
:1045A00008950C941E1E8F929F92AF92BF92DF923D
:1045B000EF92FF920F931F93CF93DF93CDB7DEB7A8
:1045C000CF5FD1090FB6F894DEBF0FBECDBF8C010F
:1045D0008EED98E00E94C514CE0101967C018FEF0C
:1045E000D7011D928A95E9F764E170E080E090E0E0
:1045F0000E9472086AEF7DE08091DE089091DF08EA
:104600000E94C60861E08091DE089091DF080E9458
:10461000791E67EF7DE08091DE089091DF080E94AF
:10462000C608B8018091DE089091DF080E94D1226F
:1046300065EE7DE08091DE089091DF080E94C6085B
:1046400062EE7DE08091DE089091DF080E94C6084E
:104650000E94A5084B015C016AE070E080E090E0F8
:104660000E94720800E010E0D12E111129C0809143
:10467000DE089091DF08DC01ED91FC910284F38566
:10468000E02D1995202F30E0F701E20FF31F808312
:104690002C0F3D1FF90190819F3419F48B3409F4DC
:1046A00011E080528F3508F40F5F0E94A508681949
:1046B00079098A099B09683E734081059105A0F23A
:1046C0008D2DC150DF4F0FB6F894DEBF0FBECDBFAA
:1046D000DF91CF911F910F91FF90EF90DF90BF90EE
:1046E000AF909F908F9008955F926F927F928F927C
:1046F0009F92AF92BF92CF92DF92EF92FF920F9371
:104700001F93CF93DF9300D000D000D0CDB7DEB79A
:104710005C014A01FC011182108213821282FB01AA
:10472000E080F180E114F10409F454C0F701C6807F
:10473000D780C114D10409F445C05480F60101901A
:104740000020E9F731973F016C187D08B401C501DD
:104750000E943E1B8C010097D9F157FC15C0998728
:10476000888741E050E0B601CE0108960E94891486
:10477000C801A401B7010E940124882349F1C7019F
:104780000E94C51B7C01CECF2C2DDA82C982462D1A
:104790007C826B821D829F838E833A815C8160E084
:1047A000C4010E94CB156C0150E040E0BC01CE0179
:1047B00006960E948914CD28D9F6B801C5010E9439
:1047C000D31B06C0B401C5010E943E1B009789F6A9
:1047D00080E001C081E029960FB6F894DEBF0FBEDD
:1047E000CDBFDF91CF911F910F91FF90EF90DF90A0
:1047F000CF90BF90AF909F908F907F906F905F9081
:104800000895CF92DF92EF92FF920F931F93CF9371
:10481000DF93CDB7DEB72D970FB6F894DEBF0FBE8E
:10482000CDBF8C01FB016A0124812F77253009F46B
:1048300041C0A8F4233009F469C0D80114968C91C2
:1048400014978078282B14962C9380819181A281D3
:10485000B381F80180839183A283B38335C0DC01E7
:1048600014969C911497203211F190789064203422
:1048700021F714969C93149711961C921E921396EE
:104880001C921E921297A601BF01C8010E947423B8
:104890002D960FB6F894DEBF0FBECDBFDF91CF913E
:1048A0001F910F91FF90EF90DF90CF900895907837
:1048B0009062DFCFF280E38080819181009731F4B4
:1048C000F80184818078848381E0E2CF282F988763
:1048D0008F834F2D1D870C8738855E2D60E0C601C4
:1048E0000E94CB158C01282F9A8389834F2D1E821D
:1048F0001D823A815E2D60E07E81CE010C960E9481
:10490000481681E0012B21F680E0C2CFE280F380DF
:1049100040815181B701C6010E94AF169C01D801A8
:1049200014969C91149790782115310561F093604D
:1049300014969C93149711963C932E931396FC9285
:10494000EE921297C1CFF8019483DECFCF93DF931D
:10495000EC01888199819B838A838E819F819D83CD
:104960008C8318861D86CE01099631F0675F7F4FD4
:1049700019F0AE010E94012480E0209719F088858B
:1049800091E08927DF91CF910895FC01A081B18149
:10499000109749F0FD0101900020E9F73197CF0110
:1049A0008A1B9B0B089590E080E008956F927F92A0
:1049B0008F929F92AF92BF92CF92DF92EF92FF922F
:1049C0000F931F93CF93DF93CDB7DEB72E970FB61C
:1049D000F894DEBF0FBECDBFFA01309709F45FC077
:1049E0000097C9F484818078848381E02E960FB685
:1049F000F894DEBF0FBECDBFDF91CF911F910F9115
:104A0000FF90EF90DF90CF90BF90AF909F908F90EE
:104A10007F906F9008958C015B019E878D875C87E6
:104A20004B879A878987CE0109960E94C5244C013D
:104A3000F501C080D180E280F3803801680E791ED4
:104A4000F601E80DF91DEE15FF0558F1CE010996A6
:104A50000E94C5249C012F5F3F4F2E0D3F1DF50185
:104A60004481558142175307E8F581E08087F12C96
:104A7000E12CCE010D960E94C5242E2DFA82E982EA
:104A8000482F1E821D823A81592F60E07E81CE011F
:104A90000B960E94481681E0EF2809F0A7CF80E02E
:104AA000A5CF8081811112C018870F83CE01079690
:104AB0000E94C5248816990649F4D601F801E61526
:104AC000F70551F09D9181919817C9F3F6018191F5
:104AD0006F018111FBCFB4CFC114D10409F4B6CF5B
:104AE0007601C7CF33832283E114F10411F2F80178
:104AF000D701A801480F591F4E175F0719F02191E0
:104B00002D93FACF8E0D9F1DFC011082B2CFAF9274
:104B1000BF92CF92DF92EF92FF920F931F93CF93AA
:104B2000DF9300D01F92CDB7DEB76115710551F14B
:104B30007B01FC01008111810115110519F1F801BA
:104B4000A680B780FC82EB82A982BA82CE0103964E
:104B50000E94C5246C01CE0101960E94C524C8168E
:104B6000D90659F4D701F501CE0CDF1CAC15BD05F3
:104B700059F09D9181919817C9F3C8010E94C51BF6
:104B80008C01DACF10E000E0C8010F900F900F9079
:104B90000F90DF91CF911F910F91FF90EF90DF90D9
:104BA000CF90BF90AF9008959F92AF92BF92CF9257
:104BB000DF92EF92FF920F931F93CF93DF93EC015D
:104BC0007B01D42E0E9443158C01892B09F048C02B
:104BD000CE010E94FF14863609F434C144F58732B1
:104BE00029F08B3581F1823209F035C188819981B4
:104BF0009B838A83CE010E94A2178C01892B81F5A9
:104C0000E881F9811082288139814A815B81C9015B
:104C1000019699838883F7018481807884608483F6
:104C200051834083241B350B3383228319C084377F
:104C300009F4F1C08B3709F453C08E3609F00BC16B
:104C400069E872E0F1C0F701848180788064848330
:104C50001182108213821282D1100FC005E010E081
:104C6000C801DF91CF911F910F91FF90EF90DF90DE
:104C7000CF90BF90AF909F9008951886CE010E946C
:104C80004315009709F019C16DE5CE010E940F157B
:104C90008111E6CFDA9469857A85C7010E943E1BAF
:104CA000009709F407C14D2DBC01CE010E94D42507
:104CB000009709F002C1CE010E944315009709F048
:104CC000FCC06DE5CE010E940F158111C9CF6CE2C9
:104CD000CE010E940F158111DECF03E010E0C0CF9E
:104CE000F70184818078806284831182108213822C
:104CF0001282DD2009F4B2CF1886CE010E9443153E
:104D0000009709F0DAC06DE7CE010E940F158111FE
:104D1000A7CFDA94888199819B838A83CE010E94F0
:104D2000FF148732D9F08232C9F0CE010E94FF14FD
:104D3000182F0E94ED14882381F21886E881F981EA
:104D4000CF010196998388831083CE010E94FF14BE
:104D5000182F0E94ED148111F0CF07C0CE010E94E0
:104D6000A2178C01892B09F07BCFCE010E9443153D
:104D70008C01892B09F074CF6AE3CE010E940F15D4
:104D8000882309F4AACFE881F98110826A817B81A6
:104D9000C7010E948725BC01892BC9F4E881F981EC
:104DA00010820A811B818881998101969983888369
:104DB00069857A85C7010E943E1BFC01892B09F495
:104DC00079C084818F77848317830683BF014D2D3B
:104DD000CE010E94D4258C01892B09F041CFCE0150
:104DE0000E9443158C01892B09F03ACF6DE7CE0163
:104DF0000E940F15811134CF6CE2CE010E940F1575
:104E0000882309F46ACFCE010E9443158C01892BB7
:104E100009F480CF25CFF701848180788660848370
:104E200081E080836EE772E0CE01DF91CF911F9128
:104E30000F91FF90EF90DF90CF90BF90AF909F9039
:104E40000C942015F7018481807886608483108219
:104E500063E872E0E9CFCE010E94FF145E01FBE03F
:104E6000AF0EB11CD12C9A2CCB2C803374F08A332A
:104E700074F49FE3D91699F01886D394F5018193C1
:104E80005F01CE010E94FF14F0CF8B3291F393EDBE
:104E9000980F923070F3982F9F7D953451F3CD0D7C
:104EA000D11D1B86B701892D9C2D0E946E19811181
:104EB000D7CE13CF04E010E0D3CE8C01D1CECF9269
:104EC000DF92EF92FF920F931F93CF93DF93CDB7B3
:104ED000DEB7CB54D1090FB6F894DEBF0FBECDBFFD
:104EE0008C01FB0180819181009711F48AE492E0AA
:104EF000F8012081318133832283268137813583F4
:104F0000248310861586C12CD12C7601FB01C0802C
:104F1000D180C982DA82EB82FC821D829F838E83DC
:104F200019861B870A87B801675F7F4FCE010196FC
:104F30000E94D425009749F42885222331F0F801F6
:104F4000258523FF02C083E090E0C55BDF4F0FB6ED
:104F5000F894DEBF0FBECDBFDF91CF911F910F91AF
:104F6000FF90EF90DF90CF9008959F92AF92BF9205
:104F7000CF92DF92EF92FF920F931F93CF93DF9325
:104F8000EC017B01D42E0E94A9158C01892B09F01C
:104F900052C0CE010E946515863609F454C194F5BD
:104FA000873229F08B35D1F1823209F055C1E88181
:104FB000F981828193819B838A8384819581228177
:104FC0003381821B930B9F838E831D821C82892BCE
:104FD00011F481E08087CE010E9498188C01892B02
:104FE00051F5AC80BD80B501888199810E947F1BFD
:104FF000F701248120782560248391838083B38204
:10500000A28219C0843709F407C18B3709F453C051
:105010008E3609F021C169E872E007C1F701848189
:105020008078806484831182108213821282D1106E
:105030000FC005E010E0C801DF91CF911F910F91E3
:10504000FF90EF90DF90CF90BF90AF909F9008952A
:105050001C86CE010E94A915009709F02CC16DE5B0
:10506000CE010E9475158111E6CFDA946D857E859B
:10507000C7010E943E1B009709F46EC04D2DBC0174
:10508000CE010E94B527009709F015C1CE010E94FC
:10509000A915009709F00FC16DE5CE010E947515A5
:1050A0008111C9CF6CE2CE010E9475158111DECF4E
:1050B00003E010E0C0CFF7018481807880628483B0
:1050C0001182108213821282DD2009F4B2CF1C8675
:1050D000CE010E94A915009709F0EDC06DE7CE0141
:1050E0000E9475158111A7CFBB24B394DA94E8818F
:1050F000F981828193819B838A8384819581228136
:105100003381821B930B9F838E831D821C82892B8C
:1051100009F4B086CE010E946515873201F1823212
:10512000F1F0CE010E946515182F0E94ED1488231E
:1051300009F4BECF1C86612FCE010E947E18CE01DD
:105140000E946515182F0E94ED148111F3CFE8819C
:10515000F9818085882351F004E010E06CCFCE0106
:105160000E9498188C01892B09F065CFCE010E940E
:10517000A9158C01892B09F05ECF6AE3CE010E944C
:105180007515882309F494CFEA81FB818C819D8178
:10519000E80FF91F10826A817B81C7010E94872571
:1051A000BC01892BA9F46C817D81888199810E9441
:1051B0007F1B8C016D857E85C7010E943E1BFC0113
:1051C000892B51F284818068848317830683BF0111
:1051D0004D2DCE010E94B5278C01892B09F02BCFD4
:1051E000CE010E94A9158C01892B09F024CF6DE70F
:1051F000CE010E94751581111ECF6CE2CE010E9476
:105200007515882309F454CFCE010E94A9158C018D
:10521000892B09F46CCF0FCFF701848180788660E9
:10522000848381E080836EE772E0CE01DF91CF91CD
:105230001F910F91FF90EF90DF90CF90BF90AF90B4
:105240009F900C948615F701848180788660848312
:10525000108263E872E0E9CFCE010E9465155E011D
:10526000FFE0AF0EB11CD12C9A2CCB2C803374F004
:105270008A3374F49FE3D91699F01C86D394F50110
:1052800081935F01CE010E946515F0CF8B3291F3BF
:1052900093ED980F923070F3982F9F7D953451F3D2
:1052A000CD0DD11D1F86B701892D9C2D0E946E1931
:1052B0008111C1CEFDCE8C01BECEFC01248125FF23
:1052C00004C0009711F00C94872590E080E00895C9
:1052D000CF92DF92EF92FF920F931F93CF93DF93C2
:1052E0001F921F92CDB7DEB7FC018481982F9F7764
:1052F00039F4807880628483118210821382128252
:10530000848185FF29C06115710531F16A017B0136
:105310008F01CF010E948725009769F08C01C80199
:105320000F900F90DF91CF911F910F91FF90EF9011
:10533000DF90CF900895B601C8010E943E1B8C01FA
:10534000009769F39A83898341E050E0B701CE0169
:1053500001960E948914E3CF10E000E0E0CFCF93E4
:10536000DF93EC0130E020E0009719F00E943E6CE2
:105370009C01BE01C901DF91CF9108950F931F9346
:10538000CF93DF93EC0188819981009759F02A81AE
:105390003B812617370730F081E0DF91CF911F91D5
:1053A0000F9108958B016F5F7F4F0E946A73009782
:1053B00059F0998388831B830A832C813D81232B99
:1053C00059F7FC011082E8CF80E0E7CFEF92FF921F
:1053D0000F931F93CF93DF93EC017B016115710550
:1053E00011F1CB010E943E6C0097A9F00C811D8148
:1053F000080F191FB801CE010E94BE29882399F019
:10540000288139818C819D81B701820F931F0E9471
:10541000376C1D830C83CE01DF91CF911F910F91CB
:10542000FF90EF900895CE010E94071EF4CFEF92F7
:10543000FF920F931F93CF93DF936115710541F492
:1054400080E0DF91CF911F910F91FF90EF90089531
:1054500041155105B1F07B01EC010C811D81040F58
:10546000151FB8010E94BE29882351F32881398174
:105470008C819D81B701820F931F0E946A741D83E6
:105480000C8381E0DECFCF93DF93EC01FB014481FD
:105490005581608171810E94172A811103C0CE015C
:1054A0000E94071ECE01DF91CF910895CF93DF9325
:1054B000EC01EAA1FBA1E80FF91F1282BC016E5FAB
:1054C0007F4F81F0FB0101900020E9F73197AF0198
:1054D000461B570B888199810E94172A882311F057
:1054E0001BA21AA28AA19BA1DF91CF9108951F93BD
:1054F000CF93DF93EC01162F8AA19BA10196809791
:10550000B8F48AA19BA19C012F5F3F4F3BA32AA324
:105510008C0F9D1FFC01128321E030E08CA19DA126
:10552000820F931F9DA38CA3DF91CF911F910895AC
:10553000CE010E94562A892B21F330E020E0EECFE5
:10554000BF92CF92DF92EF92FF920F931F93CF9370
:10555000DF93EC016A018B017B01E40EF51EE0167E
:10556000F106D1F0F801B1908F018AA19BA10196BB
:10557000809760F48AA19BA19C012F5F3F4F3BA3C2
:105580002AA38C0F9D1FFC01B282E9CFCE010E949D
:10559000562A892B79F3E3CF4CA15DA14C0D5D1DFB
:1055A0005DA34CA3DF91CF911F910F91FF90EF90DE
:1055B000DF90CF90BF9008958F929F92AF92BF924D
:1055C000CF92DF92EF92FF920F931F93CF93DF93CF
:1055D000CDB7DEB766970FB6F894DEBF0FBECDBF6E
:1055E0006C018E01095E1F4F78018AE0882E912C94
:1055F000A12CB12CCB01BA01A50194010E94CA7063
:10560000942F852F605DF80162938F01A901692FA6
:10561000782F411551056105710561F7A7014E1BF2
:105620005F0BBF01C6010E94A02A66960FB6F894D0
:10563000DEBF0FBECDBFDF91CF911F910F91FF90C5
:10564000EF90DF90CF90BF90AF909F908F90089594
:10565000FB0101900020E9F73197AF01461B570B82
:105660000C94A02A1F93CF93DF93EAE3F2E0128118
:10567000112379F0329621816213F9CFEC016CE5A8
:105680000E94772A612FCE01DF91CF911F910C9458
:10569000772A6111F9CF6EE872E0DF91CF911F9107
:1056A0000C94282B2F923F924F925F926F927F9291
:1056B0008F929F92AF92BF92CF92DF92EF92FF9222
:1056C0000F931F93CF93DF93CDB7DEB76C970FB6D1
:1056D000F894DEBF0FBECDBF8C011B01DC01149618
:1056E0008C9114978F77863009F492C268F58230D6
:1056F000A0F11296ED90FC901397CC901196DC904F
:10570000843008F056C2A701B601C1010E94A02A48
:10571000F10184A195A16C960FB6F894DEBF0FBE7F
:10572000CDBFDF91CF911F910F91FF90EF90DF9050
:10573000CF90BF90AF909F908F907F906F905F9031
:105740004F903F902F9008958C3069F160F488302D
:1057500009F459C28A3009F43FC269E872E0C10114
:105760000E94282BE5C1803209F4ECC18034A9F7EE
:105770006BE5C1010E94772AF801008111810115B2
:10578000110509F4DAC1B101C8010E94522BC80108
:105790000E94C51B8C01892B09F4CFC16CE2C101A9
:1057A0000E94772AECCFF801C080D180E280F3809C
:1057B000A7019601C701B6010E94796F8111CDCF73
:1057C00020E030E0A901C701B6010E94796F88236B
:1057D00079F0A7019601C701B6010E9418719B01DB
:1057E000AC01C701B6010E94796F882309F4B5CFD7
:1057F00020E030E0A901C701B6010E94796F87FF60
:1058000008C06DE2C1010E94772AF7FAF094F7F818
:10581000F09420E836E948E15BE4C701B6010E9454
:10582000B37187FD81C074E1A72EB12C00E210E0B6
:10583000188E1F8AF501EE54FD4F25913591459143
:105840005491C701B6010E94B37187FD13C0F501E1
:10585000EE57FD4F2591359145915491C701B60101
:105860000E94DF6F6B017C012F89388D200F311F63
:10587000388F2F8B1595079534E0A31AB1088CEF5C
:10588000A8168FEFB806B1F655245A9420E030E000
:10589000A901C701B6010E94B37118160CF04BC0E4
:1058A0002CEA35EC47E257E3C701B6010E94796F55
:1058B00018160CF440C0A52DB4E0AB02C0011124B1
:1058C000B12CA12CFC01E656FD4F3F019C012E544A
:1058D0003D4F49013FEF531671F1F301EA0DFB1DF6
:1058E0002591359145915491C701B6010E94796F78
:1058F00087FF13C0F401EA0DFB1D259135914591F9
:105900005491C701B6010E94DF6F6B017C018F8942
:10591000988D801B910B988F8F8B159507955A94B6
:1059200094E0A91AB108D6CF00E210E055E0552E58
:10593000188E1F8AABCFC701B6010E9484714B013C
:105940005C012B013C0106E080E492E4AFE0B0E0B2
:10595000898F9A8FAB8FBC8F102F01509AE0491618
:10596000510461047104C8F0698D7A8D8B8D9C8D12
:105970002AE030E040E050E00E94CA70298F3A8F60
:105980004B8F5C8FC301B2012AE030E040E050E071
:105990000E94CA7029013A01DFCFC501B4010E94FB
:1059A0007E6F9B01AC01C701B6010E9417716B01AC
:1059B0007C01698D7A8D8B8D9C8D0E947E6F9B0101
:1059C000AC01C701B6010E94DF6F2B013C010E94B0
:1059D00084716B017C010E947E6F9B01AC01C3014D
:1059E000B2010E9417719B01AC010E9418710E94C4
:1059F0008471C60ED71EE81EF91E898D9A8DAB8D57
:105A0000BC8DC816D906EA06FB06D8F09FEF891AA6
:105A1000990AA90AB90AAF89B88DAB2B39F1BAE056
:105A20008B169104A104B10408F1EF89F88D319629
:105A3000F88FEF8BC12CD12C7601812C912C540145
:105A400083942AE0422E512C612C712CC701B6019F
:105A5000A30192010E94CA70672B682B692B51F435
:105A6000111644F469017A011150F0CFC12CD12CE8
:105A70007601E7CFB501A401C1010E94DC2A112300
:105A800071F14E01F1E18F0E911C012F54019AE04A
:105A9000492E512C612C712C015068F0C701B601C0
:105AA000A30192010E94CA70605DD4016E934D0102
:105AB00069017A01F1CF812F90E0BC01609570956A
:105AC000F501E81BF90B31978EE2808344275527B7
:105AD000461B570B6A0D7B1DC1010E94A02AEF894E
:105AE000F88DEF2B29F165E6C1010E94772A0F8915
:105AF000188D17FF07C06DE2C1010E94772A11952A
:105B000001951109FE0177969F018AE0E82EF12C9C
:105B1000C801B7010E94FB70805D82938B01672BE7
:105B2000B9F7A9014E1B5F0BBF01C1010E94A02A5A
:105B3000D10194968D919C91EECD6DE5C1010E94AD
:105B4000772AF6CF6BE7C1010E94772AF80100811E
:105B500011810115110559F1D8011696CC901697AF
:105B60001796DC9062E2C1010E94772A7601F70164
